S02F00007468726561645F726F757465725F7477726B773234643531325F6D71786C6974655F64656275672E73726563B4
S1130000885D002071B402001B72000017790000A3
S1130010C77A0000EFCD000043ED000000000000AF
S11300200000000000000000000000007F720000DB
S11300307BED000000000000F5720000B3B4020084
S11300407DD002007DD002007DD002007DD0020070
S11300507DD002007DD002007DD002007DD0020060
S11300607DD002007DD002007DD002007DD0020050
S11300707DD002007DD002007DD002007DD0020040
S11300807DD002007DD002007DD002007DD0020030
S11300907DD002007DD002007DD002007DD0020020
S11300A07DD002007DD002007DD002007DD0020010
S11300B07DD002007DD002007DD002007DD0020000
S11300C07DD002007DD002007DD002007DD00200F0
S11300D07DD002007DD002007DD002007DD00200E0
S11300E07DD002007DD002007DD002007DD00200D0
S11300F07DD002007DD002007DD002007DD00200C0
S11301007DD002007DD002007DD002007DD00200AF
S11301107DD002007DD002007DD002007DD002009F
S11301207DD002007DD002007DD002007DD002008F
S11301307DD002007DD002007DD002007DD002007F
S11301407DD00200AFB40200AFB40200AFB402002D
S1130150AFB40200AFB40200AFB40200AFB4020007
S1130160AFB40200AFB40200AFB40200AFB40200F7
S1130170AFB40200AFB40200AFB40200AFB40200E7
S1130180AFB40200AFB40200AFB40200AFB40200D7
S11303F0AFB40200AFB40200AFB40200FFFFFFFFCE
S1130400FFFFFFFFFFFFFFFFFFFFFFFFFEFFFFFFF9
S1130410FEB504000D001600DFF818080078002867
S113042001D10E2082E0DFF8B4090078002807D05B
S1130430F6B2002E04D101A802F012FE0F2075E0DE
S1130440002C01D1052071E001A9200002F0AAF8D6
S11304500700C0B2002802D03800C0B266E08DF8B0
S1130460085001A802F02CF90700C0B211285BD192
S11304704FF6FF7001F096FC0700C0B2002802D0CE
S11304803800C0B252E00020DFF854190870DFF8D9
S1130490180B0368DFF8140BDFF8B81A4978182230
S11304A002FB0100C268DFF8040BDFF8A81A4978E0
S11304B05FF0180C0CFB01000168DFF8F40A02F08D
S11304C0AAFFDFF8E40A006800900023DFF8DC0AE2
S11304D0DFF8801A4978182202FB0100C068C208BC
S11304E092B2DFF8C80ADFF86C1A49785FF0180C8A
S11304F00CFB01000168DFF8B80A02F0A2FF002833
S11305000ED1DFF8A80ADFF84C1A4978182202FB4A
S11305100100DFF8D01801610020DFF8381A0870F4
S113052001A802F0CDF807003800C0B2FEBD10B536
S113053082B0DFF800070078002801D10E2061E0C6
S1130540DFF898080078002801D00F205AE0042230
S1130550DFF8580ADFF85C1A0978182303FB010056
S1130560016800A802F0BCFF009801F00FFE04002F
S1130570C0B2002801D100F021FD0021080080B2A2
S113058020283DDADFF8D419096880B20C2202FB76
S11305900011096800290BD1DFF8C019096880B27D
S11305A00C2202FB001109894FF6FE72914227D0FA
S11305B0DFF8A819096880B20C2202FB00114989EE
S11305C001291BD100221100DFF89029126880B2A2
S11305D00C2303FB00229288C9B2D2B291420DD2FD
S11305E0DFF87829126880B20C2303FB002212681A
S11305F0C9B2002342F82130491CE5E7401CBEE79C
S11306002000C0B216BD70B584B0DFF828060078AB
S1130610002804D0DFF8C4070078002800D0B6E032
S1130620DFF8BC070078002808D0DFF82C09008820
S113063001F0B8FB0020DFF8A8170870DFF81409F0
S11306400078002846D0DFF80C094068DFF85C1910
S1130650DFF800295278182303FB02114968884205
S11306600FD3DFF84809DFF8EC184978182202FBA9
S11306700100DFF8701701610020DFF8D818087056
S113068085E0DFF824090368DFF8B02ADFF8C4083E
S11306904168DFF81C0902F0BEFE0600DFF8080915
S11306A0006800900023DFF8940AC20892B2DFF8D1
S11306B0A4084168DFF8F80802F0C3FE002809D155
S11306C0DFF890084068DFF8741A0818DFF8841817
S11306D048605CE0DFF8B00A0078002821D0DFF839
S11306E0A80A007800F071F8002816D0DFF89C0AF8
S11306F0007803F0B3F800280FD1FF21002002F0A6
S11307003CFD05000023DFF8882AEDB215F55A7187
S1130710DFF8780A007803F00FF90020DFF8681A90
S11307200870DFF8700A00F02FFB00282FD001A911
S1130730DFF8600A00F001FB002828D0BDF80400AF
S113074002F06BFC0400A4B24FF6FF708442EED0BA
S113075001A801F0B5FF112803D101A802F080FC23
S113076015E09DF808000028E1D00020DFF80C1BFC
S1130770A4B2062202FB041108704FF48070DFF863
S1130780FC1AA4B2062202FB04118880CFE77FBDC5
S113079030B583B004000D00DFF898040078002819
S11307A001D10E2010E0002C01D105200CE08DF8C1
S11307B0045000A9200001F0F5FE002801D0062015
S11307C002E000A802F098F93EBD7CB50400DFF811
S11307D064040078002801D10E208EE00020060079
S11307E000200500E4B2002C00F08580DFF86C07DF
S11307F00068B6B20C2101FB060000894FF6FE71B9
S1130800884278D0DFF8740AB6B2062101FB0600EC
S1130810408800280ED0DFF8640AB6B2062101FB36
S113082006004088401EDFF8541AB6B2062202FBC6
S113083006114880DFF8440AB6B2062101FB06001F
S11308404088002801D001200500DFF8300AB6B244
S1130850062101FB0600007800284AD0DFF81C0AB4
S1130860B6B2062101FB06004088002841D1DFF81A
S11308706C050078002829D1DFF8E0060068B6B2DC
S11308800C2101FB06000089ADF800000020ADF842
S1130890020001208DF8040000A801F011FF1128C6
S11308A002D100A802F0DCFB0020DFF8D019B6B2B8
S11308B0062202FB061108704FF48070DFF8BC19A1
S11308C0B6B2062202FB0611888012E0DFF88C061D
S11308D00068B6B20C2101FB06000089ADF80000E7
S11308E00020ADF8020001208DF8040000A802F0F9
S11308F0B7FB761C7AE72800C0B276BD70B582B02B
S11309000025CC480078002801D0102039E102F0FD
S1130910D1FCDFF8DC0A4008DFF8D41ADFF8D02A6B
S1130920B1EB5201884201D008202AE100200400E2
S1130930E4B2202C1ADADFF8A0040068E4B20C2137
S113094001FB0400006800280ED1DFF88C04006865
S1130950E4B20C2101FB040000894FF6FE718842C9
S113096002D10120050001E0641CE1E7EDB2002D95
S113097001D1192005E10220DFF838160870DFF8EC
S1130980740ADFF828160860DFF8640A4008DFF804
S11309901C160872DFF81406007ADFF8A017484323
S11309A0DFF80816C860DFF804060068DFF8FC15F5
S11309B0C9680818401EDFF8F4154860DFF8EC0534
S11309C04068401CDFF8E4158861DFF8240A400819
S11309D0DFF8D81581F82000DFF8D00590F8200062
S11309E0DFF858174843DFF8C4154862DFF8BC0540
S11309F08069DFF8B815496A0818401EDFF8AC159D
S1130A00C8610020DFF8B01508704FF6FF70DFF8FA
S1130A104815088000F0E8F9DFF8780700F04DF990
S1130A2000200400E4B2202C13DA0020DFF84C1874
S1130A30E4B2062202FB04110870DFF8B00C00884F
S1130A40DFF83818E4B2062202FB04118880641C23
S1130A50E8E70020DFF830170870FF20DFF82C17D4
S1130A600870002001F06CFCDFF8E41C0860012031
S1130A7001F066FCDFF8DC1C0860DFF8D80C0068C5
S1130A80002810D10422DFF82405DFF8281509789E
S1130A90182303FB0100016800A802F021FD00985F
S1130AA001F074FB26E001F0A3FCDFF8AC1C087035
S1130AB0DFF8A40C007800281CD000F07FFA00288E
S1130AC008D14FF6FF7001F06DF901205949087003
S1130AD0002056E0002001F059FB002808D100F066
S1130AE06DFA002804D1012052490870002048E022
S1130AF0132046E000F062FA002833D101204D496A
S1130B00087000200400E4B2202C29DAB2480068FE
S1130B10E4B20C2101FB0400006800280AD1AE48AD
S1130B200068E4B20C2101FB040000894FF6FE7159
S1130B30884215D0A8480068E4B20C2101FB0400E7
S1130B40408901280AD1A4480068E4B20C2101FBC1
S1130B500400066801213000FFF71AFE641CD2E786
S1130B6000200EE0002001F011FB002808D100F065
S1130B7025FA002804D101202E490870002000E045
S1130B80132076BDF0B583B004000026206801F080
S1130B90EAFC002804D12068002801D0002048E0A5
S1130BA000A9200001F0FEFC0700C0B2002802D01A
S1130BB03800C0B23DE0BDF8000002F02EFA050096
S1130BC080B24FF6FF71884201D1092031E0DFF88D
S1130BD08C030068ADB20C2101FB0500408901289B
S1130BE001D01F2025E0DFF874030068ADB20C21AA
S1130BF001FB0500C08803F067F90600002E01D14F
S1130C001E2016E0206800280BD0DFF8500300688F
S1130C10ADB20C2101FB0500C2882168300002F04E
S1130C205FFC012003F0E1FB2660012003F0E8FBF8
S1130C300020FEBD144300207CB5040000A9200060
S1130C4001F0B0FC0600C0B2002802D03000C0B2EF
S1130C5032E0BDF8000002F0E0F9050080B24FF682
S1130C60FF71884201D1092026E0BC480068ADB27A
S1130C700C2101FB05004089012801D01F201BE045
S1130C80206801F070FC002809D12068002802D0F7
S1130C90206803F04AF90020206000200CE00120C5
S1130CA003F0A3FB00202060012003F0A9FB012234
S1130CB000212000FFF7ACFB76BD0100002901D123
S1130CC0002009E0002081F8C000002081F8C10064
S1130CD0002081F8C2000120704716B50400002CE2
S1130CE001D1002028E094F8C10094F8C010884293
S1130CF005D194F8C200002801D000201CE094F82B
S1130D00C100062101FB004000A9062203F0AAFB52
S1130D1094F8C100401C202190FBF1F202FB110267
S1130D2084F8C12094F8C200202804DA94F8C200A0
S1130D30401C84F8C200012016BD38B504000D0023
S1130D40002C05D094F8C200002801D0002D01D158
S1130D50002018E0280094F8C010062202FB01418C
S1130D60062203F07FFB94F8C000401C202190FB76
S1130D70F1F202FB110284F8C02094F8C200401E74
S1130D8084F8C200012032BD0100002901D10020F5
S1130D9001E091F8C200704738B50400E4B2022CB7
S1130DA001DB022016E0804803688048E4B2182181
S1130DB001FB0400C2687D48E4B2182101FB040071
S1130DC001687B4802F027FB0500002D01D10020BB
S1130DD000E0042032BD0000B007002015430020CD
S1130DE0124300200000FF3F00B585B004226F4885
S1130DF0016801A802F074FB04226C484068C11E1B
S1130E0003A802F06DFB04226848816900A802F07F
S1130E1067FB04226548C069C11E02A802F060FB9A
S1130E200220644908700198039988424CD10198C2
S1130E3010F1010F48D000980299884217D1009808
S1130E4010F1010F13D001980099884207D301983B
S1130E50DFF80819086000205649087078E0009807
S1130E60DFF8F818086001205249087070E0009813
S1130E700299884211D00198DFF8E0180860002038
S1130E804C49087001204C494870484880694A49D7
S1130E9048600120484908705AE00198DFF8BC18FE
S1130EA00860002043490870012000F059F8032825
S1130EB009D10120404948703C4880693E49486056
S1130EC001203D49087043E00198039988421DD0F0
S1130ED000980299884215D1009810F1010F11D0A1
S1130EE00098DFF878180860012032490870002063
S1130EF0314948702D4800682F49486001202E4927
S1130F00087025E0002001F041F921E000980299E1
S1130F1088421AD1009810F1010F16D00098DFF81A
S1130F203C180860012023490870002000F018F8DC
S1130F30032809D10020204948701C4800681E4934
S1130F40486001201C49087002E0002001F01EF9ED
S1130F5005B000BDE4410020F0420020B0070020AD
S1130F6010B582B00400E4B2022C01DB022019E0C7
S1130F700D480068009000230C48E4B2182101FBDE
S1130F800400C068C20892B20848E4B2182101FB08
S1130F9004000168064802F054FA002801D0032036
S1130FA000E0002016BD000034420020303E002046
S1130FB08405002011430020E441002010B584B0D2
S1130FC0DFF89C07DFF8D41D0978182202FB010022
S1130FD00068DFF88017096808180C300400DFF88F
S1130FE08007DFF8B81D0978182202FB0100406869
S1130FF0844280F09F800122210002A802F070FA4E
S11310009DF80800FF2840F093800822210000A8E2
S113101002F066FA00AA106851685FF0FF325FF0D0
S1131020FF33994240F08280904240F07F80DFF8A5
S11310303007DFF8681D0978182202FB01000068F8
S1131040DFF81017096808180C30844217D1DFF84C
S1131050500DDFF80C17DFF8442D1278182303FB2A
S113106002110861DFF8380DDFF8F416DFF82C2DD3
S11310701278182303FB0211486100205BE0083C4E
S1131080DFF8DC06DFF8141D0978182202FB0100E2
S11310900068DFF8C016096808180C30844243D38E
S11310A00822210000A802F01BFA9DF800009DF818
S11310B00710884236D19DF80000AA2803D09DF875
S11310C0000055282ED1DFF89806DFF8D01C0978E7
S11310D0182202FB01000461DFF88406DFF8BC1C5F
S11310E00978182202FB01000068DFF86816096815
S11310F008180C30844213D3BDF80500002806D12B
S1131100083C0822210000A802F0EAF9E4E7DFF82D
S11311105006DFF8881C0978182202FB010044619C
S1131120002008E0083CABE70B2004E00B2002E0C1
S1131130083454E70B2004B010BD00000008000080
S113114070B504000D001600DFF81406E4B218218F
S113115001FB04000068DFF8FC15096808180C306E
S1131160854208D3DFF8F805E4B2182101FB040036
S11311704068A84201D2072005E008222900300077
S113118002F0AEF9002070BD164300201743002082
S1131190733100009CF0FF1F7FB50400DFF8C00529
S11311A0DFF8F81B0978182202FB01000069DFF858
S11311B0F01B88420FD1DFF8A805DFF8E01B09789F
S11311C0182202FB0100C068DFF888150968401A7C
S11311D0103820604EE000AADFF88405DFF8BC1B5D
S11311E00978182303FB01000169DFF8B00B0078CC
S11311F0FFF7A6FF0500EDB2002D39D1BDF80500BB
S113120000281BD102AADFF85805DFF8901B0978E3
S1131210182303FB01004169DFF8800B0078FFF716
S11312208FFF0600F6B2002E04D0002020603000AC
S1131230C0B221E0BDF80D00ADF80500DFF82005CF
S1131240DFF8581B0978182202FB01000068BDF87A
S1131250051010FA81F0DFF80815DFF8402B12783A
S1131260182303FB02110969401A0838206001E0C1
S1131270002020602800C0B204B070BD60F1FF1FE0
S113128070B582B004000D000420B5FBF0F101FB41
S11312901051002901D000203EE0DFF8C404DFF83B
S11312A0FC1A0978182202FB0100006884420AD360
S11312B0DFF8AC04DFF8E41A0978182202FB010015
S11312C04068A04201D2002026E0DFF89404DFF851
S11312D0CC1A0978182202FB01004068401C291925
S11312E0884201D2002017E0002D14D004222100EE
S11312F000A802F0F5F804200600F6B2002E07D08C
S1131300761E00A8F6B2305CFF28F6D0002003E079
S11313102D1F241DE8E7012076BD2DE9FC410400C2
S11313200D00DFF83C04E4B2182101FB040000685E
S1131330DFF82014096808180C30060000200700A4
S11313400822310000A802F0CBF89DF80000FF2825
S113135049D09DF800009DF80710884201D0083656
S113136039E09DF8020000029DF8011050FA81F066
S11313708046B5F801001FFA88F840452AD128783C
S1131380AA2819D19DF80000AA2812D19DF80400BA
S113139000029DF8031050FA81F08046B5F803006E
S11313A01FFA88F8804502D1012007001BE00836A7
S11313B011E00120070016E02878552808D19DF88F
S11313C00000AA2801D1083605E0012007000AE040
S11313D0083600E00836E248E4B2182101FB0400B4
S11313E040688642ACD33800C0B2BDE8F681000044
S11313F02000000000F806002DE9F24F96B0834665
S113140015001E00209C0020ADF8060000270020D7
S1131410ADF804000020824603A82900082203F046
S113142021F8CF48DFF874190978491C022291FB8E
S1131430F2F303FB1213182101FB03000068BBEB5A
S11314400000ADF81100DFF83C0D0068B6B20C21C5
S113145001FB06008088DFF82C1D0968B6B20C2257
S113146002FB0611C98810FB01F0ADF80400BDF8B9
S11314700400A4B2844210D2BDF80400001BADF8ED
S11314800600A4B2DFF8FC0C0068B6B20C2101FB24
S11314900600C08894FBF0F00700A4B2002C4CD0E6
S11314A0A4B2412C26DB4022AD48DFF8F0180978BD
S11314B0182303FB01000068B5F8051010FA81F049
S11314C010FA8AF105A802F00BF8DFF85C0D006849
S11314D0009005AB40225946DFF8500D01F002FFA1
S11314E0002805D11BF1400B403C1AF1400AD4E717
S11314F00C20D4E0A4B222009948DFF8A01809789F
S1131500182303FB01000068B5F8051010FA81F0F8
S113151010FA8AF105A801F0E3FFDFF80C0D00686A
S1131520009005ABA4B222005946DFF8000D01F08B
S1131530D9FE002801D00C20B1E0BDF80600002837
S113154000F09D801BFA84FB1BF0FC00BBEB000049
S11315508046002082465FFA88F8B8F1000F64D014
S11315605FEA9B0B5FEA8B0BDFF8180C0068B6B2DE
S11315700C2101FB0600C0885FFA88F8D8F1040149
S113158088420ADADFF8FC0B0068B6B20C2101FBD2
S11315900600C088ADF8080005E05FFA88F8D8F1C5
S11315A00400ADF808000422594605A801F098FF8C
S11315B0002081464846C0B2BDF8081080B2884277
S11315C022D2DFF8C00B0068B6B20C2101FB060082
S11315D00068BFB2DFF8AC1B0968B6B20C2202FB8C
S11315E00611C98801FB07001FFA8AFA1AF80000DD
S11315F005A95FFA88F808F801001AF1010A18F140
S1131600010819F10109D5E7DFF81C0C0068009006
S113161005AB04225946DFF8140C01F063FE0028E0
S113162001D00C203BE01BF1040BDFF8FC0B00683D
S11316300090DFF8500B0068B6B20C2101FB0600E5
S11316400068BFB2DFF83C1B0968B6B20C2202FB8B
S11316500611C98801FB07001FFA8AFA1AEB000376
S1131660BDF806001FFA8AFAB0EB0A025946DFF801
S1131670BC0B01F037FE002801D00C200FE0DFF88E
S1131680A80B0068009003AB08221699DFF89C0BA6
S113169001F028FE002801D00D2000E0002017B042
S11316A0BDE8F08F30B40100DFF8D83A1B6889B286
S11316B00C2404FB0133DB88DFF8C84A246889B2B0
S11316C00C2505FB0144A488634318000423B0FBE4
S11316D0F3F404FB13042200D2B2002A03D0D2F1A3
S11316E0040350FA83F030BC70470000D407002094
S11316F030B583B004000D001948DFF88C1A09785E
S1131700182202FB010000681249096808180C300D
S113171084421BD300AA2100DFF86C0A0078FFF78B
S11317200FFD9DF80000552805D19DF800009DF897
S11317300710884201D0083CDEE7BDF80100ADB2D5
S1131740A84201D1200002E0083CD5E700203EBDBC
S11317505042002054420020134300204C420020F9
S1131760303E00202DE9FF4F8DB000208DF80A0097
S113177000208DF807000E98B0F801100D98FFF7BF
S1131780B7FF07900798002800F0D0820D98060054
S11317900020ADF8080000200700BFB2402F08DA8F
S11317A04FF6FF70DFF80C1DBFB221F817007F1C45
S11317B0F3E70798B04280F0D68005AA3100DFF83D
S11317C0DC050078FFF7BCFC9DF814009DF81B10A5
S11317D0884203D19DF81400AA2801D0083EE8E706
S11317E0BDF815000E99B1F80110884240F0B98097
S11317F000208DF8060000200700BFB2402F0EDA4B
S1131800BDF81700DFF8AC1CBFB231F817108842DE
S113181003D101208DF8060001E07F1CEDE79DF85F
S11318200600002801D0083EC3E7BDF81700DFF822
S113183054190968BDF83C200C2303FB0211898864
S1131840884201D3083EB4E7DFF838090068BDF8E0
S11318503C100C2202FB0100C08805001A98BDF858
S11318601710ADB205FB010083461BF0FC00BBEB77
S1131870000080465FFA88F8B8F1000F03D05FEAF1
S11318809B0B5FEA8B0B00208246ADB25FFA88F8AF
S1131890D8F10400854202DA2800040002E0D8F1FD
S11318A004000400ADB2002D4CD00422594603A814
S11318B001F016FEE4B22200DFF8E40CDFF8DC14D9
S11318C00978182303FB01000068BDF8191010FA09
S11318D081F010FA8AF104A801F002FE002007004A
S11318E02000C0B2BFB280B287420BD204A8BFB2FC
S11318F0385C03A95FFA88F808F801007F1C18F126
S11319000108EDE7DFF820090068009003AB04222A
S11319105946DFF8180901F0E5FC002810D1E4B2BB
S11319202D1B5AFA84FA1BF1040B00208046ADB239
S1131930042D02DB04200400B4E728000400B1E70E
S11319400C2028E2BDF81700DFF8681BBDF808205A
S113195021F81200BDF80800401C10F03F00ADF85B
S11319600800083E25E705AA0799DFF83004007847
S1131970FFF7E6FB00208DF80A00DFF8400D007841
S113198000281DD00AA9DFF8FC070068BDF83C2038
S11319900C2303FB0200008900F08EFD00280FD009
S11319A0BDF82C00DFF8DC170968BDF83C200C23D7
S11319B003FB02118988884202D201208DF80A00B3
S11319C00020ADF80400BDF80400DFF8B81709687A
S11319D0BDF83C200C2303FB02118988884280F067
S11319E0C680DFF8D80C0078002806D0BDF80400C3
S11319F0BDF82C10884280F0BA8000208DF80600D3
S1131A0000200700BFB2402F0EDABDF80400DFF853
S1131A10A41ABFB231F81710884203D101208DF8FF
S1131A20060001E07F1CEDE79DF80600002840F069
S1131A309880DFF850070068BDF83C100C2202FBC8
S1131A400100C0880500A9461A98BDF80410ADB27B
S1131A5005FB010083461BF0FC00BBEB0000804645
S1131A605FFA88F8B8F1000F03D05FEA9B0B5FEAD6
S1131A708B0B002082461FFA89F95FFA88F8D8F1A7
S1131A800400814502DA4846040002E0D8F104006B
S1131A9004001FFA89F9B9F1000F53D00422594602
S1131AA003A801F01DFDE4B22200DFF8F40ABB49EB
S1131AB00978182303FB01000068BDF8191010FA17
S1131AC081F0BDF80410ADB205FB010010FA8AF1F3
S1131AD004A801F005FD002007002000C0B2BFB239
S1131AE080B287420BD204A8BFB2385C03A95FFA64
S1131AF088F808F801007F1C18F10108EDE7DFF809
S1131B0028070068009003AB04225946DFF81C073D
S1131B1001F0E8FB002813D1E4B2B9EB04095AFA46
S1131B2084FA1BF1040B002080461FFA89F9B9F1ED
S1131B30040F02DB04200400ABE748460400A8E7D6
S1131B400C2028E1BDF80400DFF86819BDF808206E
S1131B5021F81200BDF80800401C10F03F00ADF859
S1131B600800BDF80400401CADF804002BE79DF804
S1131B700A00002800F0AB80BDF80400DFF804166A
S1131B800968BDF83C200C2303FB021189888842B4
S1131B9080F09D80DFF8EC050068BDF83C100C2255
S1131BA002FB0100C0880500A9461A98BDF804107C
S1131BB0ADB205FB010083461BF0FC00BBEB00004B
S1131BC080465FFA88F8B8F1000F03D05FEA9B0BF8
S1131BD05FEA8B0B002082461FFA89F95FFA88F8C6
S1131BE0D8F10400814502DA4846040002E0D8F145
S1131BF0040004001FFA89F9B9F1000F52D004223D
S1131C00594603A801F06CFCE4B22200DFF8740525
S1131C100068BDF83C100C2303FB01000068BDF80C
S1131C200410ADB205FB01001FFA8AFA1AEB000199
S1131C3004A801F055FC002007002000C0B2BFB288
S1131C4080B287420BD204A8BFB2385C03A95FFA02
S1131C5088F808F801007F1C18F10108EDE7DFF8A7
S1131C60C8050068009003AB04225946DFF8BC05A0
S1131C7001F038FB002813D1E4B2B9EB04095AFA95
S1131C8084FA1BF1040B002080461FFA89F9B9F18C
S1131C90040F02DB04200400ACE748460400A9E773
S1131CA00C2078E0BDF80400DFF80818BDF808201F
S1131CB021F81200BDF80800401C10F03F00ADF8F8
S1131CC00800BDF80400401CADF8040054E755209A
S1131CD08DF820000E98B0F80100ADF82100002026
S1131CE0ADF823001A98DFF8B8182C4A1278521C61
S1131CF0022392FBF3FC0CFB132C182202FB0C11A5
S1131D000968401AADF8250055208DF82700DFF842
S1131D1018050068009008AB08221099DFF80C053C
S1131D2001F0E0FA002834D00D2034E0DFF8540448
S1131D300068BDF83C100C2202FB0100C088009032
S1131D40BDF83C300E9A10991A98FFF755FB8DF8A0
S1131D500700C0B2002802D09DF807001BE0DFF89E
S1131D6024040068BDF83C100C2202FB01004089E9
S1131D7001280ED1DFF80C040068BDF83C100C22D9
S1131D8002FB010000680E99B1F803101A9A40F89A
S1131D9021209DF8070011B0BDE8F08F1143002009
S1131DA00000FF3F2DE9F04F89B00400DFF8D803AD
S1131DB00078401C022190FBF1F202FB1102170093
S1131DC03800C0B2FFF7CCF803280CD13800C0B2F9
S1131DD0FEF7E2FF81465FFA89F9B9F1000F02D0FC
S1131DE04846C0B2A0E13800C0B200F021FADFF8E2
S1131DF0B007DFF894130978182202FB0100006988
S1131E008346DFF89C07FFB2182101FB0700006836
S1131E10DFF8C01C096808180C3006000596DFF8C6
S1131E208007FFB2182101FB07004068C01E8046EE
S1131E30DFF86C07D4490978182202FB0100006816
S1131E40DFF8941C096808180C308345C0F003813E
S1131E5002AA5946CC480078FFF772F9DFF85C080B
S1131E600078002844D00020824600208DF8040029
S1131E70C44800681FFA8AFA0C2101FB0A00008991
S1131E804FF6FE7188422CD0BDF80900BD4909689F
S1131E901FFA8AFA0C2202FB0A11098988421DD111
S1131EA0B84800681FFA8AFA0C2101FB0A0040892D
S1131EB001280FD1B34800681FFA8AFA0C2101FBEC
S1131EC00A000068BDF80B1050F8210000F04BFB2D
S1131ED0002806D001208DF8040002E01AF1010A5E
S1131EE0C6E79DF80400002802D1BBF1080B9FE768
S1131EF0BDF8090001F091F805009DF808009DF86F
S1131F000F1088420FD1ADB24FF6FF7085420AD050
S1131F10ADB2A4B2A54206D002A93800C0B2FFF700
S1131F20FCF9002802D0BBF1080B81E79DF80800FA
S1131F30AA2806D09DF80800552802D0BBF1080B4A
S1131F4076E790480068ADB20C2101FB050040899A
S1131F50012811D18B480068ADB20C2101FB0500AA
S1131F600068BDF80B1050F8210000F0FCFA0028BE
S1131F7002D1BBF1080B5BE7280080B2FFF792FBAC
S1131F80B8EB000080467F480068ADB20C2101FB2D
S1131F90050080887B490968ADB20C2202FB05115B
S1131FA0C98848430490DFF814070078002829D032
S1131FB006A974480068ADB20C2202FB0500008932
S1131FC000F07AFA00281DD0BDF81E006D4909689A
S1131FD0ADB20C2202FB0511C988884201D01B2036
S1131FE0A2E0BDF81C0067490968ADB20C2202FBEF
S1131FF005118988884205D2BDF81C00BDF81E1061
S1132000484304909DF80800552810D1049880B2E4
S113201000902B009BB202AA31004046FFF7ECF976
S11320208146C0B2002812D04846C0B27CE0CDF848
S1132030008033002A0092B202A95846FFF792FBAF
S11320408146C0B2002802D04846C0B26CE00836CF
S1132050BBF1080BECE64C480078DFF8801A4870B6
S1132060DFF83C0548490978182202FB01000068A2
S1132070DFF8681A48600120DFF8601A08704248E7
S113208007700598864214D1DFF8540ADFF810155A
S11320903D4A1278182303FB02110861DFF8400A55
S11320A0DFF8FC14384A1278182303FB0211486144
S11320B009E0B6F10800DFF8E814334A127818236F
S11320C003FB02110861DFF8D8042F4909781822AC
S11320D002FB01000069DFF8C8142B4A12781823A8
S11320E003FB02114861DFF8FC090068411C264823
S11320F0007800F01CF8002806D1DFF8E809006831
S1132100401CDFF8E0190860DFF8B005007800280B
S113211009D0012000F014F9DFF8BC190860002090
S1132120DFF898150870002009B0BDE8F08F13B5EA
S113213004003D480068009001AB0422DFF860040D
S1132140E4B2182101FB04000168384801F0CAF820
S1132150002815D134480068009001AB0422DFF850
S11321604004E4B2182101FB04004068C11E2F485A
S113217001F0B8F8002801D1002002E0012000E0BD
S1132180012016BDB00700201143002070B50400E3
S1132190032514F1020F02D10120040000E0641CA5
S11321A02800451EC0B2002821D01F480368DFF86C
S11321B0F003C268DFF8E80301681C4801F02BF95A
S11321C0060019480368DFF8D803426ADFF8D00331
S11321D08169164801F01FF906000020FEF7C0FED1
S11321E00028DDD10120FEF7BBFE0028D8D1210054
S11321F00020FFF79CFF002813D10020DFF8E81827
S11322000870DFF8E408007800F012F8012000F00C
S113221097F8DFF8C4180860DFF8C80804600020E5
S113222000E0132070BD000034420020840500202B
S113223070B584B00400DFF8B4080068002801D148
S113224000207BE0DFF8A8080290D548E4B218210A
S113225001FB04000068001D0600DFF89808006810
S1132260009002AB04223100DFF8F00D01F03AF8DF
S1132270002801D0002061E000200500361DDFF8B1
S11322806C080068ADB20C2101FB050000894FF613
S1132290FE71884242D0DFF854080068ADB20C21C8
S11322A001FB05000089000400F57F40FF30019028
S11322B0DFF840080068009001AB04223100DFF829
S11322C09C0D01F00FF8002801D0002036E0361DE7
S11322D0DFF818080068ADB20C2101FB0500808806
S11322E00004DFF808180968ADB20C2202FB0511DE
S11322F0C98810FA81F00190DFF8F80700680090AF
S113230001AB04223100DFF8540D00F0EBFF00288C
S113231001D0002012E0361D6D1CB0E7DFF8D407B1
S11323200068009002AB04223100DFF8300D00F0A9
S1132330D9FF002801D0002000E0012004B070BDC6
S11323402DE9F04182B0040000260020009000270F
S113235000208046E4B2002C10D1DFF8900700681A
S1132360BFB20C2101FB070000894FF6FE718842C1
S113237002D008367F1CF0E7300037E08848DFF8E9
S113238068170978182202FB01000068001D050087
S11323900422290000A801F0A3F80098DFF85017E0
S11323A0884201D0002021E02D1D0422290000A82C
S11323B001F096F80098DFF83817884202D101201E
S11323C080460BE0361D2D1D7548DFF81C17097873
S11323D0182202FB010040688542E6D35FFA88F8C0
S11323E0B8F1000F01D0300000E00020BDE8F68114
S11323F0F8B56B48DFF8F0160978182202FB0100E3
S1132400006808300500DFF8D006006840190600AF
S11324100422290000A801F063F80020070000202E
S11324200400DFF8C8060068A4B20C2101FB040014
S113243000894FF6FE71884213D00098DFF8AC167D
S11324400968A4B20C2202FB04110989090401F5EC
S11324507F41FF31884202D10120070001E0641C62
S1132460DFE7FFB2002F01D1012021E02D1D04225E
S1132470290000A801F034F80098DFF87016096804
S1132480A4B20C2202FB041189880904DFF85C263B
S11324901268A4B20C2303FB0422D28811FA82F13D
S11324A0884201D0012003E02D1DB542B0D30020A5
S11324B0F2BD000068F6FF1F70B582B004000D0085
S11324C0002028603648DFF820160978182202FB1D
S11324D001000068001D06000422310000A800F07D
S11324E0FFFF0098DFF80816884208D00020A88073
S11324F00020E8804FF6FF702881002032E0361D6E
S11325000422310000A800F0EBFF0098DFF8E0158A
S113251088421DD00098000CA4B2A0420DD1361DF3
S11325200422310000A800F0DBFF0098000CA88012
S11325300098E8802C81012014E008361848DFF860
S1132540A8150978182202FB010040688642D7D3F7
S1132550002028600020A8800020E8804FF6FF704B
S11325602881002076BD010000200200D2B2022A98
S113257013DA0B48D2B2182303FB0200006881422D
S113258009D30748D2B2182303FB020040688842EB
S113259001D3012002E0521CE8E70020704700004C
S11325A0303E0020F0B402000023DFF8400500684C
S11325B09BB20C2404FB030000894FF6FE74A04276
S11325C079D0DFF8280500689BB20C2404FB0300D3
S11325D04089012828D1DFF8140500689BB20C2536
S11325E005FB03000568002004002000C0B2DFF8EA
S11325F0FC6436689BB20C2707FB0366B68880B27E
S1132600B04256D2AA420CD1DFF8E00400689BB273
S11326100C2606FB030000890880E4B24C800020ED
S11326204AE02D1D641CE0E7DFF8C00400689BB29B
S11326300C2404FB0300006882423AD3DFF8AC04A4
S113264000689BB20C2404FB03000068DFF89C4480
S113265024689BB20C2505FB0344E488DFF88C5402
S11326602D689BB20C2606FB0355AD8805FB0400C0
S113267082421ED2DFF8740400689BB20C2404FB6F
S1132680030000890880DFF8640400689BB20C240E
S113269004FB03000068101ADFF8504424689BB25E
S11326A00C2505FB0344E488B0FBF4F048800020CB
S11326B002E05B1C79E70620F0BC7047134300205E
S11326C02DE9F04F89B00400208800F0A6FC804674
S11326D01FFA88F84FF6FF70804501D10920F5E113
S11326E0DFF8080400681FFA88F80C2101FB0800D1
S11326F04089012801D1002020712079002815D0BB
S1132700DFF8E80300681FFA88F80C2101FB0800D1
S1132710C088DFF8D81309681FFA88F80C2202FB76
S11327200811898848438146CA460AE0DFF8BC0399
S113273000681FFA88F80C2101FB0800C088814654
S1132740CA46DFF8A80300681FFA88F80C2101FBC9
S113275008004089012810D1DFF8900300681FFAAF
S113276088F80C2101FB08000068618850F82100FA
S1132770002802D100208146CA4604A8FEF70CFDB9
S11327800420B9FBF0F101FB10918DF805109DF8C0
S11327900500002805D09DF80500D0F104005AFA80
S11327A080FA1AF108000600049816F1080188421C
S11327B00AD24FF6FF70DFF8CC1A08800120DFF848
S11327C0C81A0870112081E1DFF8C00AC6490978E7
S11327D0182202FB010000698346C148834556D193
S11327E0DFF8A80AC0490978182202FB01004068F2
S11327F0001FB0EB0A00401C05002079002806D019
S113280055208DF8080055208DF80F0005E0AA200A
S11328108DF80800AA208DF80F00B44800681FFA4C
S113282088F80C2101FB08000089ADF809006088D4
S1132830ADF80B00DFF8540AAB490978182202FB03
S113284001004068DFF8441AA74A1278182303FBF2
S113285002110968401AB0EB0A00C01EADF80D0061
S1132860DFF8280AA0490978182202FB0100006851
S11328709949096808180C308346DFF8100A9A4908
S11328800978182202FB0100C0F814B059E002AA2A
S1132890594695480078FEF753FC06AADFF8EC0980
S11328A091490978182303FB010041698E48007897
S11328B0FEF746FCDFF8D4098B490978182202FB9D
S11328C001000068BDF81D1010FA81F0059005980C
S11328D0B0EB0A0005002079002806D055208DF8B9
S11328E0080055208DF80F0005E0AA208DF8080097
S11328F0AA208DF80F007D4800681FFA88F80C2183
S113290001FB08000089ADF809006088ADF80B00F0
S1132910DFF8780974490978182202FB010000687D
S1132920281AADF80D001BF1080BBAF1000F08D0FE
S1132930DFF858096C490978182202FB0100C0F835
S113294014B000208DF8040016F1080004998842A0
S11329500FD251462800FEF793FC002806D10498B4
S1132960B0EB0A000490B5EB0A05EDE701208DF801
S11329700400DFF818095C490978182202FB0100F9
S11329800068281ABDF80D1088420AD0DFF8FC0848
S113299055490978182202FB01000068281AADF88D
S11329A00D009DF80400002800F086804F48006860
S11329B01FFA88F80C2101FB0800408901280CD17A
S11329C04A4800681FFA88F80C2101FB08000068D7
S11329D0618850F82100070018E02079002809D008
S11329E0424800681FFA88F80C2101FB08000068BF
S11329F007000BE03D4800681FFA88F80C2101FB32
S1132A0008000068618809FB01000700002F0AD054
S1132A103848006800903B004A462900DFF83C062D
S1132A2000F060FC00E00020002843D1002F02D118
S1132A300020ADF80D002F480068009002AB08227A
S1132A405946DFF8180600F04DFC002830D1DFF8B5
S1132A503C0825490978182202FB0100C0F810B08F
S1132A60224800681FFA88F80C2101FB08004089FD
S1132A7001281BD1BDF80D00002817D01B480068A1
S1132A801FFA88F80C2101FB08000068618850F8DF
S1132A90210001F04AFA154800681FFA88F80C2151
S1132AA001FB08000068618840F8215000200DE017
S1132AB00D200BE00C2009E04FF6FF70DFF8C4177F
S1132AC008800120DFF8C0170870112009B0BDE8A4
S1132AD0F08F00005042002054420020E4410020C6
S1132AE00000FF3F4C42002011430020B0070020AB
S1132AF03C54423E344200202DE9F04F85B004009E
S1132B00DFF88807DFF888170978182202FB01002C
S1132B1000698346DFF87C07834501D10A2079E206
S1132B2020884FF6FF71884201D1092072E2208883
S1132B3000F073FA82461FFA8AFA4FF6FF70824554
S1132B4001D1092066E200208DF80C005FF0FF300F
S1132B5002900B2081462079002800F06281DFF882
S1132B60380700681FFA8AFA0C2101FB0A008088E2
S1132B70060000200700DFF81407DFF814170978AF
S1132B80182202FB01000068DFF810170968081812
S1132B900C30834566D300AA5946DFF8F406007862
S1132BA0FEF7CEFA9DF800009DF80710884202D087
S1132BB0BBF1080BDFE7BDF80100218888424ED144
S1132BC09DF80000AA2815D101208DF80C00BDF84D
S1132BD00300B6B2B04202D2BDF803000600BDF84D
S1132BE00300BFB2874202D2BDF803000700BBF165
S1132BF0080BC0E79DF80000552830D1DFF898068F
S1132C0000681FFA8AFA0C2101FB0A008088DFF8A9
S1132C10881609681FFA8AFA0C2202FB0A11C9886D
S1132C2001FB00F2DFF86406DFF864160978182364
S1132C3003FB01000068BDF8051010FA81F1DFF80C
S1132C40580600681FFA8AFA0C2303FB0A0000687E
S1132C5000F046FCCDF808B00020814602E0BBF14C
S1132C60080B88E79DF80C00002800F0BF8002984C
S1132C7010F1010F0FD1DFF81406DFF814160978EC
S1132C80182202FB01000068DFF810160968081812
S1132C900C30050002E0029808300500B046BFB2CF
S1132CA01FFA88F84745C0F0A180DFF8E005DFF897
S1132CB0E0150978182202FB010000698346AB4540
S1132CC0C0F0918000AA5946DFF8C4050078FEF7E9
S1132CD037FA9DF800009DF80710884202D0BBF136
S1132CE0080BECE79DF80000552802D1BBF1080B56
S1132CF0E5E7BDF801002188884271D1BDF80300E1
S1132D001FFA88F880456BD1DFF88C0500681FFA3C
S1132D108AFA0C2101FB0A00408901282CD1BDF854
S1132D20050000280ED1DFF8700500681FFA8AFA42
S1132D300C2101FB0A0000681FFA88F8002140F802
S1132D4028104AE0DFF8500500681FFA8AFA0C21BF
S1132D5001FB0A0000681FFA88F8DFF83015DFF875
S1132D6030251278182303FB02110968BDF80520E9
S1132D70511840F8281030E0DFF81C0500681FFAED
S1132D808AFA0C2101FB0A00C288DFF80005DFF88B
S1132D9000150978182303FB01000068BDF805102D
S1132DA010FA81F1DFF8F00400681FFA8AFA0C23A4
S1132DB003FB0A000068BDF80330DFF8DCC4DCF86C
S1132DC000C01FFA8AFA5FF00C0E0EFB0ACCBCF8A6
S1132DD006C00CFB030000F083FB0020814602E0E8
S1132DE0BBF1080B6BE718F1010858E75FFA89F9A2
S1132DF0B9F1000F12D10020DFF8A4141FFA8AFAE7
S1132E00062202FB0A1108704FF48070DFF8901458
S1132E101FFA8AFA062202FB0A1188804846C0B2C9
S1132E20F8E0DFF86804DFF868140978182202FB78
S1132E3001000068DFF86414096808180C30834541
S1132E40C0F0CE8000AA5946DFF844040078FEF7AB
S1132E5077F99DF800009DF80710884202D0BBF175
S1132E60080BDEE7BDF801002188884240F0B580F8
S1132E709DF80000AA286AD1DFF81C0400681FFA34
S1132E808AFA0C2101FB0A00408901282BD1BDF8E4
S1132E90050000280DD1DFF8000400681FFA8AFA43
S1132EA00C2101FB0A0000686188002240F82120FF
S1132EB04AE0DFF8E40300681FFA8AFA0C2101FBF8
S1132EC00A0000686188DFF8C423DFF8C4331B7884
S1132ED05FF0180C0CFB03221268BDF805309A1839
S1132EE040F8212030E0DFF8B00300681FFA8AFAC6
S1132EF00C2101FB0A00C288DFF89003DFF890136D
S1132F000978182303FB01000068BDF8051010FAC6
S1132F1081F1DFF8840300681FFA8AFA0C2303FBAB
S1132F200A000068BDF80330DFF86CC3DCF800C0A9
S1132F301FFA8AFA5FF00C0E0EFB0ACCBCF806C02E
S1132F400CFB030000F0CCFA0020814648E09DF819
S1132F500000552841D1DFF8400300681FFA8AFABF
S1132F600C2101FB0A00C288DFF82003DFF82013DC
S1132F700978182303FB01000068BDF8051010FA56
S1132F8081F0BDF80310DFF810331B681FFA8AFACA
S1132F905FF00C0C0CFB0A33DB8803FB0101DFF848
S1132FA0F80200681FFA8AFA0C2303FB0A0000687F
S1132FB0BDF80330DFF8E0C2DCF800C01FFA8AFA7B
S1132FC05FF00C0E0EFB0ACCBCF806C00CFB030031
S1132FD000F086FA0020814602E0BBF1080B20E7EE
S1132FE05FFA89F9B9F1000F12D10020DFF8B012AD
S1132FF01FFA8AFA062202FB0A1108704FF4807045
S1133000DFF89C121FFA8AFA062202FB0A11888052
S11330104846C0B205B0BDE8F08F01000022DFF8D9
S11330207802006892B20C2303FB020000894FF679
S1133030FE7398420FD0DFF86002006892B20C234E
S113304003FB0200008989B2884202D1100080B2D9
S113305003E0521CE3E74FF6FF707047840500203D
S11330607CB50400DFF83C0290F8C200002812D1BD
S113307000A82100062201F0F5F9DDE900010A00AB
S11330800100DFF82002FDF728FE002801D000200F
S11330906EE017206CE000200600DFF8080290F8CC
S11330A0C0000500DFF8FC0190F8C100EDB28542D4
S11330B047D02088DFF8EC11EDB2062202FB05119F
S11330C00988884239D1DFF8DC01EDB2062101FB21
S11330D005000079012802D10120060031E02079A1
S11330E001280AD10120DFF8BC11EDB2062202FB4F
S11330F0051108710120060023E06088DFF8A4119F
S1133100EDB2062202FB05114988884202D1012052
S1133110060016E000A82100062201F0A3F9DDE96B
S113312000010A000100DFF87C01FDF7D6FD00284C
S113313001D000201CE017201AE0681C10F01F05C5
S1133140B0E7F6B2002E12D100A82100062201F049
S113315089F9DDE900010A000100DFF84801FDF703
S1133160BCFD002801D0002002E0172000E0002070
S113317076BD01214C4A1170704738B504000D002A
S113318000A801F0C1F9E4B2EDB2AC4202D32000D0
S1133190C0B20BE0EDB2E4B2281B401C009909193F
S11331A0009AB2FBF0F200FB1210C0B232BD10B5AF
S11331B0FDF7A4FB0400E4B2002C02D02000C0B24E
S11331C00AE03A4800F086FF002804D0002038497D
S11331D008701D2000E0002010BD38B504005FF029
S11331E0FF31324800F089FF2000FDF7CBFC0500D9
S11331F02E4800F0DAFF2800C0B232BD38B5040012
S11332005FF0FF31294800F078FF2000FDF714FD3E
S11332100500264800F0C9FF2800C0B232BD80B5C1
S11332205FF0FF31214800F068FFFDF7ECF91F481B
S113323000F0BBFF01BD10B55FF0FF311B4800F08B
S11332405CFFFDF774F90400184800F0AEFF20009D
S1133250C0B210BDF8B504000D0016005FF0FF31D8
S1133260124800F04AFF3200D2B22900C9B220004D
S1133270FDF7CEF807000D4800F097FF3800C0B204
S1133280F2BD0000F042002012430020303E002036
S1133290114300200000FF3FB007002054420020EB
S11332A060F1FF1F9CF0FF1F16430020443F0020E5
S11332B01443002080B507480068002809D1064857
S11332C001F03AF9054A4021054801F03CF9014969
S11332D0086001BD3442002084050020033600004C
S11332E098F9FF1F2DE9F04F83B004000D009346B9
S11332F01E000C9F15F003081FFA88F8B8F1000FA0
S11333003DD0D8F1040A1FFA8AFAD34501D25846AF
S1133310824604221FFA88F8B5EB080101A800F0E0
S1133320DFF81FFA8AFA5246310001A81FFA88F81A
S113333018EB000000F0D4F8012001F056F80097D3
S113334001AB04221FFA88F8B5EB0801200001F054
S113335014F98146012001F053F8B9F1000F01D0AE
S1133360484656E01FFA88F8D8F1040045191FFAB8
S11333708AFA1AEB06061FFA8AFABBEB0A0B4FF617
S1133380FC7010EA0B0080461FFA88F8B8F1000FB1
S11333901ED0012001F029F8009733001FFA88F8A5
S11333A042462900200001F0E8F88146012001F09E
S11333B027F8B9F1000F01D048462AE015FA88F53C
S11333C01FFA88F818EB06061FFA88F8BBEB080BFF
S11333D0BBF1000F1CD00422290001A800F080F8E2
S11333E05A46310001A800F07BF8012000F0FDFFEF
S11333F0009701AB04222900200001F0BEF88146A9
S1133400012000F0FDFFB9F1000F01D0484600E0B3
S11334100020BDE8FE8F2DE9F04104000D001600E8
S11334201F00012000F0E1FF3B00320029002000D2
S113343001F002F98046012000F0E2FF4046BDE8B9
S1133440F0812DE9F04704008A4615001E00089F0C
S11334505FF0000860688146CA4507D3A06810EB96
S11334600900824502D2BAEB090A01E02020804615
S1133470B8F1000F31D120688146312089F800006D
S11334802068C01D8146012089F800002068801D45
S113349081465FEA1A4089F800002068401D814691
S11334A05FEA1A2089F800002068001D814689F827
S11334B000A020680B308146ADB2280A89F80000CC
S11334C020680A30814689F8005020680930814616
S11334D089F800602000B84780464046BDE8F08780
S11334E0002A05D00B780370401C491C521EF7E7D4
S11334F070472DE9F0418C4686460B0004000D0010
S11335000600042A30D388465FEAC8780CD58C4676
S113351086469CF800808EF800801CF1010C1EF198
S1133520010E61467046521E88465FEA88780AD5C5
S11335300B000400B3F80080A4F800809B1CA41CBA
S113354019002000921E0D0006005FEA920847460B
S1133550002F07D0D5F80080C6F800802D1D361D39
S11335607F1EF5E7290030005FEA827809D50B0059
S11335700400B3F80080A4F800809B1CA41C19006C
S113358020005FEAC27803D591F8008080F80080BB
S1133590BDE8F081002A09D01018401E002A05D089
S11335A00B780370401E491C521EF7E7704710B495
S11335B00300002A09D018780C78A04201D000201A
S11335C004E0491C5B1C521EF3E7012010BC704749
S11335D0002A02D0521E1154FAE7704788420FD0D5
S11335E0884207D2002A0BD00B780370401C491C78
S11335F0521EF7E7002A03D0521E535C1354F9E716
S1133600704770B5040020680600307850F08000E0
S11336103070206806003078000607D4206A5FF016
S1133620FF318842F7D0206A8047F4E7206806001B
S1133630307810F031000500280070BD00214201EF
S1133640DFF868379950704701214201DFF85C3791
S11336509950704770B504000D001600042D08D36E
S11336607722DFF8B016DFF8B40701F033F8C0466C
S1133670C04614EB05104001DFF8A417F6B20E5053
S113368070BD38B504000D00042D08D39122DFF875
S11336908416DFF8880701F01DF8C046C04614EB15
S11336A005104001DFF87C1701220A5031BD70B5C6
S11336B004000D001600042D08D3C922DFF85416A7
S11336C0DFF8580701F006F8C046C04614EB0510B1
S11336D010F58070066070BD38B504000D00042D2F
S11336E008D3E622DFF82C16DFF8300700F0F2FFEB
S11336F0C046C04614EB051010F58270006832BD58
S113370010B5040001F0CEF810BDDFF81C17C0B2EC
S1133710405C10F0E0007047DFF80C27C0B2825C18
S113372012F01F020A43DFF80037C0B2C2547047D8
S1133730DFF8F416C0B2405C10F01F007047DFF8E9
S1133740E826C0B2825C12F0E0020A43DFF8D83601
S1133750C0B2C254704700B5DFF8D0160968A1FBA7
S113376000014FF47A72002301F082F900BD10B514
S113377086B00FF2D50001F007FB01F066FBDFF81D
S1133780AC1608604FF6FF740820FFF7E4FF201A18
S1133790DFF89C1608800420FFF7DDFFDFF894169D
S11337A008600021DFF8900600F049FD0400E4B24F
S11337B0002C06D000230022DFF88016002001F040
S11337C09FFB04A803900020029000200190022097
S11337D00090DFF86C364FF48062DFF868160FF261
S11337E0152000F0D5FB0400E4B2002C06D0002321
S11337F00022DFF84816002001F082FB06B010BD5D
S113380010B500200400132C0ED2DFF81C06205C37
S1133810002807D180212000C0B2FFF77DFF2000DF
S1133820C0B202E0641CEEE7FF2010BD10B5040036
S11338302000C0B200F08EF80020DFF8EC15E4B2EE
S1133840605410BD0000000080B501F01FFB5FF460
S11338508031DFF8E40500F058FD01BD10B5040027
S11338602000C0B2FFF751FF202801D1012000E061
S11338700020C0B210BD2DE9F84304000D0016006D
S11338801F00DDF82080E4B2132C05DADFF8980578
S1133890E4B2205C002800D13EE02000C0B200F079
S11338A059F83000FFF757FF814601F0DFFADFF8DF
S11338B09C15E4B2142202FB04118860B9F1000FD4
S11338C001D1012081462900C9B22000C0B2FFF70E
S11338D036FFDFF87805E4B2142101FB0400C0F8D8
S11338E00090DFF86805E4B2142101FB0400C0F87D
S11338F00490DFF85805E4B2142101FB0400C7600A
S1133900DFF84805E4B2142101FB0400C0F810807C
S11339102000C0B200F0C0F9BDE8F183F8B504009E
S11339200D0016001F00009733002A00022120001A
S1133930C0B2FFF7A0FFF1BDF8B504000D001600FA
S11339401F00009733002A0001212000C0B2FFF7B6
S113395092FFF1BD38B50400E4B2132C05DADFF8A8
S1133960C804E4B2205C002800D140E0012000F04B
S11339703CFD2000C0B2FFF7C8FE0500EDB2202DCB
S113398002D0EDB2402D2FD180212000C0B2FFF72C
S1133990C3FE2000C0B2FFF7CBFEC0060AD5DFF895
S11339A0B0040078401EDFF8A8140870DFF8A00403
S11339B0007809E0DFF890040078401EDFF88814EE
S11339C00870DFF884040078DFF87C0400780028AD
S11339D00AD1DFF87C040078002805D15FF4803137
S11339E0DFF8540400F091FC012000F009FD31BD22
S11339F0000000002DE9F14F82B001A800905FF0B3
S1133A00FF3300227FF07F41DFF82C0400F02BFC11
S1133A10012000F0EAFC01F029FA0500012000F081
S1133A20EFFCDFF830040088281A0600DFF82404CD
S1133A300580DFF8FC0300880400002082465FFA5A
S1133A408AFABAF1130F80F0D8805046C0B2FFF75B
S1133A506FFE8346012000F0C8FC5046C0B2FFF759
S1133A6054FE81465FFA89F9B9F1400F1CD1202137
S1133A705046C0B2FFF750FE012000F0C1FCDFF851
S1133A80CC035FFA8AFA142101FB0A004068A4B24D
S1133A90A04208D2DFF8B4035FFA8AFA142101FBCA
S1133AA00A0040680400A5E0012000F0A9FC5FFAC8
S1133AB089F9B9F1200F40F09D80B6B2DFF88C038C
S1133AC05FFA8AFA142101FB0A004068864236D262
S1133AD0012000F08AFCDFF874035FFA8AFA1421EB
S1133AE001FB0A004068B6B2801BDFF860135FFA7E
S1133AF08AFA142202FB0A11486001F0B7F9DFF8D0
S1133B004C135FFA8AFA142202FB0A11886001201E
S1133B1000F076FCDFF834035FFA8AFA142101FB23
S1133B200A004068A4B2A04208D2DFF820035FFA7A
S1133B308AFA142101FB0A00406804005AE00D21AE
S1133B401BEA010F0DD00020DFF800135FFA8AFA98
S1133B50142202FB0A1148605046C0B2FFF7FAFE75
S1133B6033E0012000F041FCDFF8E0025FFA8AFA5A
S1133B70142101FB0A000068DFF8D0125FFA8AFA08
S1133B80142202FB0A11486001F070F9DFF8BC123C
S1133B905FFA8AFA142202FB0A118860DFF8AC0289
S1133BA05FFA8AFA142101FB0A004068A4B2A04219
S1133BB008D2DFF898025FFA8AFA142101FB0A009E
S1133BC040680400012000F01BFCDFF880025FFA6B
S1133BD08AFA142101FB0A00C06880464046002886
S1133BE008D0DFF868025FFA8AFA142101FB0A00A0
S1133BF00069C0471AF1010A21E7012000F0F5FB32
S1133C0001F034F907007F1BBFB2A4B2A74205D369
S1133C10DFF820020068C01904000CE0A4B2BFB2AF
S1133C20E01BDFF810120968884204D2DFF80402AE
S1133C300068C01904002C19DFF80C020078002871
S1133C4004D1DFF80C02007800280FD0A4B22000C1
S1133C5001F012F9DFF800020078002811D101F018
S1133C60E6F80120DFF8F01108700AE0DFF8E80157
S1133C700078002805D001F0E1F80020DFF8D81121
S1133C800870012000F0BCFBDFF8D00100780028A8
S1133C907FF4B3AEBDE8F78F10B50400012000F047
S1133CA0A4FB2000C0B2FFF730FD802825D12000FE
S1133CB0C0B2FFF73DFDC0060AD5DFF894010078D5
S1133CC0401CDFF88C110870DFF88401007809E0EB
S1133CD0DFF874010078401CDFF86C110870DFF81D
S1133CE06801007840212000C0B2FFF715FD5FF4A1
S1133CF08031DFF8440100F008FB012000F080FB74
S1133D0010BD80B500F008F801BD80B500F050F892
S1133D1004BD0000D0B0020038B5524804685248CF
S1133D200078002840D1012000F05FFB01204E49BB
S1133D3008700021002001F033F92000FFF784FC13
S1133D400020FFF7DDFC05004548B5FBF0F0421EFE
S1133D5000212000FFF7ABFC5FF0FF3201212000BF
S1133D60FFF7A5FC5FF0FF3202212000FFF79FFC64
S1133D70012201212000FFF76DFC01220221200015
S1133D80FFF768FC00212000FFF77BFC01212000E5
S1133D90FFF777FC02212000FFF773FC2000FFF7F8
S1133DA04DFC012000F02CFB31BD0000040000425A
S1133DB02DE9F84F2B480668012000F016FB01217D
S1133DC03000FFF789FC009002213000FFF784FCEB
S1133DD0804601213000FFF77FFC070002213000FC
S1133DE0FFF77AFC8246012000F00AFB0098B842F3
S1133DF004D35FF0000944464D4603E05FF0000B36
S1133E0054465D46250000243800002124184D4105
S1133E10E443ED4320002900BDE8F48FA4BF020071
S1133E200821004200210042E8400020BC4200205A
S1133E3002430020B8420020003F00206F370000FA
S1133E405827002004CE020022430020E4E8FF1F8C
S1133E50234300200043002024430020CA1D010006
S1133E6040420F006CD0020025430020F8B5434CBB
S1133E70434D444E00204449088060880700FFB247
S1133E803900280001F0C0F8FFB2002F0FD0310034
S1133E90280001F0C3F8F5603B480088401C3A490B
S1133EA008802088801910F110067F1EECE7208816
S1133EB0E881A088A881A889002801D1002002E017
S1133EC01035241DD9E7F2BD70B504002C4D012036
S1133ED000F08BFA002C1DD0E889A04215D32800ED
S1133EE001F0EAF80600002E0AD0103626480088B1
S1133EF0401E25490880012000F082FA300013E0BA
S1133F00A889A04206D3A8890400A889002801D062
S1133F101035DFE7002300221C49002000F0F0FFE9
S1133F20012000F06DFA002070BD70B50400002C73
S1133F3001D1032020E0012000F057FA54F8045C7A
S1133F400F4EB5420ED110480088401C0E4908801F
S1133F50B4F11001280001F061F8012000F050FADA
S1133F60002009E0B089002804D1012000F048FABB
S1133F70032001E01036E4E770BD0000EC050020EA
S1133F80D8F7FF1F0080FF1FEE420020C93E00004B
S1133F902DE9F04788B005008A4616001F00109CE2
S1133FA0DDF84480DDF84C9000A8202101F00EF9E2
S1133FB00095B6B20196B6B2002E01D1002000E001
S1133FC038000290A4B2E01D0390CDF8188000A838
S1133FD001F069FCC9F80000D9F80000002801D0FC
S1133FE0002000E0012008B0BDE8F08780B5002083
S1133FF001F08BFA01F0E8F902BD10B582B00400BB
S113400000A9200001F0E7F90098C01F80B216BD96
S113401038B504000D0000AAADB2E91D200001F07E
S1134020EAF9002801D1002000E0012032BD10B5DA
S1134030040014F1010F01D100200DE001F066FD30
S113404000FB04F004004FF47A70B4FBF0F4002C8D
S113405001D101200400200010BD38B504000D007A
S1134060EDB22900200001F00CFE002801D100204F
S113407000E00120C0B232BD70B504000D00002D77
S113408009D1200001F066FE002801D0002000E0E4
S11340900220C0B211E02800FFF7C9FF0500290083
S11340A0200001F0F7FE0600002E01D1002004E0FC
S11340B0372E01D1022000E0012070BD10B50400AC
S11340C0200001F05BFE002801D1002000E0012067
S11340D0C0B210BD10B50400002C01D101200BE0CA
S11340E00020E0610121200001F0CBFD002801D176
S11340F0002000E00120C0B210BD2DE9F041040011
S11341000D00012701F0FAF98046B8F1000F09D13A
S113411040F22D12DFF82813DFF8280300F0DAFA52
S1134120C046C046002C01D101203CE0E069404576
S113413001D1012037E0002D0AD101F01BFF20003E
S113414001F008FE002801D000261DE037261BE000
S113415015F1010F06D101F00DFF200001F046FE1C
S1134160060011E02800FFF762FF050001F002FFDE
S1134170002D05D02900200001F08CFE060003E08C
S1134180200001F033FE0600002E04D1C4F81C8088
S11341900020070003E0372E01D10220070001F0C0
S11341A0F9FE3800C0B2BDE8F08170B50400012505
S11341B001F0A4F90600002E07D14FF4B772A0490C
S11341C0A04800F087FAC046C046002C01D1012067
S11341D015E0E069B04201D0012010E001F0CAFE10
S11341E00020E061200001F0C9FD002802D1002078
S11341F0050000E0E66101F0CDFE2800C0B270BD0C
S113420038B50400002C07D14FF4CD728C498E4888
S113421000F060FAC046C04601F0ACFE200001F098
S113422092FD002804D10020E0610020050001E097
S11342300120050001F0AEFE2800C0B232BD70B509
S113424004000D00EDB2002D01D1012100E0002198
S1134250200001F057FF0600002E01D1002000E0ED
S11342600120C0B270BD2DE9F84304000D00160012
S11342701F00DDF820800020C8F80000002F27D19F
S113428001F078FEF6B2002E03D0A0692840A842BF
S113429005D0F6B2002E17D1A069284214D001230C
S11342A03200D2B22900200002F020F8814601F049
S11342B071FEB9F1000F05D101F02DFFC8F800001F
S11342C0002020E001201EE001F064FE02201AE03C
S11342D03800FFF7ACFE07003B003200D2B22900E1
S11342E0200002F003F88146B9F1000F05D101F076
S11342F012FFC8F80000002005E0B9F5447F01D1A1
S1134300022000E00120BDE8F28338B504000D006E
S11343102900200001F007FF002801D1002000E05F
S11343200120C0B232BDF8B504000D001600B6B2CB
S1134330B000C01C8208ADB22900200002F062F86F
S11343400700002F01D1200000E00020F2BD38B5A5
S113435004000D0000222900200002F011F90028B9
S113436001D1002000E00120C0B232BDF8B5040044
S11343700D001600002E09D1002000900023002219
S11343802900200002F049F807000CE03000FFF794
S11343904EFE060000200090330004222900200075
S11343A002F03BF80700002F01D100200AE040F2A0
S11343B08370874203D040F28270874201D1022089
S11343C000E00120F2BD10B50400200002F045FB1E
S11343D010BD10B50400200002F021FA002801D11C
S11343E0002000E00120C0B210BD10B50400E4B20A
S11343F0012C02D101F0BEFD01E001F05DF810BD19
S113440010B50400E4B2012C02D101F0C3FD01E0B7
S113441001F062F810BD38B504000D000022290037
S1134420200001F0D3FD32BD80B5084802F0D4FB72
S1134430002801D1002000E00120C0B202BD00002C
S113444018BC020028CE0200C8CB020048BB020000
S113445080B502F09BFC002801D1002000E001207F
S1134460C0B202BD62B38B0708D0521E11F8013BE3
S113447000F8013B00F024808B07F6D1830740F05D
S1134480208000BF103A07D330B4B1E83810103A96
S1134490A0E83810F9D230BC530724BFB1E80810A3
S11344A0A0E8081044BF51F8043B40F8043BD2078D
S11344B024BF31F8022B20F8022B44BF0B78037081
S11344C07047083A07D3B1E80810083A40F8043BAB
S11344D040F804CBF7D25307E4E750F8041B61B16A
S11344E050F8042BD30744BFA9F101039A18002301
S11344F0091F42F8043BFAD1EFE770470C48006803
S11345000C4908600020704710B50400002C0DD041
S11345100848006841F2BB71484300F20350054962
S11345200860042203492000FEF7DAFF10BD0000F2
S113453060800440704200200100002008610020D7
S1134540886100207047F0B4B2F1010C63461E008C
S113455007005FEA510C63465FF0000C6546ADB29C
S11345609D4207D2B6F800C06446B61C3C80BF1C0E
S11345706D1CF4E7401CF0BC70472DE9F84F0400B3
S11345800D0016001F00DDF828805FF0000916F00A
S1134590030F03D04FF4005081464AE0606883461D
S11345A05D4507D3A06810EB0B00854202D2B5EB42
S11345B00B0501E020208146002E3AD0B9F1000F0E
S11345C037D12068834631208BF800002068C01D55
S11345D0834606208BF800002068801D8346280C43
S11345E08BF800002068401D8346280A8BF80000E1
S11345F02068001D83468BF80050002082465FFA35
S11346008AFABAF1040F0DDA206850FA8AF00830F9
S113461083465FFA8AFA1AF807008BF800001AF149
S1134620010AECE72000C04781462D1D361F3F1DBF
S1134630C2E74846BDE8F28F2DE9F04704008A46F8
S113464015001E00002760688146CA450AD3A06889
S113465010EB0900824505D2BAEB090A4FF4006059
S1134660804603E02020070000200500B8F1010087
S1134670054202D04FF400500700002D27D0002F30
S113468025D120688146312089F800002068C01DAA
S11346908146092089F800002068801D81465FEA70
S11346A01A4089F800002068401D81465FEA1A20FC
S11346B089F800002068001D814689F800A02000C8
S11346C0B0470700B5EB080518EB0A0AD5E7380030
S11346D0BDE8F08700B583B00091019202906A466C
S11346E004491820ABBE002801D102F0CDFB03B071
S11346F000BD00BF1010020010B4C9B24A0910EB8B
S11347008202C9B211F01F039B0013EB4212DFF8BF
S1134710203301249C5010BC7047C9B24A0910EBE5
S11347208200C9B211F01F01890011EB4010DFF8BB
S113473000130858002801D0012000E00020C0B276
S113474070470068800C10F0030070474001DFF8E8
S1134750E4120858C0B2704741F244010858000FEF
S1134760C0B2704741F244010858000E10F00F0027
S1134770704741F244010858000C10F00F007047D4
S11347804FF47A70704780B5DFF8AC0202F0AFFCEA
S113479002BD80B5DFF8A402FFF7D8FF02BD000018
S11347A070B504000D000026E4B2200000281AD0E1
S11347B0012818D002281AD003281CD005281ED09E
S11347C0062820D0072822D00B2824D00C2826D055
S11347D00D2828D00E282CD0102830D0112834D001
S11347E0122838D03BE000F041F828603BE000F0AC
S11347F04BF8286037E000F055F8286033E000F00B
S11348005FF828602FE000F077F828602BE000F0D4
S11348109AF8286027E000F061F8286023E0FFF7A9
S1134820B2FF28601FE0DFF8100202F00BFC2860E2
S113483019E0DFF8040202F027FC286013E0DFF837
S1134840F80102F066FC28600DE0DFF8EC0102F0EC
S113485032FC286007E0FFF793FF286003E00020A4
S11348602860022006003000C0B270BD10B5DFF829
S1134870C80102F04EFC0400DFF8C001FFF76CFF32
S1134880401CB4FBF0F010BD10B5DFF8AC0102F031
S113489040FC0400DFF8A401FFF75EFF401CB4FBFA
S11348A0F0F010BD10B5DFF8900102F032FC040006
S11348B0DFF88801FFF756FF401CB4FBF0F010BD91
S11348C010B5DFF8740102F024FC0400DFF86C0179
S11348D0FFF74FFF401CB4FBF0F010BD80B5FFF7AD
S11348E058FF002804D1DFF860010068C00B02E023
S11348F0DFF85401006802BD38B5DFF84001FFF766
S113490020FF0400E4B22000002804D002280DD0C7
S1134910032810D013E0DFF834010068B0F5004F2D
S113492002D14FF4004500E000250AE0DFF8180149
S11349300068050005E0FFF723FF050001E0002003
S11349400500280032BD80B5DFF8F400006802F0ED
S113495021FC002803D0DFF8F400006800E0002008
S113496002BD10B50400052C09D34FF42372DFF8FF
S1134970D410DFF8DC00FFF7ADFEC046C046DFF818
S1134980D400215CDFF8B400FFF7B6FE10BD10B50B
S11349900400002C09D04FF42F72DFF8A810DFF8C0
S11349A0B800FFF797FEC046C046DFF8B000215CB0
S11349B0DFF88800FFF7A0FE10BD10B50400002C3E
S11349C009D04FF43672DFF87C10DFF88C00FFF763
S11349D081FEC046C046DFF88400215CDFF85C003D
S11349E0FFF79BFE10BD10B50400032C07D34FF452
S11349F0477214491A48FFF76DFEC046C04619486D
S1134A00215C0E48FFF778FE10BD10B50400022C9F
S1134A1007D340F24D320B491348FFF75BFEC04603
S1134A20C0461248215C0548FFF766FE10BD000031
S1134A30000502429000024200400640007004401B
S1134A4078D00200E4B70200C8420020C44200202B
S1134A50A0B80200B4CF0200A0BA02006B2D01007E
S1134A60D8BA020060D0020010BB0200B27100008C
S1134A701B4213D1094236D12AB18446B0FBF2F06D
S1134A8002FB10C2704702F093BBFCD30022002348
S1134A9070470B000200002100207047904271EB28
S1134AA0030CF6D370B5B1FA81F4B3FA83F52C1B79
S1134AB0A340C4F1200532FA05F63343A2405FF067
S1134AC00046E64002E05B085FEA3202841A71EBBA
S1134AD0030524BF204629467641F4D302000B0087
S1134AE03000002170BD012ACFD970B5140C20D03C
S1134AF0B1FA81F4B2FA82F5C4F120046419B4F174
S1134B002006D6D3B2405FF00044F440002502E012
S1134B1052085FEA3303C61A71EB020E24BF304613
S1134B20714664416D41F3D302000B00200029005B
S1134B3070BD0C46B1FBF2F102FB11452D0445EAB0
S1134B401045B5FBF2F402FB145580B240EA05456A
S1134B50B5FBF2F002FB105240EA044070BD03685A
S1134B601AB95A1E026008467047197811B94FF0F5
S1134B70FF307047591C016018787047012110F00C
S1134B801F029140DFF8302340B2430942F823105A
S1134B907047012110F01F029140DFF8202340B23A
S1134BA0430942F82310704710B440B2002809D5D5
S1134BB00A01DFF80C3340B210F00F04E31803F8D5
S1134BC0042C04E00A01DFF8FC3240B2C25410BCE9
S1134BD07047026832F01802C9B2CB0013F0180310
S1134BE01A43026070470268D208D200C9B211F0B9
S1134BF007031A4302607047006810F0070070470B
S1134C0001214201B04B995070474001AE49085808
S1134C10002801D0012000E00020C0B2704700212C
S1134C204201AA4B995070474268120C120489B28F
S1134C300A4342607047406880B270478268120C31
S1134C40120489B20A4382607047C26C120C1204C7
S1134C5089B20A43C264704770B504000D0016009F
S1134C60EDB2082D07DB40F2931299499948FFF7FA
S1134C7031FDC046C046EDB214EBC5004001964973
S1134C80F6B216F001020A50EDB214EBC500400171
S1134C909249F6B2720812F001020A5070BD38B59A
S1134CA004000D00EDB2082D07DB40F2E51288493F
S1134CB08848FFF70FFDC046C046EDB214EBC500AF
S1134CC04001874901220A5031BD38B504000D0066
S1134CD0EDB2082D07DB4FF4FF727D497D48FFF7E5
S1134CE0F9FCC046C046EDB214EBC50040017D4955
S1134CF00858002801D0012000E00020C0B232BDD5
S1134D0070B504000D001600EDB2082D07DB4FF45A
S1134D1006726F496F48FFF7DDFCC046C046B6B265
S1134D20EDB214EBC500066170BD10B4C9B2002920
S1134D3004D0012243016C4CE25003E00122430100
S1134D406A4CE25010BC704738B504000D00600195
S1134D5066490858002807D140F2CA225C496448D1
S1134D60FFF7B8FCC046C046EDB2600161490D5082
S1134D7031BDD0F8842052095201C9B211F01F0389
S1134D801A43C0F88420704770B504005A48066876
S1134D900020FFF728FE300002F00CFA0121300059
S1134DA0FFF7D2FF07213000FFF71DFF002130007D
S1134DB0FFF70FFF00213000FFF7DBFF0021300079
S1134DC0FFF7B3FF00213000FFF73FFF0021300061
S1134DD0FFF72AFF4FF6FF713000FFF72FFF012284
S1134DE000213000FFF738FF012200213000FFF7D7
S1134DF087FF424890F9000005003000FFF700FFEC
S1134E0000213000FFF74BFF21006DB22800FFF7AF
S1134E1002FB0821280040B2FFF7C6FE280040B27A
S1134E20FFF7B7FE280040B2FFF7A8FE70BD80B5BB
S1134E30012131480068FFF7CCFE01BD80B5002197
S1134E402D480068FFF7C5FE01BD10B582B000A96A
S1134E500320FFF7A5FC28480068FFF7CDFE0400F7
S1134E6000980121A140B0FBF1F016BD80B52248A5
S1134E700068FFF7E0FE02BD10B50400220092B204
S1134E8000211D480068FFF73BFF10BD10B51A480C
S1134E90046800212000FFF718FF002803D0002039
S1134EA06101104A50502000FFF7AFFE002802D0E5
S1134EB02000FFF7B4FE10BD00E100E080E200E056
S1134EC018ED00E000E400E0180000421C0000427D
S1134ED070B10200CCBF0200900100429401004274
S1134EE0980100429C010042980E0042880A004248
S1134EF0ECC30200800A004258CE020070D00200C7
S1134F00F8B504000D0016001F0004B400B504BC7D
S1134F10019204BC0B4804600A4845600948866055
S1134F200848C7600098074908610020054948619E
S1134F300120FFF75AFA0FBE00BF00BF00BF00BF39
S1134F40FDE700BFA03F002000214201DFF89C30B4
S1134F509950704791F00102D2B2430113F1844396
S1134F601A60704710B4C9B24A0910EB8202C9B280
S1134F7011F01F039B0013EB4212DFF8743001247D
S1134F809C5010BC704710B50400FFF78BFC10BD9B
S1134F9010B50400B721DFF85C00FFF7E3FF10BD94
S1134FA070B504000D00002C08D03D22DFF8481035
S1134FB0DFF84800FFF78EFBC046C046DFF840002C
S1134FC050F824602000FFF7E3FF3000FFF7BCFF38
S1134FD02900C9B23000FFF7BDFF2000FFF7D3FF5F
S1134FE00021DFF82020C2E9000170BD0400004266
S1134FF0000502420070044080BC020034C202007A
S11350006CD002001842002000220260002242609C
S113501041810022028170478068704738B50400DE
S11350200D000120FFF7E1F96089002808D06089AC
S11350302189884204D10120FFF7E2F9012013E01D
S11350402089002801D1256001E06068056060685E
S1135050686000202860AC6065602089401C208165
S11350600120FFF7CDF9002032BD38B504000D0052
S11350700120FFF7BAF96089002808D060892189E6
S1135080884204D10120FFF7BBF9012013E02089F5
S1135090002801D1656001E020684560206828602F
S11350A000206860AC6025602089401C20810120BC
S11350B0FFF7A6F9002032BD38B504000120FFF740
S11350C094F9002C02D02089002804D10120FFF794
S11350D097F9002015E0206805002089401E2081F2
S11350E02089002802D10020606002E000202968A5
S11350F04860286820600020A8600120FFF780F93C
S1135100280032BD0068704710B50400A06800286C
S113511001D1032025E00120FFF767F9606800282A
S113512002D12068A16808602068002802D1606864
S1135130A16848606068002802D02068616808603F
S11351402068002802D0606821684860A06800894F
S1135150401EA16808810020A0600120FFF750F9DB
S1135160002010BD38B504000D00A068002801D14E
S1135170032028E00120FFF738F9A06840890028BF
S11351800AD0A0684089A1680989884204D1012015
S1135190FFF736F9012016E06068002802D1A06804
S11351A0056001E060680560A068A860A0680089E7
S11351B0401CA16808812C606068686065600120FB
S11351C0FFF71EF9002032BD00897047002202F06B
S11351D025B88268521C8260426832B10268531C4E
S11351E0036011704168491E416070472DE9F34F17
S11351F083B0DFF8000800688246039800280CD0CA
S11352000398000CADF80200BDF80200DAF80412AD
S113521089B2884201D01220CCE0039800F075F9DD
S11352208346BBF1000F03D01AF15000834501D12E
S11352301220BFE01AF5927000F0D8FD00F09AFE3B
S1135240DBF80800092807D100F0A4FE1AF59270D3
S113525000F094FD0020ADE0DBF8080002280CD13A
S1135260DAF81C0083453DD0DBF804100800DBF8B5
S113527000100C000460606034E0DBF80800C00536
S11352801DD5DBF80800C0052CD5DBF80410080098
S1135290DBF800100D0005606860BAF8E401401EF8
S11352A0AAF8E401DBF8080030F48070CBF80800B9
S11352B0DBF8080050F00300CBF8080012E0DBF83C
S11352C0080080050ED5DBF804100800DBF8001098
S11352D00E0006607060DBF838000089401EDBF8C1
S11352E038100881DBF8080040050ED5DBF84010C3
S11352F00800DBF83C100F0007607860DBF838002A
S11353000089401EDBF8381008810920CBF808001A
S113531000F040FEDBF80C00ADF80000DAF81C00E9
S113532001905FF00040CBF80C00BAF800010128AE
S113533006D10120CAF804010020CAF808010EE0D1
S1135340BDF80000DAF80411884208D2BDF8000064
S1135350CAF80401DBF870006C38CAF80801DBF8FD
S113536070100800DBF86C108846C0F80080C8F89C
S11353700400BAF80001401EAAF800011AF5927060
S113538000F0FCFC0198834510D100F0F3FDDBF83C
S113539004100800DBF800108946C0F80090C9F832
S11353A00400584601F053FF01F054FF584601F041
S11353B04EFF002005B0BDE8F08F10B504000021B9
S11353C02000FFF713FF10BD0100002901D10020C8
S11353D000E0C868704770B504000D00200000F0BC
S11353E094F80600002E01D1122003E0306AC0892F
S11353F02860002070BD2DE9F84F04000D00160050
S1135400DFF8F00500680700D7F8F000A84201D2E1
S11354100C204FE0200000F078F88146B9F1000F2D
S113542001D1122046E000F0A5FDD9F82000C08982
S11354303060386A80467FF00F0000FB0580C9F8B1
S11354402000D9F85000002809D0D9F81C00C089E0
S1135450854208D22900484601F0F6FF03E02900FE
S1135460484601F0F1FFD9F8080040F229218842AA
S11354701BD1D9F83800103882469AF80C0000077E
S113548013D5D9F804100800D9F800108B46C0F8D9
S113549000B0CBF80400BAF81800401EAAF81800AF
S11354A049461AF1100001F0AFFF01F0D5FE00F0FB
S11354B071FD0020BDE8F28F38B5DFF838050068CB
S11354C00400E069050000F055FDA86A50F480501E
S11354D0A86200F05FFD31BD38B5DFF8180500683B
S11354E00400E069050000F045FDA86A30F480502E
S11354F0A86201F0B1FE00F04DFD31BDDFF8F414F7
S113550009680800C069C0687047F8B50400DFF88E
S1135510E40400680700002C01D1F86920E0F86D6C
S1135520844202D117F150001AE000F023FDD7F8AD
S1135530F8006C380500B7F8000106003000461E7C
S113554000280AD0E868A04203D100F023FD280017
S113555006E0E86EB0F16C05F0E700F01BFD0020FA
S1135560F2BD0100DFF88C341B681A00138B002B8A
S113557003D0536BDB68180002E0D369DB6D1800BD
S1135580002901D0002807D1138B002B02D0536BC4
S1135590D96001E0D369D96570472DE9FE4F040055
S11355A00D0016001F00DFF84C0400688046002C34
S11355B018D000208DF80800AA46D8F814028346B3
S11355C0DBF80000002806D0DBF80000A04202D07F
S11355D01BF1200BF4E7DBF80000002809D10020C0
S11355E0834606E0AB46DBF81800824601208DF8BE
S11355F00800BBF1000F04D11020FFF7B2FF002018
S113560014E018F5927000F0F1FB019700969DF8F4
S113561008305246D8F81C00C168584600F013F808
S1135620814618F5927000F0A9FB4846BDE8FE8F4C
S113563038B5DFF8C00300680400E0690500002005
S1135640FFF7BBFE31BD2DE9F24F86B00400150013
S11356501E00109FDDF84480DFF898030068059071
S1135660002F18D0C246BAF5B67F04D80220FFF73F
S113567078FF00207CE000233A0003A9504600F0A4
S11356809BF881460398BAEB000AF6B2002E1CD0B0
S1135690BAF1200A19E0A0688246BAF1D90F01D202
S11356A0D82082461AF10F005FEA101A5FEA0A1A3C
S11356B0F6B2002E02D01AF1200000E0504600237A
S11356C0002203A900F078F881460320C9F80800F5
S11356D0D9F88800002803D0D9F88800834605E06B
S11356E0039810EB09008346C9F888B0F6B2002E7F
S11356F00ED0CDF810B01BF1200B0498210020220D
S1135700FEF7C0FE04980400206850F000402060BA
S11357105146584600F02FF80598006AE1687FF07A
S11357200F0202FB010002900298C9F81C000298C3
S1135730C9F8200002988089A9F824006069C9F892
S11357402800002F05D0D9F8280050F02000C9F80F
S113575028000195029880890090230052465946FA
S1135760484601F0ADFE002801D1002000E0484683
S113577007B0BDE8F08F8908491C491E002903D0F1
S11357809E4A0260001DF8E7704710B4994C2468E3
S11357902100C4692200546823004C6A944200D258
S11357A04A620224846043601C680460186050608C
S11357B010BC7047416970472DE9FB4F82B014005B
S11357C05FF094088B4800680500B5F800014FF6B7
S11357D0FE71884201DB002059E00398C0F8008084
S11357E0002C08D0A2465FF0000B5A4641465046B2
S11357F001F0AAFE0BE0404600F087FF8246BAF1B2
S1135800000F04D0029800F061FFCAF88800D5F8B0
S113581004018146D5F808010600D5F804021FFAF0
S113582089F959EA0040CAF80C00002E03D115F199
S1135830F800009002E016F16C0000901AF16C027E
S1135840009915F1F80001F0F2FECDF804A00198DA
S11358500600F06E6C380700019719F101091FFA70
S113586089F9B9F1000F01D10120814615F1F80041
S1135870874205D0F86880B21FFA89F94845E6D016
S1135880C5F808611FFA89F9C5F80491504605B0B6
S1135890BDE8F08F0200D36D1800002901D0002864
S11358A000D1D16570472DE9F0418AB0040000278A
S11358B05FF0000801A82021FFF788FC4D4800682C
S11358C00500D5F8F000E168884202D25FF00108D3
S11358D001E05FF00008B8F1000F07D04FF47262E6
S11358E045494748FEF7F6FEC046C046B8F1000FEA
S11358F001D000207BE0B5F800014FF6FE7188422C
S113590002DB5FF0010801E05FF00008B8F1000F6E
S113591007D040F6287238493948FEF7DBFEC04606
S1135920C046B8F1000F01D0002060E06068B0F517
S1135930B67F02D85FF0010801E05FF00008B8F11B
S1135940000F07D04FF473622B492D48FEF7C2FEB7
S1135950C046C046B8F1000F01D0002047E0002047
S113596001902068029060680390E06804902069C8
S1135970059060690690A0690790E069089000208E
S113598000906368A26801A90020FFF706FE0600E4
S1135990002E02D15FF0010801E05FF00008B8F1C9
S11359A0000F07D040F6477213491548FEF792FEE0
S11359B0C046C046B8F1000F01D0002017E0F068DF
S11359C00700E86915F15001884203D09DF81800DA
S11359D0800602D50320B06008E000F0CBFA300066
S11359E0FFF7D3FE00F0D6FA01F036FC38000AB017
S11359F0BDE8F081C4070020B0BE02006B6174737F
S1135A00D4CF020070B50400DFF80C020068050072
S1135A10002C03D10C20FFF7A4FD0FE0E869060079
S1135A2000F0A8FA16F1440215F5E271200001F025
S1135A301FFE300000F003F800F0ACFA70BD2DE951
S1135A40F8430400DFF8D0010068804618F5EE70D2
S1135A508146B8F8E401002826D0D8F8DC01050016
S1135A60B8F8E401401C0600761E002E1CD0D4E9D0
S1135A701123D5E911018B4204D801D3824201D20A
S1135A8001270CE0D5E91123D4E911018B4205D893
S1135A9001D3824202D25FF0FF3700E00027002FDB
S1135AA002D5A9462D68DFE76168080021688C46A5
S1135AB0C0F800C0CCF804002200494618F5EE7086
S1135AC001F0B5FDA06850F48070A06001F0D2FB35
S1135AD0BDE8F18370B50400DFF83C0100680500FF
S1135AE0002C03D10C20FFF73CFD0EE0E869060012
S1135AF016F144000ECC0EC00C3C0C3800F03AFAFF
S1135B003000FFF79CFF00F045FA70BDDFF8081184
S1135B1009680800D0F8F00170472DE9F0473E48C5
S1135B2000680400D4E97101401C51F10001C4E98A
S1135B30710100F01FFAD4F8FC01002806D0D4F853
S1135B400002D4F8FC118847C4F8CC0114F5E270C3
S1135B5001F0B8FDB4F8E4010600002E44D0D4F8F6
S1135B60DC0105003000461E00283DD0286882462E
S1135B70D5E91123D4E971018B4204D801D38242BF
S1135B8001D201270CE0D4E97123D5E911018B423C
S1135B9005D801D3824202D25FF0FF3700E000272C
S1135BA0002F21D4B4F8E401401EA4F8E40169688C
S1135BB0080029688946C0F80090C9F80400A8685C
S1135BC040050CD5296C0800E96B8846C0F80080B4
S1135BD0C8F80400A86B0089401EA96B088128003E
S1135BE0FFF7D3FD5546BDE700F0D4F9BDE8F087D3
S1135BF0094A12681100C1F8F0017047064B1B688E
S1135C001A00C2F8FC01C2F800127047024A126876
S1135C101100C1F8F8017047C40700202DE9F843CA
S1135C2004000D0016001F00DFF80803006880461A
S1135C30A561002114F1080001F0B9FC00F09AF903
S1135C40F6B2002E15D1D8F81801814618F58C70DB
S1135C50814509D0A14504D100F09CF94FF482603C
S1135C600DE0D9F80090F1E7210018F58C7001F0EF
S1135C70A4FCDFF8C402606100F08CF90020BDE8E8
S1135C80F28338B504000D0000230022290020000F
S1135C90FFF7C4FF32BD2DE9F04705000E00DFF821
S1135CA094020068070000F065F900206861288A02
S1135CB0002829D015F1080001F09FFC8146B9F1B4
S1135CC03C09D9F80800C0051AD5D9F80410080011
S1135CD0D9F800108A46C0F800A0CAF80400B7F842
S1135CE0E401401EA7F8E401D9F8080030F48070FC
S1135CF0C9F80800D9F8080050F00300C9F80800F2
S1135D004846FFF742FDD2E7D7F81801804617F559
S1135D108C70804510D0A8450BD1696808002968AB
S1135D200C0004606060B7F82001401EA7F8200151
S1135D3002E0D8F80080EAE700F02CF901F08CFAD0
S1135D400020BDE8F08710B5040000212000FFF713
S1135D50A2FF10BD38B5040000F00CF9A0690128B9
S1135D6002DA0020050004E0A069401EA0610120C1
S1135D70050000F00FF92800C0B232BDF8B50500E7
S1135D806C480068060000F0F5F8A869002826D4DD
S1135D90288A002823D015F1080001F02EFC070002
S1135DA03C3FB868C00512D57968080039680C0012
S1135DB004606060B6F8E401401EA6F8E401B86827
S1135DC030F48070B860B86850F00300B860002008
S1135DD0B8633800FFF7D9FC01F03EFA02E0A86985
S1135DE0401CA86100F0D6F80020F2BDF8B504000C
S1135DF0504800680500288B002801D00D2029E0B8
S1135E0000F0B8F8A069012816DAE869060040F243
S1135E102B40B06014F10800B06371680800316869
S1135E200F000760786016F13C0114F1080001F0DE
S1135E30C4FB01F01FFA02E0A069401EA061606982
S1135E403D49884203D000F0A5F81F2002E000F08D
S1135E50A1F80020F2BD38B504000D0040F22B403B
S1135E60A86014F10800A8636968080029680A009A
S1135E700260506015F13C0114F1080001F09DFB33
S1135E802800FFF7DCFDA86B002801D0372000E0D4
S1135E90002032BD2DE9F84305000C0025480068B8
S1135EA08046B8F81800002801D00D2040E000F02A
S1135EB061F8A86901282BDAD8F81C000600002C28
S1135EC018D140F22B40B06015F10800B06371683E
S1135ED0080031688946C0F80090C9F8040016F13A
S1135EE03C0115F1080001F068FB01F0C3F9002042
S1135EF0070012E0D8E9712320000021101859414D
S1135F00C6E9110131002800FFF7A5FF070004E0EE
S1135F10A869401EA86100200700686906498842F4
S1135F2003D000F037F81F2002E000F033F8380007
S1135F30BDE8F283C40700206D73776CF8B50500E3
