S03300007468726561645F656E645F6465766963655F7477726B773234643531325F6D71786C6974655F64656275672E737265634B
S1130000D8430020518B02002B660000BF6A000019
S11300107B6E00000F6F00002F74000000000000D2
S11300200000000000000000000000008F670000D6
S113003047C900000000000005680000938B02001F
S1130040C5A70200C5A70200C5A70200C5A70200F4
S1130050C5A70200C5A70200C5A70200C5A70200E4
S1130060C5A70200C5A70200C5A70200C5A70200D4
S1130070C5A70200C5A70200C5A70200C5A70200C4
S1130080C5A70200C5A70200C5A70200C5A70200B4
S1130090C5A70200C5A70200C5A70200C5A70200A4
S11300A0C5A70200C5A70200C5A70200C5A7020094
S11300B0C5A70200C5A70200C5A70200C5A7020084
S11300C0C5A70200C5A70200C5A70200C5A7020074
S11300D0C5A70200C5A70200C5A70200C5A7020064
S11300E0C5A70200C5A70200C5A70200C5A7020054
S11300F0C5A70200C5A70200C5A70200C5A7020044
S1130100C5A70200C5A70200C5A70200C5A7020033
S1130110C5A70200C5A70200C5A70200C5A7020023
S1130120C5A70200C5A70200C5A70200C5A7020013
S1130130C5A70200C5A70200C5A70200C5A7020003
S1130140C5A702008F8B02008F8B02008F8B0200E9
S11301508F8B02008F8B02008F8B02008F8B02002B
S11301608F8B02008F8B02008F8B02008F8B02001B
S11301708F8B02008F8B02008F8B02008F8B02000B
S11301808F8B02008F8B02008F8B02008F8B0200FB
S11303F08F8B02008F8B02008F8B0200FFFFFFFFA9
S1130400FFFFFFFFFFFFFFFFFFFFFFFFFEFFFFFFF9
S1130410FEB504000D001600DFF84008007800283F
S113042001D10E2082E0DFF8E0090078002807D02F
S1130430F6B2002E04D101A802F04EFE0F2075E0A2
S1130440002C01D1052071E001A9200002F0CCF8B4
S11304500700C0B2002802D03800C0B266E08DF8B0
S1130460085001A802F05AF90700C0B211285BD164
S11304704FF6FF7001F0A6FC0700C0B2002802D0BE
S11304803800C0B252E00020DFF880190870DFF8AD
S1130490F00A0368DFF8EC0ADFF8EC1A497818224E
S11304A051430844C268DFF8DC0ADFF8DC1A4978F3
S11304B05FF0180C0CFB01F14158DFF8280B02F037
S11304C0E9FFDFF8BC0A006800900023DFF8B40AF3
S11304D0DFF8B41A4978182251430844C068C208A6
S11304E092B2DFF8A00ADFF8A01A49785FF0180C7E
S11304F00CFB01F14158DFF8EC0A02F0E1FF00289F
S11305000ED1DFF8800ADFF8801A497818225143A7
S11305100844DFF8FC1801610020DFF86C1A087049
S113052001A802F0FBF807003800C0B2FEBD38B5E0
S1130530DFF828070078002801D10E2064E0DFF8F6
S1130540C8080078002801D00F205DE00422DFF8FD
S1130550340ADFF8941A0978182359434158684635
S113056002F0FEFF009801F02FFE0400C0B2002844
S113057001D100F03FFD0021080080B2202841DABB
S1130580DFF80C1A096880B20C2202FB00F28958C9
S113059000290CD1DFF8F819096880B20C2202FB9B
S11305A000F2114409894FF6FE7291422AD0DFF815
S11305B0E019096880B20C2202FB00F21144498957
S11305C001291DD1002211000A00DFF8C4391B687B
S11305D080B20C2505FB00F52B449B88D2B2DBB21C
S11305E09A420DD2DFF8A829126880B20C2303FBCB
S11305F000F3D258C9B2002342F82130491CE3E782
S1130600401CBAE72000C0B232BD70B584B0DFF838
S11306104C060078002804D0DFF8EC0700780028A6
S113062000D0B7E0DFF8E4070078002808D0DFF84E
S11306305C09008801F0C6FB0020DFF8D0170870C1
S1130640DFF844090078002846D0DFF83C09406808
S1130650DFF83019DFF83029527818235A4311444F
S1130660496888420FD3DFF81C09DFF81C19497860
S1130670182251430844DFF8981701610020DFF87D
S11306800819087086E0DFF8F8080368DFF85C29C9
S1130690DFF8F4084168DFF84C0902F0FBFE0600BD
S11306A0DFF8DC08006800900023DFF84009C20886
S11306B092B2DFF8D4084168DFF8280902F000FF9D
S11306C0002809D1DFF8C0084068DFF820190818AD
S11306D0DFF8B41848605DE0DFF88C0A0078002881
S11306E021D0DFF8840A007800F072F8002816D0D0
S11306F0DFF8C40A007803F0CFF800280FD1FF21F7
S1130700002002F07AFD05000023DFF8B02AEDB2E4
S113071015F55A71DFF8A00A007803F02FF90020CC
S1130720DFF8441A0870DFF8980A00F044FB002848
S113073030D001A9DFF8880A00F016FB002829D080
S1130740BDF8040002F0A4FC0400A4B24FF6FF704C
S11307508442EED001A801F0E1FF112803D101A8E1
S113076002F0BAFC16E09DF808000028E1D0002051
S1130770DFF8341BA4B2062202FB04F288544FF4BF
S11307808070DFF8241BA4B2062202FB04F2114499
S11307908880CEE77FBD30B583B004000D00DFF85C
S11307A0BC040078002801D10E2010E0002C01D1F7
S11307B005200CE08DF804506946200001F014FF78
S11307C0002801D0062002E0684602F0C1F93EBDCF
S11307D07CB50400DFF884040078002801D10E20E1
S11307E098E00020060000200500E4B2002C00F090
S11307F08F80DFF89C070068B6B20C2101FB06F17C
S1130800084400894FF6FE71884200F08180DFF8C9
S1130810980AB6B2062101FB06F108444088002874
S113082010D0DFF8840AB6B2062101FB06F10844B1
S11308304088401EDFF8701AB6B2062202FB06F2A8
S113084011444880DFF8600AB6B2062101FB06F1C4
S113085008444088002801D001200500DFF8480A38
S1130860B6B2062101FB06F1405C00284ED0DFF849
S1130870380AB6B2062101FB06F108444088002874
S113088044D1DFF88405007800282BD1DFF8000775
S11308900068B6B20C2101FB06F108440089ADF8EA
S11308A000000020ADF8020001208DF80400684625
S11308B001F034FF112802D1684602F00DFC00203B
S11308C0DFF8E419B6B2062202FB06F288544FF4AC
S11308D08070DFF8D419B6B2062202FB06F2114486
S11308E0888013E0DFF8A8060068B6B20C2101FB8B
S11308F006F108440089ADF800000020ADF80200BC
S113090001208DF80400684602F0E6FB761C70E7CF
S11309102800C0B276BD70B582B00025CF480078FB
S1130920002801D010203CE102F006FDDFF8E40AC3
S11309304008DFF8E01ADFF8DC2AB1EB5201884204
S113094001D008202DE100200400E4B2202C1BDAA1
S1130950DFF890030068E4B20C2101FB04F1405875
S113096000280FD1DFF87C030068E4B20C2101FBFE
S113097004F1084400894FF6FE71884202D1012037
S1130980050001E0641CE0E7EDB2002D01D119205F
S113099007E10220DFF850160870DFF87C0ADFF860
S11309A0E4150860DFF86C0A4008DFF8D81508720F
S11309B0DFF8D005007ADFF834164843DFF8C415B1
S11309C0C860DFF8C0050068DFF8B815C968081802
S11309D0401EDFF8B0154860DFF8A8054068401CE9
S11309E0DFF8A0158861DFF82C0A4008DFF89415B9
S11309F081F82000DFF88C0590F82000DFF8EC1572
S1130A004843DFF880154862DFF878058069DFF82D
S1130A107415496A0818401EDFF86815C86100207B
S1130A20DFF8CC1508704FF6FF70DFF8601508800A
S1130A3000F0F0F9DFF8880700F056F90020040010
S1130A40E4B2202C14DA0020DFF85C18E4B20622A9
S1130A5002FB04F28854DFF8B40C0088DFF848186D
S1130A60E4B2062202FB04F211448880641CE7E726
S1130A700020DFF8F4160870FF20DFF83C17087038
S1130A80002001F07BFCDFF8E81C0860012001F085
S1130A9075FCDFF8E01C0860DFF8D80C006800285B
S1130AA00FD10422DFF8DC04DFF83C1509781823A1
S1130AB059434158684602F053FD009801F084FB05
S1130AC026E001F0B3FCDFF8B01C0870DFF8A80CD6
S1130AD0007800281CD000F08DFA002808D14FF6C9
S1130AE0FF7001F06FF901205C490870002058E0A4
S1130AF0002001F069FB002808D100F07BFA0028EF
S1130B0004D101205549087000204AE0132048E030
S1130B1000F070FA002835D10120504908700020F7
S1130B200400E4B2202C2BDA6E480068E4B20C21F5
S1130B3001FB04F1405800280BD16A480068E4B274
S1130B400C2101FB04F1084400894FF6FE71884230
S1130B5016D064480068E4B20C2101FB04F1084497
S1130B60408901280AD15F480068E4B20C2101FBE6
S1130B7004F1465801213000FFF70DFE641CD0E754
S1130B8000200EE0002001F01FFB002808D100F037
S1130B9031FA002804D1012030490870002000E017
S1130BA0132076BDF0B583B004000026206801F060
S1130BB0F9FC002804D12068002801D000204BE073
S1130BC06946200001F010FD0700C0B2002802D0E1
S1130BD03800C0B240E0BDF8000002F059FA050048
S1130BE080B24FF6FF71884201D1092034E0DFF86A
S1130BF0A0030068ADB20C2101FB05F10844408953
S1130C00012801D01F2027E0DFF884030068ADB27B
S1130C100C2101FB05F10844C08803F0A9F9060082
S1130C20002E01D11E2017E0206800280CD0DFF828
S1130C3060030068ADB20C2101FB05F10844C288D1
S1130C402168300002F08CFC012003F0A1FB266037
S1130C50012003F0A8FB0020FEBD0000FBF9FF1FEC
S1130C607CB504006946200001F0BEFC0600C0B259
S1130C70002802D03000C0B233E0BDF8000002F01A
S1130C8007FA050080B24FF6FF71884201D10920AE
S1130C9027E0BF480068ADB20C2101FB05F1084410
S1130CA04089012801D01F201BE0206801F07AFC54
S1130CB0002809D12068002802D0206803F089F9AF
S1130CC00020206000200CE0012003F061FB0020E4
S1130CD02060012003F067FB012200212000FFF7C0
S1130CE097FB76BD9C0500200100002901D100205E
S1130CF009E0002081F8C000002081F8C100002034
S1130D0081F8C2000120704716B50400002C01D1FF
S1130D10002028E094F8C10094F8C010884205D15E
S1130D2094F8C200002801D000201CE094F8C1000F
S1130D300621484320446946062203F065FB94F8E3
S1130D40C100401C202190FBF1F201FB120084F849
S1130D50C10094F8C200202804DA94F8C200401CB0
S1130D6084F8C200012016BD38B504000D00002C23
S1130D7005D094F8C200002801D0002D01D1002034
S1130D8018E0280094F8C01006225143214406229A
S1130D9003F03AFB94F8C000401C202190FBF1F2D0
S1130DA001FB120084F8C00094F8C200401E84F8CD
S1130DB0C200012032BD0100002901D1002001E060
S1130DC091F8C200704738B50400E4B2022C01DB8C
S1130DD0022017E06A4803686A48E4B2182101FB5C
S1130DE004F10844C2686748E4B2182101FB04F125
S1130DF041587C4802F04EFB0500002D01D1002033
S1130E0000E0042032BD0000FCF9FF1FF9F9FF1FC8
S1130E100000FF3F00B585B004225A48016801A8CC
S1130E2002F09EFB042257484068C11E03A802F04A
S1130E3097FB042253488169684602F091FB04221F
S1130E405048C069C11E02A802F08AFB022066490C
S1130E5008700198039988424CD1019810F1010F50
S1130E6048D000980299884217D1009810F1010FD8
S1130E7013D001980099884207D30198DFF8FC1831
S1130E80086000205849087078E00098DFF8EC18F2
S1130E90086001205449087070E000980299884263
S1130EA011D00198DFF8D418086000204E4908706A
S1130EB001204F494870334880694D4948600120FA
S1130EC04B4908705AE00198DFF8B0180860002018
S1130ED045490870012000F05DF8032809D101207C
S1130EE04349487027488069414948600120404986
S1130EF0087043E00198039988421DD00098029934
S1130F00884215D1009810F1010F11D00098DFF834
S1130F106C18086001203449087000203449487076
S1130F20184800683249486001203149087025E0BA
S1130F30002001F049F921E00098029988421AD171
S1130F40009810F1010F16D00098DFF830180860EF
S1130F50012025490870002000F01CF8032809D15D
S1130F60002023494870074800682149486001204F
S1130F701F49087002E0002001F026F905B000BD09
S1130F8034F9FF1F3CF5FF1FE0F8FF1FDCF9FF1FDA
S1130F909C05002010B582B00400E4B2022C01DBF1
S1130FA002201DE0DFF8D807006800900023DFF876
S1130FB0D407E4B2182101FB04F10844C068C20854
S1130FC092B2DFF8C007E4B2182101FB04F14158E2
S1130FD0044802F075FA002801D0032000E0002044
S1130FE016BD0000C4040020F8F9FF1F000800002B
S1130FF0E0F8FF1F10B584B0DFF88807DFF8BC1DE8
S11310000978182251434058DFF86817096808180E
S11310100C300400DFF86C07DFF8A01D09781822F3
S1131020514308444068844280F09A8001222100A0
S113103002A802F095FA9DF80800FF2840F08E807F
S113104008222100684602F08BFA6A46106851684B
S11310505FF0FF325FF0FF3399427DD190427BD144
S1131060DFF82007DFF8541D09781822514340584F
S1131070DFF80017096808180C30844217D1DFF82C
S1131080400DDFF80017DFF8342D127818235A4387
S113109011440861DFF8280DDFF8E816DFF81C2D8D
S11310A0127818235A4311444861002059E0083C3F
S11310B0DFF8D006DFF8041D0978182251434058A0
S11310C0DFF8B016096808180C30844242D30822AD
S11310D02100684602F044FA9DF800009DF80710CC
S11310E0884235D19DF80000AA2803D09DF800005D
S11310F055282DD1DFF88C06DFF8C01C097818229A
S1131100514308440461DFF87C06DFF8B01C097819
S1131110182251434058DFF85C16096808180C304F
S1131120844213D3BDF80500002806D1083C0822E8
S11311302100684602F014FAE5E7DFF84806DFF814
S11311407C1C09781822514308444461002008E0BB
S1131150083CADE70B2004E00B2002E0083459E71B
S11311600B2004B010BD0000FDF9FF1F70B5040092
S11311700D001600DFF80C06E4B2182101FB04F19F
S11311804058DFF8F015096808180C30854209D377
S1131190DFF8F005E4B2182101FB04F108444068CB
S11311A0A84201D2072005E008222900300002F0FD
S11311B0D7F9002070BD0000FEF9FF1FF3310000D5
S11311C0F8EBFF1F7FB50400DFF8B805DFF8EC1B70
S11311D009781822514308440069DFF8E41B884267
S11311E00FD1DFF8A005DFF8D41B0978182251438A
S11311F00844C068DFF87C150968401A103820607C
S11312004DE06A46DFF87C05DFF8B01B0978182347
S1131210594308440169DFF8A40B0078FFF7A6FFDF
S11312200500EDB2002D38D1BDF8050000281BD112
S113123002AADFF85005DFF8841B09781823594304
S113124008444169DFF8740B0078FFF78FFF06004C
S1131250F6B2002E04D0002020603000C0B220E09E
S1131260BDF80D00ADF80500DFF81805DFF84C1BDC
S11312700978182251434058BDF8051010FA81F03E
S1131280DFF80015DFF8342B127818235A43114481
S11312900969401A0838206001E000202060280015
S11312A0C0B204B070BD0000BCECFF1F70B582B0CA
S11312B004000D0015F0030F01D000203DE0DFF81D
S11312C0C404DFF8F81A09781822514340588442BC
S11312D00AD3DFF8B004DFF8E41A0978182251437E
S11312E008444068A04201D2002026E0DFF89404BC
S11312F0DFF8C81A09781822514308444068401C92
S11313002919884201D2002017E0002D14D00422AC
S11313102100684602F024F904200600F6B2002EEB
S113132007D0761E6846F6B2805DFF28F6D000200E
S113133003E02D1F241DE8E7012076BD2DE9FC41C3
S113134004000D00DFF83C04E4B2182101FB04F1B1
S11313504058DFF82014096808180C3006000020F3
S1131360070008223100684602F0FAF89DF80000F0
S1131370FF284AD09DF800009DF80710884201D04C
S1131380083639E09DF8020000029DF8011050FA79
S113139081F08046B5F80100414689B288422AD1DD
S11313A02878AA2819D19DF80000AA2812D19DF8FE
S11313B0040000029DF8031050FA81F08046404674
S11313C0B5F8031080B2884202D1012007001CE066
S11313D0083611E00120070017E02878552808D1C5
S11313E09DF80000AA2801D1083605E00120070075
S11313F00BE0083600E00836E248E4B2182101FBAD
S113140004F1084440688642ABD33800C0B2BDE85A
S1131410F68100002000000000F806002DE9F24FDC
S113142096B0834615001E00209C0020ADF80600EF
S113143000270020ADF804000020824603A82900FC
S1131440082202F0E1FFDFF874090078401C022151
S113145090FBF1F201FB120018214843C9490858D6
S1131460BBEB0000ADF81100DFF8540D0068B6B214
S11314700C2101FB06F108448088DFF8441D09684B
S1131480B6B20C2202FB06F21144C98810FB01F02B
S1131490ADF804002000BDF8041080B2884211D2D7
S11314A0BDF80400001BADF80600A4B2DFF8100D6F
S11314B00068B6B20C2101FB06F10844C08894FB15
S11314C0F0F00700A4B2002C46D0A4B2412C23DBD8
S11314D04022AC48DFF8E4180978182359434058EF
S11314E0B5F80510401810FA8AF105A802F038F88A
S11314F0A3480068009005AB40225946DFF8680D08
S113150001F032FF002805D11BF1400B403C1AF1D9
S1131510400AD7E70C20D4E0A4B222009948DFF8AF
S11315209C180978182359434058B5F805104018F9
S113153010FA8AF105A802F013F8914800680090A7
S113154005ABA4B222005946DFF81C0D01F00CFFD4
S1131550002801D00C20B4E0BDF80600002800F0FB
S1131560A1801BFA84FB1BF0FC00BBEB000080464F
S1131570002082465FFA88F8B8F1000F67D05FEA6E
S11315809B0B5FEA8B0BDFF8380C0068B6B20C21BA
S113159001FB06F10844C0885FFA88F8D8F1040119
S11315A088420BDADFF8180C0068B6B20C2101FB94
S11315B006F10844C088ADF8080005E05FFA88F831
S11315C0D8F10400ADF808000422594605A801F03A
S11315D0C7FF002081464846C0B2BDF8081080B25B
S11315E0884224D2DFF8D80B0068B6B20C2101FB84
S11315F006F14058BFB2DFF8C81B0968B6B20C2226
S113160002FB06F21144C98801FB07F108441FFAE2
S11316108AFA10F80A0005A95FFA88F801F80800A8
S11316201AF1010A18F1010819F10109D3E7544824
S11316300068009005AB04225946DFF82C0C01F039
S113164093FE002801D00C203BE01BF1040B4C4816
S113165000680090DFF8680B0068B6B20C2101FB4B
S113166006F14058BFB2DFF8581B0968B6B20C2225
S113167002FB06F21144C98801FB07F108441FFA72
S11316808AFA00EB0A03BDF806001FFA8AFAB0EBE7
S11316900A025946DFF8D00B01F066FE002801D09B
S11316A00C200EE036480068009003AB082216991F
S11316B0DFF8B40B01F058FE002801D00D2000E043
S11316C0002017B0BDE8F08F30B40100DFF8F03A25
S11316D01B6889B20C2404FB01F42344DB88DFF883
S11316E0E04A246889B20C2505FB01F52C44A48842
S11316F06343180010F003031A00D2B2002A03D087
S1131700D2F1040350FA83F030BC7047BC050020CA
S113171030B583B004000D001A48DFF8A81A097820
S11317201822514340581349096808180C30844260
S11317301CD36A462100DFF88C0A0078FFF716FDF7
S11317409DF80000552805D19DF800009DF807106C
S1131750884201D0083CDFE7BDF80100290089B2C6
S1131760884201D1200002E0083CD5E700203EBDBC
S113177050F9FF1F54F9FF1FFAF9FF1F4CF9FF1F1F
S113178034F9FF1F3CF5FF1F2DE9FF4F8DB00020FA
S11317908DF80A0000208DF807000E98B0F80110AB
S11317A00D98FFF7B5FF07900798002800F0CF8247
S11317B00D9806000020ADF8080000200700BFB215
S11317C0402F08DA4FF6FF70DFF8281DBFB221F86A
S11317D017007F1CF3E70798B04280F0D68005AA73
S11317E03100DFF8D8050078FFF7C0FC9DF814003D
S11317F09DF81B10884203D19DF81400AA2801D03B
S1131800083EE8E7BDF815000E99B1F801108842CA
S113181040F0B98000208DF8060000200700BFB218
S1131820402F0EDABDF81700DFF8C81CBFB231F83C
S11318301710884203D101208DF8060001E07F1CB7
S1131840EDE79DF80600002801D0083EC3E7BDF887
S11318501700DFF86C190968BDF83C200C235A43C3
S113186011448988884201D3083EB4E7DFF850095F
S11318700068BDF83C100C2251430844C0880500A0
S11318801A98BDF81710ADB205FB010083461BF092
S1131890FC00BBEB000080465FFA88F8B8F1000F4B
S11318A003D05FEA9B0B5FEA8B0B00208246ADB24C
S11318B05FFA88F8D8F10400854202DA28000400AF
S11318C002E0D8F104000400ADB2002D4CD0042293
S11318D0594603A801F044FEE4B22200DFF8000DEB
S11318E0DFF8D8140978182359434058BDF8191063
S11318F010FA81F010FA8AF104A801F031FE0020F8
S1131900070038002100C9B280B289B288420BD2E4
S113191004A8BFB2C05D03A95FFA88F801F8080003
S11319207F1C18F10108ECE7DFF8B80C00680090A0
S113193003AB04225946DFF8300901F015FD0028F5
S113194010D1E4B22D1B5AFA84FA1BF1040B0020C7
S11319508046ADB2042D02DB04200400B4E7280065
S11319600400B1E70C2026E2BDF81700DFF8841B61
S1131970BDF8082021F81200BDF80800401C10F042
S11319803F00ADF80800083E25E705AA0799DFF8EF
S11319902C040078FFF7EAFB00208DF80A00DFF83A
S11319A0740D007800281DD00AA9DFF81408006817
S11319B0BDF83C200C235A431044008900F09CFDE0
S11319C000280FD0BDF82C00DFF8F4170968BDF823
S11319D03C200C235A4311448988884202D20120B6
S11319E08DF80A000020ADF80400BDF80400DFF80B
S11319F0D0170968BDF83C200C235A431144898848
S1131A00884280F0C680DFF80C0D0078002806D0EC
S1131A10BDF80400BDF82C10884280F0BA80002084
S1131A208DF8060000200700BFB2402F0EDABDF883
S1131A300400DFF8C01ABFB231F81710884203D18E
S1131A4001208DF8060001E07F1CEDE79DF80600FB
S1131A50002840F09880DFF868070068BDF83C1063
S1131A600C2251430844C0880500A9461A98BDF8C1
S1131A700410ADB205FB010083461BF0FC00BBEB78
S1131A80000080465FFA88F8B8F1000F03D05FEADF
S1131A909B0B5FEA8B0B002082461FFA89F95FFAE1
S1131AA088F8D8F10400814502DA4846040002E0CF
S1131AB0D8F1040004001FFA89F9B9F1000F53D0DA
S1131AC00422594603A801F04BFDE4B22200DFF8DA
S1131AD0100BBA490978182359434058BDF8191016
S1131AE010FA81F0BDF80410ADB205FB010010FA44
S1131AF08AF104A801F034FD002007003800210019
S1131B00C9B280B289B288420BD204A8BFB2C05D08
S1131B1003A95FFA88F801F808007F1C18F101088E
S1131B20ECE7DFF8C00A0068009003AB04225946D2
S1131B30DFF8340701F018FC002813D1E4B2B9EB44
S1131B4004095AFA84FA1BF1040B002080461FFA98
S1131B5089F9B9F1040F02DB04200400ABE748461D
S1131B600400A8E70C2026E1BDF80400DFF884197E
S1131B70BDF8082021F81200BDF80800401C10F040
S1131B803F00ADF80800BDF80400401CADF80400A7
S1131B902BE79DF80A00002800F0AB80BDF8040094
S1131BA0DFF81C160968BDF83C200C235A43114485
S1131BB08988884280F09D80DFF804060068BDF8BB
S1131BC03C100C2251430844C0880500A9461A98C9
S1131BD0BDF80410ADB205FB010083461BF0FC0008
S1131BE0BBEB000080465FFA88F8B8F1000F03D021
S1131BF05FEA9B0B5FEA8B0B002082461FFA89F990
S1131C005FFA88F8D8F10400814502DA48460400F6
S1131C1002E0D8F1040004001FFA89F9B9F1000FB9
S1131C2052D00422594603A801F09AFCE4B22200DF
S1131C30DFF88C050068BDF83C100C23594340586C
S1131C40BDF80410ADB2694308441FFA8AFA00EBE8
S1131C500A0104A801F084FC0020070038002100D8
S1131C60C9B280B289B288420BD204A8BFB2C05DA7
S1131C7003A95FFA88F801F808007F1C18F101082D
S1131C80ECE7DFF860090068009003AB04225946D2
S1131C90DFF8D40501F068FB002813D1E4B2B9EBF6
S1131CA004095AFA84FA1BF1040B002080461FFA37
S1131CB089F9B9F1040F02DB04200400ACE74846BB
S1131CC00400A9E70C2076E0BDF80400DFF824182E
S1131CD0BDF8082021F81200BDF80800401C10F0DF
S1131CE03F00ADF80800BDF80400401CADF8040046
S1131CF054E755208DF820000E98B0F80100ADF897
S1131D0021000020ADF823002C480078411C022259
S1131D101A9891FBF2F302FB131118225143DFF8D6
S1131D20C0285158401AADF8250055208DF82700D9
S1131D30DFF8B0080068009008AB08221099DFF8BB
S1131D40280501F011FB002833D00D2033E0DFF823
S1131D5070040068BDF83C100C2251430844C0884C
S1131D600090BDF83C300E9A10991A98FFF756FB74
S1131D708DF80700C0B2002802D09DF807001AE0D1
S1131D80DFF83C040068BDF83C100C2251430844C1
S1131D90408901280DD1DFF828040068BDF83C1003
S1131DA00C22514340580E99B1F803101A9A40F886
S1131DB021209DF8070011B0BDE8F08FF8F9FF1F4E
S1131DC00000FF3F2DE9F04F89B00400DFF8F40371
S1131DD00078401C022190FBF1F201FB1200070085
S1131DE03800C0B2FFF7D6F803280CD13800C0B2CF
S1131DF0FEF7E9FF81465FFA89F9B9F1000F02D0D5
S1131E004846C0B2AAE13800C0B200F02FFADFF8A9
S1131E10D007DFF8B0130978182251430844006949
S1131E208346DFF8BC07FFB2182101FB07F14058D5
S1131E30DFF8E418096808180C3006000596DFF886
S1131E40A007FFB2182101FB07F108444068C01E37
S1131E508046DFF88C07DB49097818225143405843
S1131E60DFF8CC1C096808180C308345C0F00E81DB
S1131E7002AA5946D3480078FFF778F9DFF89408A6
S1131E800078002847D00020824600208DF8040006
S1131E90CB4800681FFA8AFA0C2101FB0AF10844B6
S1131EA000894FF6FE7188422ED0BDF80900C4495E
S1131EB009681FFA8AFA0C2202FB0AF21144098902
S1131EC088421ED1BE4800681FFA8AFA0C2101FB21
S1131ED00AF10844408901280FD1B94800681FFA63
S1131EE08AFA0C2101FB0AF14058BDF80B1050F896
S1131EF0210000F057FB002806D001208DF80400D3
S1131F0002E01AF1010AC3E79DF80400002802D197
S1131F10BBF1080B9DE7BDF8090001F0B9F8050015
S1131F209DF808009DF80F10884211D1ADB24FF60C
S1131F30FF7085420CD02800210080B289B288420B
S1131F4006D002A93800C0B2FFF7F8F9002802D081
S1131F50BBF1080B7DE79DF80800AA2806D09DF880
S1131F600800552802D0BBF1080B72E794480068BA
S1131F70ADB20C2101FB05F108444089012811D1BF
S1131F808F480068ADB20C2101FB05F14058BDF843
S1131F900B1050F8210000F005FB002802D1BBF122
S1131FA0080B56E7280080B2FFF78EFBB8EB000061
S1131FB0804683480068ADB20C2101FB05F108445A
S1131FC080887F490968ADB20C2202FB05F21144F6
S1131FD0C98848430490DFF83C07007800282CD0D7
S1131FE006A977480068ADB20C2202FB05F2104442
S1131FF0008900F081FA00281FD0BDF81E00704946
S11320000968ADB20C2202FB05F21144C98888426A
S113201001D01B20A2E0BDF81C0069490968ADB2DB
S11320200C2202FB05F211448988884205D2BDF8CE
S11320301C00BDF81E10484304909DF80800552864
S113204010D1049880B200902B009BB202AA3100F8
S11320504046FFF7E3F98146C0B2002812D0484653
S1132060C0B27BE0CDF8008033002A0092B202A90E
S11320705846FFF789FB8146C0B2002802D0484683
S1132080C0B26BE00836BBF1080BE2E64D480078BD
S1132090DFF8A01A4870DFF848054A490978182281
S11320A051434058DFF88C1A48600120DFF8841A45
S11320B00870444807700598864214D1DFF8780AFE
S11320C0DFF81C153F4A127818235A43114408615B
S11320D0DFF8640ADFF808153A4A127818235A43DD
S11320E01144486109E0B6F10800DFF8F414354AF8
S11320F0127818235A4311440861DFF8E404314983
S113210009781822514308440069DFF8D4142D4A91
S1132110127818235A4311444861DFF8200A0068F2
S1132120411C2848007800F01CF8002806D1DFF88C
S11321300C0A0068401CDFF8041A0860DFF8D405B4
S11321400078002809D0012000F018F9DFF8E01920
S113215008600020DFF8BC150870002009B0BDE855
S1132160F08F13B50400DFF87C040068009001AB25
S11321700422DFF86C04E4B2182101FB04F1415895
S1132180394801F0F1F8002817D1DFF85804006845
S1132190009001AB0422DFF84804E4B2182101FBEB
S11321A004F108444068C11E2F4801F0DDF80028FE
S11321B001D1002002E0012000E0012016BD000052
S11321C09C050020F8F9FF1F70B50400032514F1E5
S11321D0020F02D10120040000E0641C2800451E07
S11321E0C0B2002823D0DFF8FC030368DFF8F00353
S11321F0C268DFF8EC0301681B4801F04BF90600E4
S1132200DFF8E0030368DFF8D803426ADFF8D0039D
S11322108169154801F03EF906000020FEF7BAFE78
S11322200028DBD10120FEF7B5FE0028D6D121001D
S11322300020FFF796FF002813D10020DFF80019D3
S11322400870DFF8FC08007800F010F8012000F0B6
S113225095F8DFF8DC180860DFF8E0080460002077
S113226000E0132070BD0000C404002070B584B0E9
S11322700400DFF8D0080068002801D100207BE0CA
S1132280DFF8C4080290D648E4B2182101FB04F137
S11322904058001D0600D3480068009002AB042299
S11322A03100DFF8E80D01F05FF8002801D00020CC
S11322B062E000200500361DDFF888080068ADB232
S11322C00C2101FB05F1084400894FF6FE71884298
S11322D043D0DFF870080068ADB20C2101FB05F1B2
S11322E008440089000400F57F40FF300190BD4898
S11322F00068009001AB04223100DFF8900D01F07A
S113230033F8002801D0002036E0361DDFF8340809
S11323100068ADB20C2101FB05F10844808800047B
S1132320DFF820180968ADB20C2202FB05F2114453
S1132330C98810FA81F00190AA480068009001ABA6
S113234004223100DFF8440D01F00EF8002801D01A
S1132350002011E0361D6D1CAEE7A2480068009015
S113236002AB04223100DFF8240D00F0FDFF002849
S113237001D0002000E0012004B070BD2DE9F0413F
S113238082B0040000260020009000270020804630
S1132390E4B2002C11D1DFF8AC070068BFB20C2105
S11323A001FB07F1084400894FF6FE71884202D010
S11323B008367F1CEFE7300036E08948DFF88017E5
S11323C00978182251434058001D050004222900B1
S11323D0684601F0C5F80098DFF86C17884201D010
S11323E0002021E02D1D04222900684601F0B8F8E0
S11323F00098DFF85417884202D1012080460BE090
S1132400361D2D1D7648DFF83817097818225143F8
S1132410084440688542E6D35FFA88F8B8F1000FB3
S113242001D0300000E00020BDE8F681F8B56C482A
S1132430DFF80C170978182251434058083005007A
S1132440DFF8EC06006840190600042229006846FB
S113245001F086F80020070000200400DFF8E406FD
S11324600068A4B20C2101FB04F1084400894FF672
S1132470FE71884214D00098DFF8C8160968A4B227
S11324800C2202FB04F211440989090401F57F417D
S1132490FF31884202D10120070001E0641CDDE71E
S11324A0FFB2002F01D1012023E02D1D04222900B9
S11324B0684601F055F80098DFF888160968A4B258
S11324C00C2202FB04F2114489880904DFF8742603
S11324D01268A4B20C2303FB04F31A44D28811FA41
S11324E082F1884201D0012003E02D1DB542ACD316
S11324F00020F2BD18F0FF1F70B582B004000D007B
S1132500002028603648DFF838160978182251432D
S11325104058001D060004223100684601F020F8EE
S11325200098DFF82416884208D00020A8800020F4
S1132530E8804FF6FF702881002032E0361D042227
S11325403100684601F00CF80098DFF8FC15884269
S11325501DD00098000CA4B2A0420DD1361D042257
S11325603100684600F0FCFF0098000CA880009839
S1132570E8802C81012014E008361948DFF8C015E2
S1132580097818225143084440688642D7D3002072
S113259028600020A8800020E8804FF6FF70288182
S11325A0002076BD010000200200D2B2022A14DA13
S11325B00B48D2B2182303FB02F3C05881420AD35A
S11325C00748D2B2182303FB02F318444068884238
S11325D001D3012002E0521CE7E70020704700000D
S11325E03CF5FF1F34F9FF1FF0B402000023DFF8AD
S11325F0540500689BB20C2404FB03F420440089B6
S11326004FF6FE74A04200F08180DFF838050068C0
S11326109BB20C2404FB03F42044408901282AD1F2
S1132620DFF8200500689BB20C2505FB03F545592E
S1132630002004002000C0B2DFF8086536689BB2B1
S11326400C2707FB03F73E44B68880B2B0425BD246
S1132650AA420DD1DFF8EC0400689BB20C2606FBFD
S113266003F6304400890880E4B24C8000204EE038
S11326702D1D641CDEE7DFF8CC0400689BB20C243B
S113268004FB03F4005982423ED3DFF8B804006827
S11326909BB20C2404FB03F40059DFF8A84424681B
S11326A09BB20C2505FB03F52C44E488DFF8945415
S11326B02D689BB20C2606FB03F63544AD886C43AB
S11326C02044824220D2DFF87C0400689BB20C24B0
S11326D004FB03F4204400890880DFF868040068E0
S11326E09BB20C2404FB03F40059101ADFF8544481
S11326F024689BB20C2505FB03F52C44E488B0FB4D
S1132700F4F04880002002E05B1C70E70620F0BC77
S113271070470000FAF9FF1F50F9FF1F2DE9F04F31
S113272089B00400208800F0B3FC80461FFA88F8C2
S11327304FF6FF70804501D10920F6E1DFF804046B
S113274000681FFA88F80C2101FB08F1084440894D
S1132750012801D1002020712079002817D0DFF84A
S1132760E40300681FFA88F80C2101FB08F108440F
S1132770C088DFF8D01309681FFA88F80C2202FB1E
S113278008F21144898848438146CA460BE0DFF8C1
S1132790B40300681FFA88F80C2101FB08F108440F
S11327A0C0888146CA46DFF89C0300681FFA88F88F
S11327B00C2101FB08F108444089012810D1DFF8FD
S11327C0840300681FFA88F80C2101FB08F14058C3
S11327D0618850F82100002802D100208146CA46B1
S11327E004A8FEF7EFFC19F003008DF805009DF82E
S11327F00500002805D09DF80500D0F104005AFA20
S113280080FA1AF108000600049816F108018842BB
S11328100AD24FF6FF70DFF8F01A08800120DFF8C3
S1132820EC1A0870112080E1DFF8E40AC449097841
S113283018225143084400698346BF48834555D153
S1132840DFF8CC0ABE49097818225143084440688D
S1132850001FB0EB0A00401C05002079002806D0B8
S113286055208DF8080055208DF80F0005E0AA20AA
S11328708DF80800AA208DF80F00B24800681FFAEE
S113288088F80C2101FB08F108440089ADF809001F
S11328906088ADF80B00DFF8780AA9490978182296
S11328A0514308444068DFF8681AA54A127818238F
S11328B05A438958401AB0EB0A00C01EADF80D0007
S11328C0DFF84C0A9E490978182251434058984928
S11328D0096808180C308346DFF8340A98490978E7
S11328E0182251430844C0F814B058E002AA5946CB
S11328F093480078FEF73AFC06AADFF8140A9049D8
S1132900097818235943084441698D480078FEF733
S11329102DFCDFF8FC098A490978182251434058F4
S1132920BDF81D1010FA81F005900598B0EB0A006F
S113293005002079002806D055208DF80800552080
S11329408DF80F0005E0AA208DF80800AA208DF864
S11329500F007C4800681FFA88F80C2101FB08F17D
S113296008440089ADF809006088ADF80B00DFF871
S1132970A00973490978182251434058281AADF820
S11329800D001BF1080BBAF1000F08D0DFF8800925
S11329906B490978182251430844C0F814B0002048
S11329A08DF8040016F10800049988420FD25146AC
S11329B02800FEF77BFC002806D10498B0EB0A003F
S11329C00490B5EB0A05EDE701208DF80400DFF86B
S11329D040095B490978182251434058281ABDF828
S11329E00D10884209D0DFF82809554909781822C2
S11329F051434058281AADF80D009DF804000028F2
S1132A0000F089804F4800681FFA88F80C2101FB08
S1132A1008F10844408901280CD14A4800681FFA8B
S1132A2088F80C2101FB08F14058618850F8210016
S1132A30070019E02079002809D0424800681FFAED
S1132A4088F80C2101FB08F1405807000CE03D48D0
S1132A5000681FFA88F80C2101FB08F140586188CE
S1132A6009FB01F108440700002F0AD03748006829
S1132A7000903B004A462900DFF8100600F074FC81
S1132A8000E00020002844D1002F02D10020ADF83E
S1132A900D002E480068009002AB08225946DFF86A
S1132AA0EC0500F061FC002831D1DFF8640824490A
S1132AB00978182251430844C0F810B0214800682E
S1132AC01FFA88F80C2101FB08F108444089012809
S1132AD01BD1BDF80D00002817D01A4800681FFA52
S1132AE088F80C2101FB08F14058618850F8210056
S1132AF001F06FFA134800681FFA88F80C2101FBF3
S1132B0008F14058618840F8215000200DE00D2064
S1132B100BE00C2009E04FF6FF70DFF8EC1708809B
S1132B200120DFF8E8170870112009B0BDE8F08F24
S1132B3054F9FF1FE0F8FF1F0000FF3F4CF9FF1F8F
S1132B40F8F9FF1F9C0500203C54423E34F9FF1F56
S1132B502DE9F04F85B00400DFF8B407DFF8B417AF
S1132B60097818225143084400698346DFF8A8070E
S1132B70834501D10A2085E220884FF6FF718842FF
S1132B8001D109207EE2208800F082FA82461FFAF1
S1132B908AFA4FF6FF70824501D1092072E20020C3
S1132BA08DF80C005FF0FF3002900B2081462079F5
S1132BB0002800F06881DFF8640700681FFA8AFAC9
S1132BC00C2101FB0AF1084480880600002007005C
S1132BD0DFF83C07DFF83C170978182251434058C6
S1132BE0DFF83C17096808180C30834569D36A4636
S1132BF05946DFF820070078FEF7B8FA9DF8000080
S1132C009DF80710884202D0BBF1080BE0E7BDF83D
S1132C1001002188884251D19DF80000AA2817D1CB
S1132C2001208DF80C00BDF80300310089B2884200
S1132C3002D2BDF8030006003800BDF8031080B2CC
S1132C40884202D2BDF803000700BBF1080BBFE7BE
S1132C509DF80000552831D1DFF8C00600681FFA3E
S1132C608AFA0C2101FB0AF108448088DFF8AC16CB
S1132C7009681FFA8AFA0C2202FB0AF21144C98875
S1132C8001FB00F2DFF88806DFF8881609781823BC
S1132C9059434058BDF8051010FA81F1DFF87C065D
S1132CA000681FFA8AFA0C2303FB0AF3C05800F0E9
S1132CB057FCCDF808B00020814602E0BBF1080BB8
S1132CC086E79DF80C00002800F0C180029810F1FE
S1132CD0010F0ED1DFF83806DFF83816097818220C
S1132CE051434058DFF83816096808180C300500BD
S1132CF002E0029808300500B0463800414680B230
S1132D0089B28842C0F0A380DFF80406DFF8041615
S1132D10097818225143084400698346AB45C0F042
S1132D2093806A465946DFF8EC050078FEF71EFAF0
S1132D309DF800009DF80710884202D0BBF1080BF3
S1132D40ECE79DF80000552802D1BBF1080BE5E73C
S1132D50BDF801002188884273D14046BDF80310B4
S1132D6080B288426DD1DFF8B40500681FFA8AFA90
S1132D700C2101FB0AF10844408901282BD1BDF83C
S1132D80050000280ED1DFF8940500681FFA8AFABE
S1132D900C2101FB0AF140581FFA88F8002140F881
S1132DA028104BE0DFF8740500681FFA8AFA0C213A
S1132DB001FB0AF140581FFA88F8DFF85415DFF8D0
S1132DC05425127818235A438958BDF80520114414
S1132DD040F8281032E0DFF8440500681FFA8AFA48
S1132DE00C2101FB0AF10844C288DFF82405DFF84E
S1132DF024150978182359434058BDF8051010FAD2
S1132E0081F1DFF8180500681FFA8AFA0C2303FB26
S1132E100AF3C058BDF80330DFF800C5DCF800C081
S1132E201FFA8AFA5FF00C0E0EFB0AFEF444BCF89B
S1132E3006C00CFB03F3184400F092FB002081460B
S1132E4002E0BBF1080B69E718F1010855E75FFAE6
S1132E5089F9B9F1000F13D10020DFF8C8141FFA63
S1132E608AFA062202FB0AF288544FF48070DFF8D3
S1132E70B4141FFA8AFA062202FB0AF2114488806B
S1132E804846C0B2FEE0DFF88804DFF88814097809
S1132E90182251434058DFF88814096808180C3088
S1132EA08345C0F0D4806A465946DFF86804007848
S1132EB0FEF75CF99DF800009DF80710884202D0E7
S1132EC0BBF1080BDFE7BDF801002188884240F020
S1132ED0BB809DF80000AA286DD1DFF8400400688B
S1132EE01FFA8AFA0C2101FB0AF1084440890128DF
S1132EF02BD1BDF8050000280DD1DFF820040068AF
S1132F001FFA8AFA0C2101FB0AF140586188002259
S1132F1040F821204CE0DFF8040400681FFA8AFA24
S1132F200C2101FB0AF140586188DFF8E423DFF843
S1132F30E4331B785FF0180C0CFB03F3D258BDF894
S1132F4005301A4440F8212032E0DFF8D00300684D
S1132F501FFA8AFA0C2101FB0AF10844C288DFF83F
S1132F60B003DFF8B0130978182359434058BDF86B
S1132F70051010FA81F1DFF8A40300681FFA8AFA39
S1132F800C2303FB0AF3C058BDF80330DFF88CC3ED
S1132F90DCF800C01FFA8AFA5FF00C0E0EFB0AFE82
S1132FA0F444BCF806C00CFB03F3184400F0D8FA50
S1132FB0002081464BE09DF80000552844D1DFF8FD
S1132FC05C0300681FFA8AFA0C2101FB0AF1084429
S1132FD0C288DFF83C03DFF83C130978182359430F
S1132FE04058BDF8051010FA81F0BDF80310DFF861
S1132FF02C331B681FFA8AFA5FF00C0C0CFB0AFCDA
S11330006344DB8803FB0101DFF8100300681FFA47
S11330108AFA0C2303FB0AF3C058BDF80330DFF827
S1133020FCC2DCF800C01FFA8AFA5FF00C0E0EFB3B
S11330300AFEF444BCF806C00CFB03F3184400F089
S11330408FFA0020814602E0BBF1080B1BE75FFA10
S113305089F9B9F1000F13D10020DFF8C8121FFA63
S11330608AFA062202FB0AF288544FF48070DFF8D1
S1133070B4121FFA8AFA062202FB0AF2114488806B
S11330804846C0B205B0BDE8F08F0000C40400207B
S113309001000022DFF88402006892B20C2303FBD3
S11330A002F3184400894FF6FE73984211D0DFF8FA
S11330B06C02006892B20C2303FB02F318440089EB
S11330C00B009BB2984202D1100080B203E0521C64
S11330D0E0E74FF6FF7070477CB50400DFF8480264
S11330E090F8C200002812D168462100062201F09F
S11330F08BF9DDE900010A000100DFF82C02FDF77D
S113310003FE002801D0002072E0172070E00020A8
S11331100600DFF8140290F8C00005002800DFF86C
S1133120081291F8C110C0B288424AD02088DFF852
S1133130F811EDB2062202FB05F2895A88423CD10D
S1133140DFF8E401EDB2062101FB05F10844007942
S1133150012802D10120060033E0207901280BD197
S11331600120DFF8C411EDB2062202FB05F211447E
S113317008710120060024E06088DFF8AC11EDB28C
S1133180062202FB05F211444988884202D101203B
S1133190060016E068462100062201F035F9DDE953
S11331A000010A000100DFF88001FDF7ADFD0028F1
S11331B001D000201CE017201AE0681C10F01F0545
S11331C0ACE7F6B2002E12D168462100062201F0C7
S11331D01BF9DDE900010A000100DFF84C01FDF7ED
S11331E093FD002801D0002002E0172000E0002019
S11331F076BD01214D4A1170704738B504000D00A9
S1133200684601F051F920002900C0B2C9B28842D1
S113321002D32000C0B20BE0EDB2E4B2281B401C84
S113322000990919009AB2FBF0F200FB1210C0B227
S113323032BD10B5FDF76FFB0400E4B2002C02D0E0
S11332402000C0B20AE03A4800F098FF002804D0F9
S11332500020384908701D2000E0002010BD38B55A
S113326004005FF0FF31324800F09BFF2000FDF7BF
S113327099FC05002E4800F0ECFF2800C0B232BDD6
S113328038B504005FF0FF31294800F08AFF2000C0
S1133290FDF7E6FC0500264800F0DBFF2800C0B27D
S11332A032BD80B55FF0FF31214800F07AFFFDF7B1
S11332B0ACF91F4800F0CDFF01BD10B55FF0FF3140
S11332C01B4800F06EFFFDF732F90400184800F0C7
S11332D0C0FF2000C0B210BDF8B504000D001600F8
S11332E05FF0FF31124800F05CFF3200D2B22900D7
S11332F0C9B22000FDF78CF807000D4800F0A9FFC3
S11333003800C0B2F2BD0000DCF9FF1FF9F9FF1F5D
S11333103CF5FF1FF8F9FF1F0000FF3F9C0500204C
S113332054F9FF1FBCECFF1FF8EBFF1FFDF9FF1F53
S113333050F6FF1FFBF9FF1F80B5074800680028FF
S113334009D1064801F0C8F8054A4021054801F0B2
S1133350CAF80149086001BD34F9FF1FC404002004
S11333608336000094F3FF1F2DE9F04F83B004006F
S11333700D0093461E000C9F15F003081FFA88F8F1
S1133380B8F1000F3BD0D8F1040A1FFA8AFAD345EA
S113339001D25846824604221FFA88F8B5EB080188
S11333A001A800F0DDF81FFA8AFA5246310001A89C
S11333B01FFA88F8404400F0D3F8012000F0E8FF39
S11333C0009701AB04221FFA88F8B5EB080120002E
S11333D001F0A3F88146012000F0E5FFB9F1000FE8
S11333E001D0484654E01FFA88F8D8F10400451982
S11333F01FFA8AFA56441FFA8AFABBEB0A0B4FF6F5
S1133400FC7010EA0B0080461FFA88F8B8F1000F30
S11334101DD0012000F0BCFF009733001FFA88F88C
S113342042462900200001F078F88146012000F08E
S1133430BAFFB9F1000F01D0484629E015FA88F522
S11334401FFA88F846441FFA88F8BBEB080BBBF157
S1133450000F1CD00422290001A800F081F85A466C
S1133460310001A800F07CF8012000F091FF0097E2
S113347001AB04222900200001F04FF8814601200D
S113348000F091FFB9F1000F01D0484600E00020A0
S1133490BDE8FE8F2DE9F04104000D0016001F0069
S11334A0012000F075FF3B0032002900200001F0EC
S11334B093F88046012000F076FF4046BDE8F08195
S11334C02DE9F04704008A4615001E00089F5FF0AE
S11334D0000860688146CA4507D3A06810EB09005C
S11334E0824502D2BAEB090A01E020208046B8F1F5
S11334F0000F32D120688146312089F8000020680D
S1133500C01D8146012089F800002068801D814685
S11335105FEA1A4089F800002068401D81465FEA8E
S11335201A2089F800002068001D814689F800A04F
S113353020680B308146280080B2000A89F8000018
S113354020680A30814689F8005020680930814695
S113355089F800602000B84780464046BDE8F087FF
S1133560002A05D00B780370401C491C521EF7E753
S113357070472DE9F0418C4686460B0004000D008F
S11335800600042A30D388465FEAC8780CD58C46F6
S113359086469CF800808EF800801CF1010C1EF118
S11335A0010E61467046521E88465FEA88780AD545
S11335B00B000400B3F80080A4F800809B1CA41C3A
S11335C019002000921E0D0006005FEA920847468B
S11335D0002F07D0D5F80080C6F800802D1D361DB9
S11335E07F1EF5E7290030005FEA827809D50B00D9
S11335F00400B3F80080A4F800809B1CA41C1900EC
S113360020005FEAC27803D591F8008080F800803A
S1133610BDE8F081002A09D01044401E002A05D0DC
S11336200B780370401E491C521EF7E7704710B414
S11336300300002A09D018780C78A04201D0002099
S113364004E0491C5B1C521EF3E7012010BC7047C8
S1133650002A02D0521E8154FAE7704788420FD0E4
S1133660884207D2002A0BD00B780370401C491CF7
S1133670521EF7E7002A03D0521E8B5C8354F9E7ED
S1133680704770B5040020680600307850F0800060
S11336903070206806003078000607D4206A5FF096
S11336A0FF318842F7D0206A8047F4E7206806009B
S11336B0307810F031000500280070BD00687047B4
S11336C00022031D1A600160704710F108021160A6
S11336D07047083000687047001D006880B270476A
S11336E0021D1268120C120489B20A43031D1A60E7
S11336F07047C9B2DFF8BC2712EB40121160704763
S1133700C9B2DFF8B42712EB401211607047DFF83A
S1133710AC17C0B2085C10F0E0007047DFF89C27DB
S1133720C0B2125C12F01F020A43DFF89037C0B235
S11337301A547047DFF88417C0B2085C10F01F00F9
S11337407047DFF87827C0B2125C12F0E0020A4337
S1133750DFF86837C0B21A54704710B5DFF8600755
S1133760046800212000FFF7CBFF2000FFF7B1FF22
S113377001002000FFF7A9FFDFF8480700680028D0
S113378006D0DFF844070068DFF83817096888476F
S113379010BD00B5DFF834170968A1FB00014FF430
S11337A07A72002300F066FF00BD10B586B00FF2F8
S11337B0D50001F004F901F063F9DFF8101708608F
S11337C04FF6FF740820FFF7E4FF201ADFF8001714
S11337D008800420FFF7DDFFDFF8F81608600021F9
S11337E0DFF8F40600F060FD0400E4B2002C06D01B
S11337F000230022DFF8E416002001F099F904A860
S11338000390002002900020019002200090DFF835
S1133810D0364FF48062DFF8CC160FF2192000F096
S11338200BFC0400E4B2002C06D000230022DFF8D5
S1133830AC16002001F07CF906B010BD10B50020D4
S11338400400132C0ED2DFF87406005D002807D1A3
S113385080212000C0B2FFF761FF2000C0B202E067
S1133860641CEEE7FF2010BD10B504002000C0B2B8
S113387000F092F80020DFF84416E4B2085510BDB9
S11338800000000080B501F01CF95FF48031DFF81E
S1133890480600F06FFD01BD10B504002000C0B261
S11338A0FFF735FF202801D1012000E00020C0B23D
S11338B010BD2DE9F84304000D0016001F00DDF8CB
S11338C02080E4B2132C05DADFF8F005E4B2005DE1
S11338D0002800D142E02000C0B200F05DF83000C2
S11338E0FFF757FF814601F0DCF8DFF80016E4B279
S11338F0142202FB04F211448860B9F1000F01D1D3
S1133900012081462900C9B22000C0B2FFF719FF87
S1133910DFF8D805E4B2142101FB04F140F801906A
S1133920DFF8C805E4B2142101FB04F10844C0F82F
S11339300490DFF8B805E4B2142101FB04F1084453
S1133940C760DFF8A805E4B2142101FB04F10844C0
S1133950C0F810802000C0B200F0CFF9BDE8F183B8
S1133960F8B504000D0016001F00009733002A006C
S113397002212000C0B2FFF79CFFF1BDF8B504009E
S11339800D0016001F00009733002A0001212000BB
S1133990C0B2FFF78EFFF1BD38B50400E4B2132CBA
S11339A005DADFF81805E4B2005D002800D140E034
S11339B0012000F0EDFC2000C0B2FFF7A8FE0500D6
S11339C0EDB2202D02D0EDB2402D2FD18021200068
S11339D0C0B2FFF7A3FE2000C0B2FFF7ABFEC006E3
S11339E00AD5DFF80C050078401EDFF804150870CE
S11339F0DFF8FC04007809E0DFF8EC040078401EEE
S1133A00DFF8E4140870DFF8E0040078DFF8D80485
S1133A10007800280AD1DFF8D8040078002805D1FE
S1133A205FF48031DFF8B00400F0A4FC012000F062
S1133A30BAFC31BD2DE9F14F82B001A800905FF0CE
S1133A40FF3300227FF07F41DFF88C0400F040FC5C
S1133A50012000F09DFC01F024F80500012000F095
S1133A60A2FCDFF890040088281A0600DFF884041A
S1133A700580DFF85C0400880400002082465FFAB9
S1133A808AFABAF1130F80F0E7805046C0B2FFF70C
S1133A9051FE8346012000F07BFC5046C0B2FFF784
S1133AA036FE81465FFA89F9B9F1400F1ED1202113
S1133AB05046C0B2FFF732FE012000F074FCDFF87C
S1133AC02C045FFA8AFA142101FB0AF108444068C5
S1133AD0A4B2A04209D2DFF814045FFA8AFA1421CE
S1133AE001FB0AF1084440680400B2E0012000F040
S1133AF05AFC5FFA89F9B9F1200F40F0AA80B6B2F6
S1133B00DFF8E8035FFA8AFA142101FB0AF108449A
S1133B10406886423BD2012000F03AFCDFF8CC0337
S1133B205FFA8AFA142101FB0AF108444068B6B22C
S1133B30801BDFF8B8135FFA8AFA142202FB0AF238
S1133B401144486000F0ADFFDFF8A0135FFA8AFA71
S1133B50142202FB0AF211448860012000F023FCC5
S1133B60DFF888035FFA8AFA142101FB0AF108449A
S1133B704068A4B2A04209D2DFF870035FFA8AFA5F
S1133B80142101FB0AF108444068040061E00D219E
S1133B901BEA010F0ED00020DFF850135FFA8AFAF7
S1133BA0142202FB0AF2114448605046C0B2FFF7E7
S1133BB0F3FE37E0012000F0EBFBDFF830035FFA9F
S1133BC08AFA142101FB0AF14058DFF820135FFA46
S1133BD08AFA142202FB0AF21144486000F061FFE1
S1133BE0DFF808135FFA8AFA142202FB0AF211447E
S1133BF08860DFF8F8025FFA8AFA142101FB0AF1FF
S1133C0008444068A4B2A04209D2DFF8E0025FFA97
S1133C108AFA142101FB0AF10844406804000120D7
S1133C2000F0C1FBDFF8C4025FFA8AFA142101FB39
S1133C300AF10844C06880464046002809D0DFF8ED
S1133C40AC025FFA8AFA142101FB0AF10844006904
S1133C50C0471AF1010A12E7012000F099FB00F0B5
S1133C6020FF07007F1B3800210080B289B2884200
S1133C7005D3DFF860020068C01904000CE0A4B2A8
S1133C80BFB2E01BDFF84C120968884204D2DFF8A7
S1133C9044020068C01904002C19DFF84C020078B3
S1133CA0002804D1DFF84802007800280FD0A4B21D
S1133CB0200000F0FCFEDFF840020078002811D15B
S1133CC000F0D0FE0120DFF8301208700AE0DFF8BF
S1133CD028020078002805D000F0CBFE0020DFF891
S1133CE018120870012000F05EFBDFF81002007863
S1133CF000287FF4A2AEBDE8F78F10B504000120C0
S1133D0000F046FB2000C0B2FFF701FD802825D15A
S1133D102000C0B2FFF70EFDC0060AD5DFF8D001BF
S1133D200078401CDFF8C8110870DFF8C40100787F
S1133D3009E0DFF8B4010078401CDFF8AC1108702A
S1133D40DFF8A401007840212000C0B2FFF7E6FCB0
S1133D505FF48031DFF8800100F00CFB012000F0FB
S1133D6022FB10BD80B500F005F801BD80B500F060
S1133D703DF804BD10B552480468012000F008FB6A
S1133D805F480078002803D0012000F00CFB2CE0F1
S1133D9001205B490870002000F03CFF59495A4853
S1133DA090F9000000F00AFB00200021574AC2E904
S1133DB00001002056490880002042490860002084
S1133DC04149086000212000FFF79AFC01212000EE
S1133DD0FFF776FC00212000FFF782FC0121200080
S1133DE0FFF787FC012000F0DEFA10BD2DE9F04F4B
S1133DF087B03348D0F800A0012000F0C9FA434846
S1133E00D0E90001CDE90201414800880021CDE953
S1133E1000015046FFF760FC83465046FFF74EFC16
S1133E2004005046FFF758FC06005046FFF746FCD6
S1133E3007005046FFF750FC0500012000F0B3FADC
S1133E405FEA4B4B5FEA5B4B641E7604760C7F1E85
S1133E506D046D0CBC4202D03C002E0002E0AE4268
S1133E6000D05E4630000021DDE9002382184B417A
S1133E7020000021C90341EA5041C00312184B41FC
S1133E8043F609500021A0FB028900FB039901FBC2
S1133E9002995FEA582848EAC9585FEA5929CDE9E6
S1133EA00489DDE90423DDE902011018594107B052
S1133EB0BDE8F08F9002004288030042D8F7FF1F4C
S1133EC0B4A70200B0F9FF1FB4F9FF1FACF9FF1F3C
S1133ED0ECF9FF1FA8F9FF1F0CF6FF1FAB3700001A
S1133EE04025002054A5020008FAFF1F40E4FF1FEC
S1133EF009FAFF1FEAF9FF1F0AFAFF1FA2E80000F0
S1133F000BFAFF1F5B370000D226010000F9FF1FE8
S1133F10EEF9FF1FF8B5434C434D444E002044498D
S1133F20088060880700FFB23900280000F0AAFE6C
S1133F30FFB2002F0FD03100280000F0ADFEF56075
S1133F403B480088401C3A4908802088304410F1DE
S1133F5010067F1EECE72088E881A088A881A88944
S1133F60002801D1002002E01035241DD9E7F2BD5C
S1133F7070B504002C4D012000F00AFA002C1DD06D
S1133F80E889A04215D3280000F0D4FE0600002ED4
S1133F900AD0103626480088401E25490880012092
S1133FA000F001FA300013E0A889A04206D3A889E2
S1133FB00400A889002801D01035DFE7002300227F
S1133FC01C49002000F0B4FD012000F0ECF90020B1
S1133FD070BD70B50400002C01D1032020E0012045
S1133FE000F0D6F954F8045C0F4EB5420ED11048D7
S1133FF00088401C0E490880B4F11001280000F02C
S11340004BFE012000F0CFF9002009E0B089002820
S113401004D1012000F0C7F9032001E01036E4E7E1
S113402070BD00000805002088F1FF1F0080FF1FFD
S1134030DAF9FF1F713F00002DE9F04788B0050051
S11340408A4616001F00109CDDF84480DDF84C9071
S113405000A8202100F0F8FE0095B6B20196B6B291
S1134060002E01D1002000E038000290A4B2E01D2F
S11340700390CDF8188000A801F04BFAC9F80000AD
S1134080D9F80000002801D0002000E0012008B089
S1134090BDE8F08780B5002001F06DF800F0CAFF9C
S11340A002BD10B582B0040000A9200000F0C9FFD1
S11340B00098C01F80B216BD38B504000D0000AAD8
S11340C0ADB2E91D200000F0CCFF002801D1002092
S11340D000E0012032BD10B5040014F1010F01D13C
S11340E000200DE001F048FB00FB04F004004FF455
S11340F07A70B4FBF0F4002C01D1012004002000FC
S113410010BD38B504000D00EDB22900200001F007
S1134110EEFB002801D1002000E00120C0B232BD36
S113412070B504000D00002D09D1200001F0E9FB59
S1134130002801D0002000E00220C0B211E02800D5
S1134140FFF7C9FF05002900200001F07AFC0600F2
S1134150002E01D1002004E0372E01D1022000E01E
S1134160012070BD10B50400200001F0DEFB002822
S113417001D1002000E00120C0B210BD10B5040040
S1134180002C01D101200BE00020E061012120007E
S113419001F0ADFB002801D1002000E00120C0B2F5
S11341A010BD2DE9F04104000D00012700F0DCFFF3
S11341B08046B8F1000F09D140F22D12DFF8281221
S11341C0DFF8280201F092FCAFF30080002C01D14B
S11341D001203CE0E069404501D1012037E0002D99
S11341E00AD101F0B1FC200001F08BFB002801D0C2
S11341F000261DE037261BE015F1010F06D101F062
S1134200A3FC200001F0C9FB060011E02800FFF721
S113421062FF050001F098FC002D05D02900200064
S113422001F00FFC060003E0200001F0B6FB0600DD
S1134230002E04D1C4F81C800020070003E0372EB0
S113424001D10220070001F08FFC3800C0B2BDE8A4
S1134250F08170B50400012500F086FF0600002EF1
S113426007D14FF4B7726049604801F03FFCAFF3E7
S11342700080002C01D1012015E0E069B04201D09A
S1134280012010E001F060FC0020E061200001F05A
S11342904CFB002802D10020050000E0E66101F09B
S11342A063FC2800C0B270BD70B504000D00EDB20F
S11342B0002D01D1012100E00021200001F00CFDBE
S11342C00600002E01D1002000E00120C0B270BD24
S11342D02DE9F84304000D0016001F00DDF82080CE
S11342E00020C8F80000002F27D101F02DFCF6B201
S11342F0002E03D0A0692840A84205D0F6B2002EB3
S113430017D1A069284214D001233200D2B2290067
S1134310200001F0D5FD814601F026FCB9F1000F23
S113432005D101F0E2FCC8F80000002020E00120E3
S11343301EE001F019FC02201AE03800FFF7CBFE62
S113434007003B003200D2B22900200001F0B8FD82
S11343508146B9F1000F05D101F0C7FCC8F800008F
S1134360002005E0B9F5447F01D1022000E00120DE
S1134370BDE8F28338B504000D002900200001F0E7
S1134380BCFC002801D1002000E00120C0B232BDF5
S113439010B50400E4B2012C02D101F0D5FB01E018
S11343A000F0C0FE10BD10B50400E4B2012C02D12F
S11343B001F0DAFB01E000F0C5FE10BD38B50400E1
S11343C00D0000222900200001F0EAFB32BD80B577
S11343D0074801F0ADFD002801D1002000E00120D4
S11343E0C0B202BD000000003093020078A50200B4
S11343F06490020080B501F075FE002801D1002010
S113440000E00120C0B202BD62B38B0708D0521E87
S113441011F8013B00F8013B00F024808B07F6D132
S1134420830740F0208000BF103A07D330B4B1E8CE
S11344303810103AA0E83810F9D230BC530724BF22
S1134440B1E80810A0E8081044BF51F8043B40F854
S1134450043BD20724BF31F8022B20F8022B44BFBF
S11344600B7803707047083A07D3B1E80810083A8C
S113447040F8043B40F804CBF7D25307E4E7036861
S11344801AB95A1E026008467047197811B94FF0DC
S1134490FF307047591C0160187870470C48006859
S11344A00C4908600020704710B50400002C0DD0A2
S11344B00848006841F2BB71484300F203500549C3
S11344C00860042203492000FFF74AF810BD0000E9
S11344D06080044070F9FF1F010000200861002083
S11344E0886100207047F0B4B2F1010C63461E00ED
S11344F007005FEA510C63465FF0000C6546ADB2FD
S11345009D4207D2B6F800C06446B61C3C80BF1C6E
S11345106D1CF4E7401CF0BC70472DE9F84F040013
S11345200D0016001F00DDF828805FF0000916F06A
S1134530030F03D04FF4005081464AE0606883467D
S11345405D4507D3A06810EB0B00854202D2B5EBA2
S11345500B0501E020208146002E3AD0B9F1000F6E
S113456037D12068834631208BF800002068C01DB5
S1134570834606208BF800002068801D8346280CA3
S11345808BF800002068401D8346280A8BF8000041
S11345902068001D83468BF80050002082465FFA95
S11345A08AFABAF1040F0DDA206850FA8AF008305A
S11345B083465FFA8AFA17F80A008BF800001AF1AA
S11345C0010AECE72000C04781462D1D361F3F1D20
S11345D0C2E74846BDE8F28F2DE9F04704008A4659
S11345E015001E00002760688146CA450AD3A068EA
S11345F010EB0900824505D2BAEB090A4FF40060BA
S1134600804603E02020070000200500B8F10100E7
S1134610054202D04FF400500700002D27D0002F90
S113462025D120688146312089F800002068C01D0A
S11346308146092089F800002068801D81465FEAD0
S11346401A4089F800002068401D81465FEA1A205C
S113465089F800002068001D814689F800A0200028
S1134660B0470700B5EB080518EB0A0AD5E7380090
S1134670BDE8F0871B4213D1094236D12AB18446E2
S1134680B0FBF2F002FB10C2704701F0A9BDFCD3ED
S11346900022002370470B00020000210020704715
S11346A0904271EB030CF6D370B5B1FA81F4B3FA0E
S11346B083F52C1BA340C4F1200532FA05F63343DD
S11346C0A2405FF00046E64002E05B085FEA320287
S11346D0841A71EB030524BF204629467641F4D39E
S11346E002000B003000002170BD012ACFD970B543
S11346F0140C20D0B1FA81F4B2FA82F5C4F120048A
S11347006419B4F12006D6D3B2405FF00044F440FB
S1134710002502E052085FEA3303C61A71EB020E69
S113472024BF3046714664416D41F3D302000B004F
S11347302000290070BD0C46B1FBF2F102FB1145CB
S11347402D0445EA1045B5FBF2F402FB145580B282
S113475040EA0545B5FBF2F002FB105240EA044082
S113476070BD8268521C8260426832B10268531C78
S1134770036011704168491E41607047012110F0C7
S11347801F029140DFF8682340B2430942F8231026
S11347907047012110F01F029140DFF8582340B206
S11347A0430942F82310704710B440B2002809D5D9
S11347B00A01DFF8443340B210F00F04234403F835
S11347C0042C04E00A01DFF8343340B21A5410BC5C
S11347D07047026832F01802C9B2CB0013F0180314
S11347E01A43026070470268D208D200C9B211F0BD
S11347F007031A4302607047006810F0070070470F
S11348000121420102F184421832116070474001D3
S113481000F1844018300068002801D0012000E035
S11348200020C0B270470021420102F184421C32D0
S113483011607047021D1268120C120489B20A43F7
S1134840031D1A607047001D006880B2704710F1A4
S113485008021268120C120489B20A4310F1080308
S11348601A60704710F14C021268120C120489B2DB
S11348700A4310F14C031A60704770B504000D0030
S11348801600EDB2082D07DB40F293129C499D48B7
S113489001F02CF9AFF30080EDB214EBC5009A4996
S11348A011EB4010F6B216F001010160EDB214EB09
S11348B0C500964911EB40113000C0B2400810F019
S11348C00100086070BD38B504000D00EDB2082D7C
S11348D007DB40F2E5128A498A4801F007F9AFF391
S11348E00080EDB214EBC500894911EB40100121A1
S11348F0016031BD38B504000D00EDB2082D07DBB1
S11349004FF4FF727E497F4801F0F0F8AFF3008066
S1134910EDB214EBC5007F4911EB4010006800288C
S113492001D0012000E00020C0B232BD70B5040007
S11349300D001600EDB2082D07DB4FF40672704926
S1134940704801F0D3F8AFF30080B6B2EDB214EBC7
S1134950C5001030066070BDC9B2002905D001221F
S11349606D4B13EB40131A6004E001226B4B13EB05
S113497040131A60704738B504000D00674810EB07
S113498044100068002807D140F2CA225C496448F8
S113499001F0ACF8AFF30080EDB2624810EB4410C4
S11349A0056031BD10F18402126852095201C9B286
S11349B011F01F031A4310F184031A60704770B595
S11349C0040059480668002001F0A1FD300001F000
S11349D0F9FD01213000FFF7CEFF07213000FFF77A
S11349E002FF00213000FFF7F4FE00213000FFF742
S11349F0D9FF00213000FFF7AFFF00213000FFF79F
S1134A0031FF00213000FFF715FF4FF6FF71300032
S1134A10FFF71DFF012200213000FFF72EFF0122C6
S1134A2000213000FFF782FF404890F900000500A4
S1134A303000FFF7E5FE00213000FFF744FF2100BE
S1134A406DB22800FFF7BAFC0821280040B2FFF736
S1134A50ABFE280040B2FFF79CFE280040B2FFF7EF
S1134A608DFE70BD80B501212F480068FFF7B1FEAF
S1134A7001BD80B500212C480068FFF7AAFE01BDE6
S1134A8010B582B06946032001F000FC2648006896
S1134A90FFF7B2FE040000980121A140B0FBF1F041
S1134AA016BD80B520480068FFF7CDFE02BD10B5E5
S1134AB00400220092B200211B480068FFF736FF71
S1134AC010BD10B51848046800212000FFF712FF3C
S1134AD0002804D000200F4911EB44110860200085
S1134AE0FFF795FE002802D02000FFF79CFE10BDC2
S1134AF000E100E080E200E018ED00E000E400E006
S1134B00948602003C970200900100429401004206
S1134B10980100429C010042980E0042880A00421B
S1134B20589B0200800A0042A8A50200B8A7020010
S1134B30F8B504000D0016001F0004B400B504BC51
S1134B40019204BC0B4804600A4845600948866029
S1134B500848C76000980749086100200549486172
S1134B600120FFF715FC0FBE00BF00BF00BF00BF50
S1134B70FDE700BFACF6FF1F012110F01F029140BA
S1134B80DFF8D82040B2430942F8231070470121CE
S1134B9010F01F029140DFF8C82040B2430942F8E8
S1134BA02310704710B5040064B2002C08D55D22B0
S1134BB0DFF8B010DFF8B00000F098FFAFF300802A
S1134BC064B2412C08DB5E22DFF89810DFF89C0009
S1134BD000F08CFFAFF30080200040B2FFF7CCFF61
S1134BE010BD10B4C9B24A0910EB8202C9B211F067
S1134BF01F039B0013EB4212DFF8743001249C5016
S1134C0010BC704710B50400BD21DFF86800FFF741
S1134C10E8FF10BD38B50400DFF85C0050F82450FC
S1134C200020FFF7EFFF280001F04EFD280001F0FF
S1134C3036FDDFF848002056FFF7A9FFDFF84000F3
S1134C402056FFF7A4FFDFF834002056FFF7AAFF31
S1134C50DFF82C002056FFF7A5FF31BD00E100E08E
S1134C6080E200E08C8A0200A8A30200C89502003A
S1134C700005024200700440B4A70200D2260100DD
S1134C80D3260100002202600022426041810022FA
S1134C90028170478068704738B504000D00012018
S1134CA0FFF776FB6089002808D060892189884253
S1134CB004D10120FFF777FB012013E020890028AD
S1134CC001D1256001E060680560606868600020CB
S1134CD02860AC6065602089401C20810120FFF7BA
S1134CE062FB002032BD38B504000D000120FFF73F
S1134CF04FFB6089002808D060892189884204D14B
S1134D000120FFF750FB012013E02089002801D186
S1134D10656001E0206845602068286000206860C4
S1134D20AC6025602089401C20810120FFF73BFBFB
S1134D30002032BD38B504000120FFF729FB002C08
S1134D4002D02089002804D10120FFF72CFB002089
S1134D5015E0206805002089401E20812089002854
S1134D6002D10020606002E00020296848602868C1
S1134D7020600020A8600120FFF715FB280032BD49
S1134D800068704710B50400A068002801D1032012
S1134D9025E00120FFF7FCFA6068002802D12068B2
S1134DA0A16808602068002802D16068A168486092
S1134DB06068002802D020686168086020680028C4
S1134DC002D0606821684860A0680089401EA1681C
S1134DD008810020A0600120FFF7E5FA002010BD43
S1134DE038B504000D00A068002801D1032028E094
S1134DF00120FFF7CDFAA068408900280AD0A068F6
S1134E004089A1680989884204D10120FFF7CBFABF
S1134E10012016E06068002802D1A068056001E066
S1134E2060680560A068A860A0680089401CA1684B
S1134E3008812C606068686065600120FFF7B3FA40
S1134E40002032BD00897047002201F069BC02686D
S1134E50531C0360117070472DE9F34F83B0DFF8E2
S1134E60000800688246039800280CD00398000CC0
S1134E70ADF80200BDF80200DAF8041289B28842E3
S1134E8001D01220CCE0039800F075F98346BBF101
S1134E90000F03D01AF15000834501D11220BFE066
S1134EA01AF5927000F079FD00F04EFEDBF8080070
S1134EB0092807D100F058FE1AF5927000F035FD6C
S1134EC00020ADE0DBF8080002280CD1DAF81C0061
S1134ED083453DD0DBF804100800DBF800100C001B
S1134EE00460606034E0DBF80800C0051DD5DBF821
S1134EF00800C0052CD5DBF804100800DBF800100E
S1134F000D0005606860BAF8E401401EAAF8E401E7
S1134F10DBF8080030F48070CBF80800DBF80800F8
S1134F2050F00300CBF8080012E0DBF8080080051D
S1134F300ED5DBF804100800DBF800100E00066044
S1134F407060DBF838000089401EDBF838100881F7
S1134F50DBF8080040050ED5DBF840100800DBF84C
S1134F603C100F0007607860DBF838000089401EB1
S1134F70DBF8381008810920CBF8080000F0F4FDB4
S1134F80DBF80C00ADF80000DAF81C0001905FF0CB
S1134F900040CBF80C00BAF80001012806D101202A
S1134FA0CAF804010020CAF808010EE0BDF80000A8
S1134FB0DAF80411884208D2BDF80000CAF80401E6
S1134FC0DBF870006C38CAF80801DBF870100800D0
S1134FD0DBF86C108846C0F80080C8F80400BAF802
S1134FE00001401EAAF800011AF5927000F09DFC21
S1134FF00198834510D100F0A7FDDBF804100800E8
S1135000DBF800108946C0F80090C9F8040058463F
S113501001F09FFB01F0A6FB584601F09AFB00202B
S113502005B0BDE8F08F10B5040000212000FFF7A3
S113503013FF10BD0100002901D1002000E0C86861
S1135040704770B504000D00200000F094F80600CD
S1135050002E01D1122003E0306AC08928600020AC
S113506070BD2DE9F84F04000D001600DFF8F005BF
S113507000680700D7F8F000A84201D20C204FE0E6
S1135080200000F078F88146B9F1000F01D1122018
S113509046E000F059FDD9F82000C0893060386A34
S11350A080467FF00F0000FB0580C9F82000D9F886
S11350B05000002809D0D9F81C00C089854208D2C4
S11350C02900484601F048FC03E02900484601F065
S11350D043FCD9F8080040F2292188421BD1D9F8B1
S11350E03800103882469AF80C00000713D5D9F816
S11350F004100800D9F800108B46C0F800B0CBF8B3
S11351000400BAF81800401EAAF8180049461AF11B
S1135110100001F001FC01F027FB00F025FD002048
S1135120BDE8F28F38B5DFF8380500680400E0699F
S1135130050000F009FDA86A50F48050A86200F050
S113514013FD31BD38B5DFF8180500680400E069C7
S1135150050000F0F9FCA86A30F48050A86201F060
S113516003FB00F001FD31BDDFF8F4140968080009
S1135170C069C0687047F8B50400DFF8E40400684B
S11351800700002C01D1F86920E0F86D844202D1B7
S113519017F150001AE000F0D7FCD7F8F8006C388B
S11351A00500B7F8000106003000461E00280AD0AA
S11351B0E868A04203D100F0D7FC280006E0E86EBE
S11351C0B0F16C05F0E700F0CFFC0020F2BD010067
S11351D0DFF88C341B681A00138B002B03D0536B3D
S11351E0DB68180002E0D369DB6D1800002901D0E8
S11351F0002807D1138B002B02D0536BD96001E038
S1135200D369D96570472DE9FE4F04000D001600DF
S11352101F00DFF84C0400688046002C18D00020E2
S11352208DF80800AA46D8F814028346DBF800007B
S1135230002806D0DBF80000A04202D01BF1200BAE
S1135240F4E7DBF80000002809D10020834606E0DB
S1135250AB46DBF81800824601208DF80800BBF14C
S1135260000F04D11020FFF7B2FF002014E018F55E
S1135270927000F092FB019700969DF80830524618
S1135280D8F81C00C168584600F013F8814618F598
S1135290927000F04AFB4846BDE8FE8F38B5DFF84F
S11352A0C00300680400E06905000020FFF7BBFEAE
S11352B031BD2DE9F24F86B0040015001E00109F89
S11352C0DDF84480DFF8980300680590002F18D0BB
S11352D0C246BAF5B67F04D80220FFF778FF002053
S11352E07CE000233A0003A9504600F09BF8814675
S11352F00398BAEB000AF6B2002E1CD0BAF1200AC9
S113530019E0A0688246BAF1D90F01D2D8208246AA
S11353101AF10F005FEA101A5FEA0A1AF6B2002EB9
S113532002D01AF1200000E050460023002203A915
S113533000F078F881460320C9F80800D9F88800FD
S1135340002803D0D9F88800834605E0039810EBC1
S113535009008346C9F888B0F6B2002E0ED0CDF805
S113536010B01BF1200B049821002022FFF75CF8F9
S113537004980400206850F00040206051465846CC
S113538000F02FF80598006AE1687FF00F0202FB35
S1135390010002900298C9F81C000298C9F8200084
S11353A002988089A9F824006069C9F82800002FB0
S11353B005D0D9F8280050F02000C9F8280001953C
S11353C0029880890090230052465946484601F0CD
S11353D0FFFA002801D1002000E0484607B0BDE8EC
S11353E0F08F8908491C491E002903D09E4A026097
S11353F0001DF8E7704710B4994C24682100C46973
S11354002200546823004C6A944200D24A62022467
S1135410846043601C6804601860506010BC70476E
S1135420416970472DE9FB4F82B014005FF0940886
S11354308B4800680500B5F800014FF6FE718842FC
S113544001DB002059E00398C0F80080002C08D04C
S1135450A2465FF0000B5A464146504601F0FCFA62
S11354600BE0404601F04BFB8246BAF1000F04D03A
S1135470029801F025FBCAF88800D5F8040181469A
S1135480D5F808010600D5F804021FFA89F959EA8B
S11354900040CAF80C00002E03D115F1F80000906A
S11354A002E016F16C0000901AF16C02009915F1FB
S11354B0F80001F0C1FCCDF804A001980600F06EDC
S11354C06C380700019719F101091FFA89F9B9F13C
S11354D0000F01D10120814615F1F800874205D063
S11354E0F86880B21FFA89F94845E6D0C5F8086122
S11354F01FFA89F9C5F80491504605B0BDE8F08F4C
S11355000200D36D1800002901D0002800D1D16514
S113551070472DE9F0418AB0040000275FF00008CD
S113552001A82021FFF790FC4D4800680500D5F83C
S1135530F000E168884202D25FF0010801E05FF008
S11355400008B8F1000F07D04FF47262454947488C
S113555000F0CCFAAFF30080B8F1000F01D00020C6
S11355607BE0B5F800014FF6FE71884202DB5FF084
S1135570010801E05FF00008B8F1000F07D040F621
S113558028723849394800F0B1FAAFF30080B8F115
S1135590000F01D0002060E06068B0F5B67F02D84B
S11355A05FF0010801E05FF00008B8F1000F07D0D8
S11355B04FF473622B492D4800F098FAAFF3008042
S11355C0B8F1000F01D0002047E0002001902068CE
S11355D0029060680390E068049020690590606917
S11355E00690A0690790E069089000200090636825
S11355F0A26801A90020FFF706FE0600002E02D1D2
S11356005FF0010801E05FF00008B8F1000F07D077
S113561040F647721349154800F068FAAFF300806A
S1135620B8F1000F01D0002017E0F0680700E86926
S113563015F15001884203D09DF81800800602D568
S11356400320B06008E000F07FFA3000FFF7D3FEDB
S113565000F08AFA01F088F838000AB0BDE8F08159
S1135660AC050020209602006B61747324A702002D
S113567070B50400DFF80C0200680500002C03D1AB
S11356800C20FFF7A4FD0FE0E869060000F05CFAC7
S113569016F1440215F5E271200001F0EFFB300031
S11356A000F003F800F060FA70BD2DE9F84304003F
S11356B0DFF8D0010068804618F5EE708146B8F82E
S11356C0E401002826D0D8F8DC010500B8F8E4018C
S11356D0401C0600761E002E1CD0D4E91123D5E907
S11356E011018B4204D801D3824201D201270CE07C
S11356F0D5E91123D4E911018B4205D801D38242A3
S113570002D25FF0FF3700E00027002F02D5A94640
S11357102D68DFE76168080021688C46C0F800C086
S1135720CCF804002200494618F5EE7001F084FB21
S1135730A06850F48070A06001F024F8BDE8F18303
S113574070B50400DFF83C0100680500002C03D1AB
S11357500C20FFF73CFD0EE0E869060016F144005A
S11357600ECC0EC00C3C0C3800F0EEF93000FFF704
S11357709CFF00F0F9F970BDDFF808110968080012
S1135780D0F8F00170472DE9F0473E480068040066
S1135790D4E97101401C51F10001C4E9710100F028
S11357A0D3F9D4F8FC01002806D0D4F80002D4F8C8
S11357B0FC118847C4F8CC0114F5E27001F088FBB1
S11357C0B4F8E4010600002E44D0D4F8DC0105004E
S11357D03000461E00283DD028688246D5E91123B2
S11357E0D4E971018B4204D801D3824201D201274A
S11357F00CE0D4E97123D5E911018B4205D801D31A
S1135800824202D25FF0FF3700E00027002F21D44C
S1135810B4F8E401401EA4F8E401696808002968AA
S11358208946C0F80090C9F80400A86840050CD562
S1135830296C0800E96B8846C0F80080C8F80400A9
S1135840A86B0089401EA96B08812800FFF7D3FDCF
S11358505546BDE700F088F9BDE8F087094A1268AB
S11358601100C1F8F0017047064B1B681A00C2F81A
S1135870FC01C2F800127047024A12681100C1F814
S1135880F8017047AC0500202DE9F84304000D0031
S113589016001F00DFF84C0200688046A561002155
S11358A014F1080001F088FA00F04EF9F6B2002E67
S11358B015D1D8F81801814618F58C70814509D0A6
S11358C0A14504D100F050F94FF482600DE0D9F8FD
S11358D00090F1E7210018F58C7001F073FADFF8FD
S11358E00802606100F040F90020BDE8F28338B599
S11358F004000D000023002229002000FFF7C4FF4C
S113590032BD38B5040000F01FF9A069012802DA9D
S11359100020050004E0A069401EA06101200500EC
S113592000F022F92800C0B232BDF8B505006D4878
S11359300068060000F008F9A869002826D4288A1F
S1135940002823D015F1080001F05CFA07003C3F61
S1135950B868C00512D57968080039680C0004607D
S11359606060B6F8E401401EA6F8E401B86830F4BB
S11359708070B860B86850F00300B8600020B86365
S11359803800FFF738FD00F0EFFE02E0A869401C84
S1135990A86100F0E9F80020F2BDF8B50400514810
S11359A000680500288B002801D00D2029E000F0B4
S11359B0CBF8A069012816DAE869060040F22B400A
S11359C0B06014F10800B0637168080031680F001A
S11359D00760786016F13C0114F1080001F0F2F957
S11359E000F0D0FE02E0A069401EA06160693E495B
S11359F0884203D000F0B8F81F2002E000F0B4F8A9
S1135A000020F2BD38B504000D0040F22B40A86020
S1135A1014F10800A8636968080029680A00026094
S1135A20506015F13C0114F1080001F0CBF9280095
S1135A30FFF73BFEA86B002801D0372000E00020D0
S1135A4032BD2DE9F84305000C0026480068804665
S1135A50B8F81800002801D00D2040E000F074F8D8
S1135A60A86901282BDAD8F81C000600002C18D1EC
S1135A7040F22B40B06015F10800B0637168080073
S1135A8031688946C0F80090C9F8040016F13C0159
S1135A9015F1080001F096F900F074FE00200700EB
S1135AA012E0D8E971232000002110185941C6E9F9
S1135AB0110131002800FFF7A5FF070004E0A869E1
S1135AC0401EA8610020070068690749884203D086
S1135AD000F04AF81F2002E000F046F83800BDE864
S1135AE0F2830000AC0500206D73776C00B583B0C1
S1135AF00091019202906A4604491820ABBE002826
S1135B0001D101F001FA03B000BD00BF1010020082
S1135B10F8B505004B4800680600F069070000F07E
S1135B2013F8B8680B280CD00B20B860BD63412172
S1135B303800FFF7E5FC7968080039680C00046058
S1135B40606000F011F8F1BD3E4909680800C169C0
S1135B50496D002902D1C18A81F31188C169496D57
S1135B60491CC26951657047364909680800C16912
S1135B70496D002913D0C169496D491EC269516537
S1135B80C169496D00290AD1018B002904D0416BF8
S1135B90896881F3118802E0418B81F31188704791
S1135BA02DE9F84381460C00150019F11009254828
S1135BB000680600B06B002804D11820FFF707FB2B
S1135BC000201AE0F06A814502D3306B484504D2C4
S1135BD01420FFF7FCFA00200FE0B06BF16AB9EB78
S1135BE0010110EBC1000700FFF7AEFF38688046E3
S1135BF03C607D60FFF7B8FF4046BDE8F28330B4F7
S1135C000200914201D20C201AE00E480068030001
S1135C100D48C3F8E4000D489862881A401C05003A
S1135C200B4804009C63DA6219632800451E0028AF
S1135C3005D0064820606260521C0834F5E7002055
S1135C4030BC7047AC05002055680000115B0000B3
S1135C50943300202DE9F04104000D001600DFF814
S1135C60C40200680700002114F1080001F0A4F840
S1135C700020A061E561E80703D55FF0FF302062F2
S1135C8001E000202062FFF75FFFD7F83803002807
S1135C9004D1002117F54E7001F08EF8DFF8880268
S1135CA06061D7F83803804617F54E70804509D0F7
S1135CB0A04504D1FFF758FF4FF482600AE0D8F8FA
S1135CC00080F1E7210017F54E7001F07BF8FFF733
S1135CD04BFF0020BDE8F08138B504000D00002220
S1135CE029002000FFF7B6FF32BD8E4A126811006A
S1135CF0CA69D2F88C20100070472DE9F84F0600CD
S1135D000F00884800688046FFF71EFFB0693843DB
S1135D108246308A00285DD0B068814616F10800BA
S1135D20814557D0CB46BBF13C0BD9F8000000901D
S1135D309BF82800000607D5DBF88C001AEA00005F
S1135D40DBF88C10884208D09BF8280000063ED46B
S1135D50DBF88C0010EA0A0F39D0D9F804100800D7
S1135D60D9F800100C0004606060308A401E308254
S1135D70DBF80800C00518D5DBF804100800DBF8D0
S1135D8000100D0005606860B8F8E401401EA8F832
S1135D90E401DBF8080030F48070CBF80800DBF88D
S1135DA0080050F00300CBF808000020CBF83800BE
S1135DB05846FFF720FBDBF88C001AEA0000CBF80A
S1135DC08C00306ADBF88C1008403AEA000A00982C
S1135DD08146A3E7C6F818A0FFF7C6FE00F0C4FC8E
S1135DE00020BDE8F28F2DE9F84F05000E001700E2
S1135DF098460A9C4B4800688146B9F81800002868
S1135E0001D00D205AE000208346D9F81C008246B8
S1135E10FFF79AFEFFB2002F03D0A8693040B042CA
S1135E2005D0FFB2002F0FD1A86930420CD0A86969
S1135E303040CAF88C00A869296A31408843A861B7
S1135E40FFF792FE584639E0CAF88C60FFB2002F83
S1135E5006D0DAF8280050F08000CAF8280005E0DF
S1135E60DAF8280030F08000CAF828001AF13C0162
S1135E7015F1080000F0A6FF40F22D40CAF8080012
S1135E8015F10800CAF83800B8F1000F11D0E4B2D7
S1135E90002C03D04046FFF753FC02E04046FFF7D6
S1135EA0E7FBDAF83800002805D04FF44470834645
S1135EB001E000F06AFCFFF757FE5846BDE8F28F98
S1135EC02DE9FF4105000E0017001C00002C1AD01C
S1135ED001A81649B1E80C10A0E80C100C390C38D4
S1135EE0DDE901232000002110185941CDE9010109
S1135EF00020009001AB3A00D2B231002800FFF735
S1135F0072FF804609E00020009000233A00D2B2DC
S1135F1031002800FFF767FF8046404604B0BDE823
S1135F20F0810000AC0500206E76656C84A502004B
