S02B00007468726561645F656E645F6465766963655F7573626B773234643531325F64656275672E73726563C9
S1130000885D002011B3020067720000CF72000007
S1130010D77900008B7B00003FCE00000000000079
S11300200000000000000000000000003F7300001A
S11300309BED000000000000B573000053B3020004
S113004029CF020029CF020029CF020029CF0200C4
S113005029CF020029CF020029CF020029CF0200B4
S113006029CF020029CF020029CF020029CF0200A4
S113007029CF020029CF020029CF020029CF020094
S113008029CF020029CF020029CF020029CF020084
S113009029CF020029CF020029CF020029CF020074
S11300A029CF020029CF020029CF020029CF020064
S11300B029CF020029CF020029CF020029CF020054
S11300C029CF020029CF020029CF020029CF020044
S11300D029CF020029CF020029CF020029CF020034
S11300E029CF020029CF020029CF020029CF020024
S11300F029CF020029CF020029CF020029CF020014
S113010029CF020029CF020029CF020029CF020003
S113011029CF020029CF020029CF020029CF0200F3
S113012029CF020029CF020029CF020029CF0200E3
S113013029CF020029CF020029CF020029CF0200D3
S113014029CF02004FB302004FB302004FB30200A5
S11301504FB302004FB302004FB302004FB302008B
S11301604FB302004FB302004FB302004FB302007B
S11301704FB302004FB302004FB302004FB302006B
S11301804FB302004FB302004FB302004FB302005B
S11303F04FB302004FB302004FB30200FFFFFFFFF1
S1130400FFFFFFFFFFFFFFFFFFFFFFFFFEFFFFFFF9
S1130410FEB504000D001600DFF84008007800283F
S113042001D10E2082E0DFF8E0090078002807D02F
S1130430F6B2002E04D101A802F04EFE0F2075E0A2
S1130440002C01D1052071E001A9200002F0CCF8B4
S11304500700C0B2002802D03800C0B266E08DF8B0
S1130460085001A802F05AF90700C0B211285BD164
S11304704FF6FF7001F0A6FC0700C0B2002802D0BE
S11304803800C0B252E00020DFF880190870DFF8AD
S1130490F00A0368DFF8EC0ADFF8EC1A497818224E
S11304A051430844C268DFF8DC0ADFF8DC1A4978F3
S11304B05FF0180C0CFB01F14158DFF8280B02F037
S11304C0E9FFDFF8BC0A006800900023DFF8B40AF3
S11304D0DFF8B41A4978182251430844C068C208A6
S11304E092B2DFF8A00ADFF8A01A49785FF0180C7E
S11304F00CFB01F14158DFF8EC0A02F0E1FF00289F
S11305000ED1DFF8800ADFF8801A497818225143A7
S11305100844DFF8FC1801610020DFF86C1A087049
S113052001A802F0FBF807003800C0B2FEBD38B5E0
S1130530DFF828070078002801D10E2064E0DFF8F6
S1130540C8080078002801D00F205DE00422DFF8FD
S1130550340ADFF8941A0978182359434158684635
S113056002F0FEFF009801F02FFE0400C0B2002844
S113057001D100F03FFD0021080080B2202841DABB
S1130580DFF80C1A096880B20C2202FB00F28958C9
S113059000290CD1DFF8F819096880B20C2202FB9B
S11305A000F2114409894FF6FE7291422AD0DFF815
S11305B0E019096880B20C2202FB00F21144498957
S11305C001291DD1002211000A00DFF8C4391B687B
S11305D080B20C2505FB00F52B449B88D2B2DBB21C
S11305E09A420DD2DFF8A829126880B20C2303FBCB
S11305F000F3D258C9B2002342F82130491CE3E782
S1130600401CBAE72000C0B232BD70B584B0DFF838
S11306104C060078002804D0DFF8EC0700780028A6
S113062000D0B7E0DFF8E4070078002808D0DFF84E
S11306305C09008801F0C6FB0020DFF8D0170870C1
S1130640DFF844090078002846D0DFF83C09406808
S1130650DFF83019DFF83029527818235A4311444F
S1130660496888420FD3DFF81C09DFF81C19497860
S1130670182251430844DFF8981701610020DFF87D
S11306800819087086E0DFF8F8080368DFF85C29C9
S1130690DFF8F4084168DFF84C0902F0FBFE0600BD
S11306A0DFF8DC08006800900023DFF84009C20886
S11306B092B2DFF8D4084168DFF8280902F000FF9D
S11306C0002809D1DFF8C0084068DFF820190818AD
S11306D0DFF8B41848605DE0DFF88C0A0078002881
S11306E021D0DFF8840A007800F072F8002816D0D0
S11306F0DFF8C40A007803F0F5F800280FD1FF21D1
S1130700002002F07AFD05000023DFF8B02AEDB2E4
S113071015F55A71DFF8A00A007803F055F90020A6
S1130720DFF8441A0870DFF8980A00F044FB002848
S113073030D001A9DFF8880A00F016FB002829D080
S1130740BDF8040002F0A4FC0400A4B24FF6FF704C
S11307508442EED001A801F0E1FF112803D101A8E1
S113076002F0BAFC16E09DF808000028E1D0002051
S1130770DFF8341BA4B2062202FB04F288544FF4BF
S11307808070DFF8241BA4B2062202FB04F2114499
S11307908880CEE77FBD30B583B004000D00DFF85C
S11307A0BC040078002801D10E2010E0002C01D1F7
S11307B005200CE08DF804506946200001F014FF78
S11307C0002801D0062002E0684602F0C1F93EBDCF
S11307D07CB50400DFF884040078002801D10E20E1
S11307E098E00020060000200500E4B2002C00F090
S11307F08F80DFF89C070068B6B20C2101FB06F17C
S1130800084400894FF6FE71884200F08180DFF8C9
S1130810980AB6B2062101FB06F108444088002874
S113082010D0DFF8840AB6B2062101FB06F10844B1
S11308304088401EDFF8701AB6B2062202FB06F2A8
S113084011444880DFF8600AB6B2062101FB06F1C4
S113085008444088002801D001200500DFF8480A38
S1130860B6B2062101FB06F1405C00284ED0DFF849
S1130870380AB6B2062101FB06F108444088002874
S113088044D1DFF88405007800282BD1DFF8000775
S11308900068B6B20C2101FB06F108440089ADF8EA
S11308A000000020ADF8020001208DF80400684625
S11308B001F034FF112802D1684602F00DFC00203B
S11308C0DFF8E419B6B2062202FB06F288544FF4AC
S11308D08070DFF8D419B6B2062202FB06F2114486
S11308E0888013E0DFF8A8060068B6B20C2101FB8B
S11308F006F108440089ADF800000020ADF80200BC
S113090001208DF80400684602F0E6FB761C70E7CF
S11309102800C0B276BD70B582B00025CF480078FB
S1130920002801D010203CE102F006FDDFF8E40AC3
S11309304008DFF8E01ADFF8DC2AB1EB5201884204
S113094001D008202DE100200400E4B2202C1BDAA1
S1130950DFF890030068E4B20C2101FB04F1405875
S113096000280FD1DFF87C030068E4B20C2101FBFE
S113097004F1084400894FF6FE71884202D1012037
S1130980050001E0641CE0E7EDB2002D01D119205F
S113099007E10220DFF850160870DFF87C0ADFF860
S11309A0E4150860DFF86C0A4008DFF8D81508720F
S11309B0DFF8D005007ADFF834164843DFF8C415B1
S11309C0C860DFF8C0050068DFF8B815C968081802
S11309D0401EDFF8B0154860DFF8A8054068401CE9
S11309E0DFF8A0158861DFF82C0A4008DFF89415B9
S11309F081F82000DFF88C0590F82000DFF8EC1572
S1130A004843DFF880154862DFF878058069DFF82D
S1130A107415496A0818401EDFF86815C86100207B
S1130A20DFF8CC1508704FF6FF70DFF8601508800A
S1130A3000F0F0F9DFF8880700F056F90020040010
S1130A40E4B2202C14DA0020DFF85C18E4B20622A9
S1130A5002FB04F28854DFF8B40C0088DFF848186D
S1130A60E4B2062202FB04F211448880641CE7E726
S1130A700020DFF8F4160870FF20DFF83C17087038
S1130A80002001F07BFCDFF8E81C0860012001F085
S1130A9075FCDFF8E01C0860DFF8D80C006800285B
S1130AA00FD10422DFF8DC04DFF83C1509781823A1
S1130AB059434158684602F053FD009801F084FB05
S1130AC026E001F0B3FCDFF8B01C0870DFF8A80CD6
S1130AD0007800281CD000F08DFA002808D14FF6C9
S1130AE0FF7001F06FF901205C490870002058E0A4
S1130AF0002001F069FB002808D100F07BFA0028EF
S1130B0004D101205549087000204AE0132048E030
S1130B1000F070FA002835D10120504908700020F7
S1130B200400E4B2202C2BDA6E480068E4B20C21F5
S1130B3001FB04F1405800280BD16A480068E4B274
S1130B400C2101FB04F1084400894FF6FE71884230
S1130B5016D064480068E4B20C2101FB04F1084497
S1130B60408901280AD15F480068E4B20C2101FBE6
S1130B7004F1465801213000FFF70DFE641CD0E754
S1130B8000200EE0002001F01FFB002808D100F037
S1130B9031FA002804D1012030490870002000E017
S1130BA0132076BDF0B583B004000026206801F060
S1130BB0F9FC002804D12068002801D000204BE073
S1130BC06946200001F010FD0700C0B2002802D0E1
S1130BD03800C0B240E0BDF8000002F059FA050048
S1130BE080B24FF6FF71884201D1092034E0DFF86A
S1130BF0A0030068ADB20C2101FB05F10844408953
S1130C00012801D01F2027E0DFF884030068ADB27B
S1130C100C2101FB05F10844C08803F0A7F9060084
S1130C20002E01D11E2017E0206800280CD0DFF828
S1130C3060030068ADB20C2101FB05F10844C288D1
S1130C402168300002F08CFC012003F020FC2660B7
S1130C50012003F027FC0020FEBD0000ED4200202F
S1130C607CB504006946200001F0BEFC0600C0B259
S1130C70002802D03000C0B233E0BDF8000002F01A
S1130C8007FA050080B24FF6FF71884201D10920AE
S1130C9027E0BF480068ADB20C2101FB05F1084410
S1130CA04089012801D01F201BE0206801F07AFC54
S1130CB0002809D12068002802D0206803F087F9B1
S1130CC00020206000200CE0012003F0E0FB002065
S1130CD02060012003F0E6FB012200212000FFF741
S1130CE097FB76BD940700200100002901D1002064
S1130CF009E0002081F8C000002081F8C100002034
S1130D0081F8C2000120704716B50400002C01D1FF
S1130D10002028E094F8C10094F8C010884205D15E
S1130D2094F8C200002801D000201CE094F8C1000F
S1130D300621484320446946062203F0E5FB94F863
S1130D40C100401C202190FBF1F201FB120084F849
S1130D50C10094F8C200202804DA94F8C200401CB0
S1130D6084F8C200012016BD38B504000D00002C23
S1130D7005D094F8C200002801D0002D01D1002034
S1130D8018E0280094F8C01006225143214406229A
S1130D9003F0BAFB94F8C000401C202190FBF1F250
S1130DA001FB120084F8C00094F8C200401E84F8CD
S1130DB0C200012032BD0100002901D1002001E060
S1130DC091F8C200704738B50400E4B2022C01DB8C
S1130DD0022017E06A4803686A48E4B2182101FB5C
S1130DE004F10844C2686748E4B2182101FB04F125
S1130DF041587C4802F04EFB0500002D01D1002033
S1130E0000E0042032BD0000EE420020EB4200204E
S1130E100000FF3F00B585B004225A48016801A8CC
S1130E2002F09EFB042257484068C11E03A802F04A
S1130E3097FB042253488169684602F091FB04221F
S1130E405048C069C11E02A802F08AFB022066490C
S1130E5008700198039988424CD1019810F1010F50
S1130E6048D000980299884217D1009810F1010FD8
S1130E7013D001980099884207D30198DFF8FC1831
S1130E80086000205849087078E00098DFF8EC18F2
S1130E90086001205449087070E000980299884263
S1130EA011D00198DFF8D418086000204E4908706A
S1130EB001204F494870334880694D4948600120FA
S1130EC04B4908705AE00198DFF8B0180860002018
S1130ED045490870012000F05DF8032809D101207C
S1130EE04349487027488069414948600120404986
S1130EF0087043E00198039988421DD00098029934
S1130F00884215D1009810F1010F11D00098DFF834
S1130F106C18086001203449087000203449487076
S1130F20184800683249486001203149087025E0BA
S1130F30002001F049F921E00098029988421AD171
S1130F40009810F1010F16D00098DFF830180860EF
S1130F50012025490870002000F01CF8032809D15D
S1130F60002023494870074800682149486001204F
S1130F701F49087002E0002001F026F905B000BD09
S1130F8018420020103E0020C4410020CA42002024
S1130F909407002010B582B00400E4B2022C01DBF7
S1130FA002201DE0DFF8D807006800900023DFF876
S1130FB0D407E4B2182101FB04F10844C068C20854
S1130FC092B2DFF8C007E4B2182101FB04F14158E2
S1130FD0044802F075FA002801D0032000E0002044
S1130FE016BD000064050020EA420020000800004D
S1130FF0C441002010B584B0DFF88807DFF8BC1DB9
S11310000978182251434058DFF86817096808180E
S11310100C300400DFF86C07DFF8A01D09781822F3
S1131020514308444068844280F09A8001222100A0
S113103002A802F095FA9DF80800FF2840F08E807F
S113104008222100684602F08BFA6A46106851684B
S11310505FF0FF325FF0FF3399427DD190427BD144
S1131060DFF82007DFF8541D09781822514340584F
S1131070DFF80017096808180C30844217D1DFF82C
S1131080400DDFF80017DFF8342D127818235A4387
S113109011440861DFF8280DDFF8E816DFF81C2D8D
S11310A0127818235A4311444861002059E0083C3F
S11310B0DFF8D006DFF8041D0978182251434058A0
S11310C0DFF8B016096808180C30844242D30822AD
S11310D02100684602F044FA9DF800009DF80710CC
S11310E0884235D19DF80000AA2803D09DF800005D
S11310F055282DD1DFF88C06DFF8C01C097818229A
S1131100514308440461DFF87C06DFF8B01C097819
S1131110182251434058DFF85C16096808180C304F
S1131120844213D3BDF80500002806D1083C0822E8
S11311302100684602F014FAE5E7DFF84806DFF814
S11311407C1C09781822514308444461002008E0BB
S1131150083CADE70B2004E00B2002E0083459E71B
S11311600B2004B010BD0000EF42002070B5040055
S11311700D001600DFF80C06E4B2182101FB04F19F
S11311804058DFF8F015096808180C30854209D377
S1131190DFF8F005E4B2182101FB04F108444068CB
S11311A0A84201D2072005E008222900300002F0FD
S11311B0D7F9002070BD0000F0420020F331000098
S11311C09CF0FF1F7FB50400DFF8B805DFF8EC1BC7
S11311D009781822514308440069DFF8E41B884267
S11311E00FD1DFF8A005DFF8D41B0978182251438A
S11311F00844C068DFF87C150968401A103820607C
S11312004DE06A46DFF87C05DFF8B01B0978182347
S1131210594308440169DFF8A40B0078FFF7A6FFDF
S11312200500EDB2002D38D1BDF8050000281BD112
S113123002AADFF85005DFF8841B09781823594304
S113124008444169DFF8740B0078FFF78FFF06004C
S1131250F6B2002E04D0002020603000C0B220E09E
S1131260BDF80D00ADF80500DFF81805DFF84C1BDC
S11312700978182251434058BDF8051010FA81F03E
S1131280DFF80015DFF8342B127818235A43114481
S11312900969401A0838206001E000202060280015
S11312A0C0B204B070BD000060F1FF1F70B582B021
S11312B004000D0015F0030F01D000203DE0DFF81D
S11312C0C404DFF8F81A09781822514340588442BC
S11312D00AD3DFF8B004DFF8E41A0978182251437E
S11312E008444068A04201D2002026E0DFF89404BC
S11312F0DFF8C81A09781822514308444068401C92
S11313002919884201D2002017E0002D14D00422AC
S11313102100684602F024F904200600F6B2002EEB
S113132007D0761E6846F6B2805DFF28F6D000200E
S113133003E02D1F241DE8E7012076BD2DE9FC41C3
S113134004000D00DFF83C04E4B2182101FB04F1B1
S11313504058DFF82014096808180C3006000020F3
S1131360070008223100684602F0FAF89DF80000F0
S1131370FF284AD09DF800009DF80710884201D04C
S1131380083639E09DF8020000029DF8011050FA79
S113139081F08046B5F80100414689B288422AD1DD
S11313A02878AA2819D19DF80000AA2812D19DF8FE
S11313B0040000029DF8031050FA81F08046404674
S11313C0B5F8031080B2884202D1012007001CE066
S11313D0083611E00120070017E02878552808D1C5
S11313E09DF80000AA2801D1083605E00120070075
S11313F00BE0083600E00836E248E4B2182101FBAD
S113140004F1084440688642ABD33800C0B2BDE85A
S1131410F68100002000000000F806002DE9F24FDC
S113142096B0834615001E00209C0020ADF80600EF
S113143000270020ADF804000020824603A82900FC
S1131440082203F061F8DFF874090078401C0221D7
S113145090FBF1F201FB120018214843C9490858D6
S1131460BBEB0000ADF81100DFF8540D0068B6B214
S11314700C2101FB06F108448088DFF8441D09684B
S1131480B6B20C2202FB06F21144C98810FB01F02B
S1131490ADF804002000BDF8041080B2884211D2D7
S11314A0BDF80400001BADF80600A4B2DFF8100D6F
S11314B00068B6B20C2101FB06F10844C08894FB15
S11314C0F0F00700A4B2002C46D0A4B2412C23DBD8
S11314D04022AC48DFF8E4180978182359434058EF
S11314E0B5F80510401810FA8AF105A802F038F88A
S11314F0A3480068009005AB40225946DFF8680D08
S113150001F032FF002805D11BF1400B403C1AF1D9
S1131510400AD7E70C20D4E0A4B222009948DFF8AF
S11315209C180978182359434058B5F805104018F9
S113153010FA8AF105A802F013F8914800680090A7
S113154005ABA4B222005946DFF81C0D01F00CFFD4
S1131550002801D00C20B4E0BDF80600002800F0FB
S1131560A1801BFA84FB1BF0FC00BBEB000080464F
S1131570002082465FFA88F8B8F1000F67D05FEA6E
S11315809B0B5FEA8B0BDFF8380C0068B6B20C21BA
S113159001FB06F10844C0885FFA88F8D8F1040119
S11315A088420BDADFF8180C0068B6B20C2101FB94
S11315B006F10844C088ADF8080005E05FFA88F831
S11315C0D8F10400ADF808000422594605A801F03A
S11315D0C7FF002081464846C0B2BDF8081080B25B
S11315E0884224D2DFF8D80B0068B6B20C2101FB84
S11315F006F14058BFB2DFF8C81B0968B6B20C2226
S113160002FB06F21144C98801FB07F108441FFAE2
S11316108AFA10F80A0005A95FFA88F801F80800A8
S11316201AF1010A18F1010819F10109D3E7544824
S11316300068009005AB04225946DFF82C0C01F039
S113164093FE002801D00C203BE01BF1040B4C4816
S113165000680090DFF8680B0068B6B20C2101FB4B
S113166006F14058BFB2DFF8581B0968B6B20C2225
S113167002FB06F21144C98801FB07F108441FFA72
S11316808AFA00EB0A03BDF806001FFA8AFAB0EBE7
S11316900A025946DFF8D00B01F066FE002801D09B
S11316A00C200EE036480068009003AB082216991F
S11316B0DFF8B40B01F058FE002801D00D2000E043
S11316C0002017B0BDE8F08F30B40100DFF8F03A25
S11316D01B6889B20C2404FB01F42344DB88DFF883
S11316E0E04A246889B20C2505FB01F52C44A48842
S11316F06343180010F003031A00D2B2002A03D087
S1131700D2F1040350FA83F030BC7047B4070020D0
S113171030B583B004000D001A48DFF8A81A097820
S11317201822514340581349096808180C30844260
S11317301CD36A462100DFF88C0A0078FFF716FDF7
S11317409DF80000552805D19DF800009DF807106C
S1131750884201D0083CDFE7BDF80100290089B2C6
S1131760884201D1200002E0083CD5E700203EBDBC
S11317703442002038420020EC4200203042002055
S113178018420020103E00202DE9FF4F8DB00020AC
S11317908DF80A0000208DF807000E98B0F80110AB
S11317A00D98FFF7B5FF07900798002800F0CF8247
S11317B00D9806000020ADF8080000200700BFB215
S11317C0402F08DA4FF6FF70DFF8281DBFB221F86A
S11317D017007F1CF3E70798B04280F0D68005AA73
S11317E03100DFF8D8050078FFF7C0FC9DF814003D
S11317F09DF81B10884203D19DF81400AA2801D03B
S1131800083EE8E7BDF815000E99B1F801108842CA
S113181040F0B98000208DF8060000200700BFB218
S1131820402F0EDABDF81700DFF8C81CBFB231F83C
S11318301710884203D101208DF8060001E07F1CB7
S1131840EDE79DF80600002801D0083EC3E7BDF887
S11318501700DFF86C190968BDF83C200C235A43C3
S113186011448988884201D3083EB4E7DFF850095F
S11318700068BDF83C100C2251430844C0880500A0
S11318801A98BDF81710ADB205FB010083461BF092
S1131890FC00BBEB000080465FFA88F8B8F1000F4B
S11318A003D05FEA9B0B5FEA8B0B00208246ADB24C
S11318B05FFA88F8D8F10400854202DA28000400AF
S11318C002E0D8F104000400ADB2002D4CD0042293
S11318D0594603A801F044FEE4B22200DFF8000DEB
S11318E0DFF8D8140978182359434058BDF8191063
S11318F010FA81F010FA8AF104A801F031FE0020F8
S1131900070038002100C9B280B289B288420BD2E4
S113191004A8BFB2C05D03A95FFA88F801F8080003
S11319207F1C18F10108ECE7DFF8B80C00680090A0
S113193003AB04225946DFF8300901F015FD0028F5
S113194010D1E4B22D1B5AFA84FA1BF1040B0020C7
S11319508046ADB2042D02DB04200400B4E7280065
S11319600400B1E70C2026E2BDF81700DFF8841B61
S1131970BDF8082021F81200BDF80800401C10F042
S11319803F00ADF80800083E25E705AA0799DFF8EF
S11319902C040078FFF7EAFB00208DF80A00DFF83A
S11319A0740D007800281DD00AA9DFF81408006817
S11319B0BDF83C200C235A431044008900F09CFDE0
S11319C000280FD0BDF82C00DFF8F4170968BDF823
S11319D03C200C235A4311448988884202D20120B6
S11319E08DF80A000020ADF80400BDF80400DFF80B
S11319F0D0170968BDF83C200C235A431144898848
S1131A00884280F0C680DFF80C0D0078002806D0EC
S1131A10BDF80400BDF82C10884280F0BA80002084
S1131A208DF8060000200700BFB2402F0EDABDF883
S1131A300400DFF8C01ABFB231F81710884203D18E
S1131A4001208DF8060001E07F1CEDE79DF80600FB
S1131A50002840F09880DFF868070068BDF83C1063
S1131A600C2251430844C0880500A9461A98BDF8C1
S1131A700410ADB205FB010083461BF0FC00BBEB78
S1131A80000080465FFA88F8B8F1000F03D05FEADF
S1131A909B0B5FEA8B0B002082461FFA89F95FFAE1
S1131AA088F8D8F10400814502DA4846040002E0CF
S1131AB0D8F1040004001FFA89F9B9F1000F53D0DA
S1131AC00422594603A801F04BFDE4B22200DFF8DA
S1131AD0100BBA490978182359434058BDF8191016
S1131AE010FA81F0BDF80410ADB205FB010010FA44
S1131AF08AF104A801F034FD002007003800210019
S1131B00C9B280B289B288420BD204A8BFB2C05D08
S1131B1003A95FFA88F801F808007F1C18F101088E
S1131B20ECE7DFF8C00A0068009003AB04225946D2
S1131B30DFF8340701F018FC002813D1E4B2B9EB44
S1131B4004095AFA84FA1BF1040B002080461FFA98
S1131B5089F9B9F1040F02DB04200400ABE748461D
S1131B600400A8E70C2026E1BDF80400DFF884197E
S1131B70BDF8082021F81200BDF80800401C10F040
S1131B803F00ADF80800BDF80400401CADF80400A7
S1131B902BE79DF80A00002800F0AB80BDF8040094
S1131BA0DFF81C160968BDF83C200C235A43114485
S1131BB08988884280F09D80DFF804060068BDF8BB
S1131BC03C100C2251430844C0880500A9461A98C9
S1131BD0BDF80410ADB205FB010083461BF0FC0008
S1131BE0BBEB000080465FFA88F8B8F1000F03D021
S1131BF05FEA9B0B5FEA8B0B002082461FFA89F990
S1131C005FFA88F8D8F10400814502DA48460400F6
S1131C1002E0D8F1040004001FFA89F9B9F1000FB9
S1131C2052D00422594603A801F09AFCE4B22200DF
S1131C30DFF88C050068BDF83C100C23594340586C
S1131C40BDF80410ADB2694308441FFA8AFA00EBE8
S1131C500A0104A801F084FC0020070038002100D8
S1131C60C9B280B289B288420BD204A8BFB2C05DA7
S1131C7003A95FFA88F801F808007F1C18F101082D
S1131C80ECE7DFF860090068009003AB04225946D2
S1131C90DFF8D40501F068FB002813D1E4B2B9EBF6
S1131CA004095AFA84FA1BF1040B002080461FFA37
S1131CB089F9B9F1040F02DB04200400ACE74846BB
S1131CC00400A9E70C2076E0BDF80400DFF824182E
S1131CD0BDF8082021F81200BDF80800401C10F0DF
S1131CE03F00ADF80800BDF80400401CADF8040046
S1131CF054E755208DF820000E98B0F80100ADF897
S1131D0021000020ADF823002C480078411C022259
S1131D101A9891FBF2F302FB131118225143DFF8D6
S1131D20C0285158401AADF8250055208DF82700D9
S1131D30DFF8B0080068009008AB08221099DFF8BB
S1131D40280501F011FB002833D00D2033E0DFF823
S1131D5070040068BDF83C100C2251430844C0884C
S1131D600090BDF83C300E9A10991A98FFF756FB74
S1131D708DF80700C0B2002802D09DF807001AE0D1
S1131D80DFF83C040068BDF83C100C2251430844C1
S1131D90408901280DD1DFF828040068BDF83C1003
S1131DA00C22514340580E99B1F803101A9A40F886
S1131DB021209DF8070011B0BDE8F08FEA42002011
S1131DC00000FF3F2DE9F04F89B00400DFF8F40371
S1131DD00078401C022190FBF1F201FB1200070085
S1131DE03800C0B2FFF7D6F803280CD13800C0B2CF
S1131DF0FEF7E9FF81465FFA89F9B9F1000F02D0D5
S1131E004846C0B2AAE13800C0B200F02FFADFF8A9
S1131E10D007DFF8B0130978182251430844006949
S1131E208346DFF8BC07FFB2182101FB07F14058D5
S1131E30DFF8E418096808180C3006000596DFF886
S1131E40A007FFB2182101FB07F108444068C01E37
S1131E508046DFF88C07DB49097818225143405843
S1131E60DFF8CC1C096808180C308345C0F00E81DB
S1131E7002AA5946D3480078FFF778F9DFF89408A6
S1131E800078002847D00020824600208DF8040006
S1131E90CB4800681FFA8AFA0C2101FB0AF10844B6
S1131EA000894FF6FE7188422ED0BDF80900C4495E
S1131EB009681FFA8AFA0C2202FB0AF21144098902
S1131EC088421ED1BE4800681FFA8AFA0C2101FB21
S1131ED00AF10844408901280FD1B94800681FFA63
S1131EE08AFA0C2101FB0AF14058BDF80B1050F896
S1131EF0210000F057FB002806D001208DF80400D3
S1131F0002E01AF1010AC3E79DF80400002802D197
S1131F10BBF1080B9DE7BDF8090001F0B9F8050015
S1131F209DF808009DF80F10884211D1ADB24FF60C
S1131F30FF7085420CD02800210080B289B288420B
S1131F4006D002A93800C0B2FFF7F8F9002802D081
S1131F50BBF1080B7DE79DF80800AA2806D09DF880
S1131F600800552802D0BBF1080B72E794480068BA
S1131F70ADB20C2101FB05F108444089012811D1BF
S1131F808F480068ADB20C2101FB05F14058BDF843
S1131F900B1050F8210000F005FB002802D1BBF122
S1131FA0080B56E7280080B2FFF78EFBB8EB000061
S1131FB0804683480068ADB20C2101FB05F108445A
S1131FC080887F490968ADB20C2202FB05F21144F6
S1131FD0C98848430490DFF83C07007800282CD0D7
S1131FE006A977480068ADB20C2202FB05F2104442
S1131FF0008900F081FA00281FD0BDF81E00704946
S11320000968ADB20C2202FB05F21144C98888426A
S113201001D01B20A2E0BDF81C0069490968ADB2DB
S11320200C2202FB05F211448988884205D2BDF8CE
S11320301C00BDF81E10484304909DF80800552864
S113204010D1049880B200902B009BB202AA3100F8
S11320504046FFF7E3F98146C0B2002812D0484653
S1132060C0B27BE0CDF8008033002A0092B202A90E
S11320705846FFF789FB8146C0B2002802D0484683
S1132080C0B26BE00836BBF1080BE2E64D480078BD
S1132090DFF8A01A4870DFF848054A490978182281
S11320A051434058DFF88C1A48600120DFF8841A45
S11320B00870444807700598864214D1DFF8780AFE
S11320C0DFF81C153F4A127818235A43114408615B
S11320D0DFF8640ADFF808153A4A127818235A43DD
S11320E01144486109E0B6F10800DFF8F414354AF8
S11320F0127818235A4311440861DFF8E404314983
S113210009781822514308440069DFF8D4142D4A91
S1132110127818235A4311444861DFF8200A0068F2
S1132120411C2848007800F01CF8002806D1DFF88C
S11321300C0A0068401CDFF8041A0860DFF8D405B4
S11321400078002809D0012000F018F9DFF8E01920
S113215008600020DFF8BC150870002009B0BDE855
S1132160F08F13B50400DFF87C040068009001AB25
S11321700422DFF86C04E4B2182101FB04F1415895
S1132180394801F0F1F8002817D1DFF85804006845
S1132190009001AB0422DFF84804E4B2182101FBEB
S11321A004F108444068C11E2F4801F0DDF80028FE
S11321B001D1002002E0012000E0012016BD000052
S11321C094070020EA42002070B50400032514F1AE
S11321D0020F02D10120040000E0641C2800451E07
S11321E0C0B2002823D0DFF8FC030368DFF8F00353
S11321F0C268DFF8EC0301681B4801F04BF90600E4
S1132200DFF8E0030368DFF8D803426ADFF8D0039D
S11322108169154801F03EF906000020FEF7BAFE78
S11322200028DBD10120FEF7B5FE0028D6D121001D
S11322300020FFF796FF002813D10020DFF80019D3
S11322400870DFF8FC08007800F010F8012000F0B6
S113225095F8DFF8DC180860DFF8E0080460002077
S113226000E0132070BD00006405002070B584B048
S11322700400DFF8D0080068002801D100207BE0CA
S1132280DFF8C4080290D648E4B2182101FB04F137
S11322904058001D0600D3480068009002AB042299
S11322A03100DFF8E80D01F05FF8002801D00020CC
S11322B062E000200500361DDFF888080068ADB232
S11322C00C2101FB05F1084400894FF6FE71884298
S11322D043D0DFF870080068ADB20C2101FB05F1B2
S11322E008440089000400F57F40FF300190BD4898
S11322F00068009001AB04223100DFF8900D01F07A
S113230033F8002801D0002036E0361DDFF8340809
S11323100068ADB20C2101FB05F10844808800047B
S1132320DFF820180968ADB20C2202FB05F2114453
S1132330C98810FA81F00190AA480068009001ABA6
S113234004223100DFF8440D01F00EF8002801D01A
S1132350002011E0361D6D1CAEE7A2480068009015
S113236002AB04223100DFF8240D00F0FDFF002849
S113237001D0002000E0012004B070BD2DE9F0413F
S113238082B0040000260020009000270020804630
S1132390E4B2002C11D1DFF8AC070068BFB20C2105
S11323A001FB07F1084400894FF6FE71884202D010
S11323B008367F1CEFE7300036E08948DFF88017E5
S11323C00978182251434058001D050004222900B1
S11323D0684601F0C5F80098DFF86C17884201D010
S11323E0002021E02D1D04222900684601F0B8F8E0
S11323F00098DFF85417884202D1012080460BE090
S1132400361D2D1D7648DFF83817097818225143F8
S1132410084440688542E6D35FFA88F8B8F1000FB3
S113242001D0300000E00020BDE8F681F8B56C482A
S1132430DFF80C170978182251434058083005007A
S1132440DFF8EC06006840190600042229006846FB
S113245001F086F80020070000200400DFF8E406FD
S11324600068A4B20C2101FB04F1084400894FF672
S1132470FE71884214D00098DFF8C8160968A4B227
S11324800C2202FB04F211440989090401F57F417D
S1132490FF31884202D10120070001E0641CDDE71E
S11324A0FFB2002F01D1012023E02D1D04222900B9
S11324B0684601F055F80098DFF888160968A4B258
S11324C00C2202FB04F2114489880904DFF8742603
S11324D01268A4B20C2303FB04F31A44D28811FA41
S11324E082F1884201D0012003E02D1DB542ACD316
S11324F00020F2BD68F6FF1F70B582B004000D0025
S1132500002028603648DFF838160978182251432D
S11325104058001D060004223100684601F020F8EE
S11325200098DFF82416884208D00020A8800020F4
S1132530E8804FF6FF702881002032E0361D042227
S11325403100684601F00CF80098DFF8FC15884269
S11325501DD00098000CA4B2A0420DD1361D042257
S11325603100684600F0FCFF0098000CA880009839
S1132570E8802C81012014E008361948DFF8C015E2
S1132580097818225143084440688642D7D3002072
S113259028600020A8800020E8804FF6FF70288182
S11325A0002076BD010000200200D2B2022A14DA13
S11325B00B48D2B2182303FB02F3C05881420AD35A
S11325C00748D2B2182303FB02F318444068884238
S11325D001D3012002E0521CE7E70020704700000D
S11325E0103E002018420020F0B402000023DFF85F
S11325F0540500689BB20C2404FB03F420440089B6
S11326004FF6FE74A04200F08180DFF838050068C0
S11326109BB20C2404FB03F42044408901282AD1F2
S1132620DFF8200500689BB20C2505FB03F545592E
S1132630002004002000C0B2DFF8086536689BB2B1
S11326400C2707FB03F73E44B68880B2B0425BD246
S1132650AA420DD1DFF8EC0400689BB20C2606FBFD
S113266003F6304400890880E4B24C8000204EE038
S11326702D1D641CDEE7DFF8CC0400689BB20C243B
S113268004FB03F4005982423ED3DFF8B804006827
S11326909BB20C2404FB03F40059DFF8A84424681B
S11326A09BB20C2505FB03F52C44E488DFF8945415
S11326B02D689BB20C2606FB03F63544AD886C43AB
S11326C02044824220D2DFF87C0400689BB20C24B0
S11326D004FB03F4204400890880DFF868040068E0
S11326E09BB20C2404FB03F40059101ADFF8544481
S11326F024689BB20C2505FB03F52C44E488B0FB4D
S1132700F4F04880002002E05B1C70E70620F0BC77
S113271070470000EC420020344200202DE9F04FC5
S113272089B00400208800F0B3FC80461FFA88F8C2
S11327304FF6FF70804501D10920F6E1DFF804046B
S113274000681FFA88F80C2101FB08F1084440894D
S1132750012801D1002020712079002817D0DFF84A
S1132760E40300681FFA88F80C2101FB08F108440F
S1132770C088DFF8D01309681FFA88F80C2202FB1E
S113278008F21144898848438146CA460BE0DFF8C1
S1132790B40300681FFA88F80C2101FB08F108440F
S11327A0C0888146CA46DFF89C0300681FFA88F88F
S11327B00C2101FB08F108444089012810D1DFF8FD
S11327C0840300681FFA88F80C2101FB08F14058C3
S11327D0618850F82100002802D100208146CA46B1
S11327E004A8FEF7EFFC19F003008DF805009DF82E
S11327F00500002805D09DF80500D0F104005AFA20
S113280080FA1AF108000600049816F108018842BB
S11328100AD24FF6FF70DFF8F01A08800120DFF8C3
S1132820EC1A0870112080E1DFF8E40AC449097841
S113283018225143084400698346BF48834555D153
S1132840DFF8CC0ABE49097818225143084440688D
S1132850001FB0EB0A00401C05002079002806D0B8
S113286055208DF8080055208DF80F0005E0AA20AA
S11328708DF80800AA208DF80F00B24800681FFAEE
S113288088F80C2101FB08F108440089ADF809001F
S11328906088ADF80B00DFF8780AA9490978182296
S11328A0514308444068DFF8681AA54A127818238F
S11328B05A438958401AB0EB0A00C01EADF80D0007
S11328C0DFF84C0A9E490978182251434058984928
S11328D0096808180C308346DFF8340A98490978E7
S11328E0182251430844C0F814B058E002AA5946CB
S11328F093480078FEF73AFC06AADFF8140A9049D8
S1132900097818235943084441698D480078FEF733
S11329102DFCDFF8FC098A490978182251434058F4
S1132920BDF81D1010FA81F005900598B0EB0A006F
S113293005002079002806D055208DF80800552080
S11329408DF80F0005E0AA208DF80800AA208DF864
S11329500F007C4800681FFA88F80C2101FB08F17D
S113296008440089ADF809006088ADF80B00DFF871
S1132970A00973490978182251434058281AADF820
S11329800D001BF1080BBAF1000F08D0DFF8800925
S11329906B490978182251430844C0F814B0002048
S11329A08DF8040016F10800049988420FD25146AC
S11329B02800FEF77BFC002806D10498B0EB0A003F
S11329C00490B5EB0A05EDE701208DF80400DFF86B
S11329D040095B490978182251434058281ABDF828
S11329E00D10884209D0DFF82809554909781822C2
S11329F051434058281AADF80D009DF804000028F2
S1132A0000F089804F4800681FFA88F80C2101FB08
S1132A1008F10844408901280CD14A4800681FFA8B
S1132A2088F80C2101FB08F14058618850F8210016
S1132A30070019E02079002809D0424800681FFAED
S1132A4088F80C2101FB08F1405807000CE03D48D0
S1132A5000681FFA88F80C2101FB08F140586188CE
S1132A6009FB01F108440700002F0AD03748006829
S1132A7000903B004A462900DFF8100600F074FC81
S1132A8000E00020002844D1002F02D10020ADF83E
S1132A900D002E480068009002AB08225946DFF86A
S1132AA0EC0500F061FC002831D1DFF8640824490A
S1132AB00978182251430844C0F810B0214800682E
S1132AC01FFA88F80C2101FB08F108444089012809
S1132AD01BD1BDF80D00002817D01A4800681FFA52
S1132AE088F80C2101FB08F14058618850F8210056
S1132AF001F06DFA134800681FFA88F80C2101FBF5
S1132B0008F14058618840F8215000200DE00D2064
S1132B100BE00C2009E04FF6FF70DFF8EC1708809B
S1132B200120DFF8E8170870112009B0BDE8F08F24
S1132B3038420020C44100200000FF3F3042002002
S1132B40EA420020940700203C54423E18420020F0
S1132B502DE9F04F85B00400DFF8B407DFF8B417AF
S1132B60097818225143084400698346DFF8A8070E
S1132B70834501D10A2085E220884FF6FF718842FF
S1132B8001D109207EE2208800F082FA82461FFAF1
S1132B908AFA4FF6FF70824501D1092072E20020C3
S1132BA08DF80C005FF0FF3002900B2081462079F5
S1132BB0002800F06881DFF8640700681FFA8AFAC9
S1132BC00C2101FB0AF1084480880600002007005C
S1132BD0DFF83C07DFF83C170978182251434058C6
S1132BE0DFF83C17096808180C30834569D36A4636
S1132BF05946DFF820070078FEF7B8FA9DF8000080
S1132C009DF80710884202D0BBF1080BE0E7BDF83D
S1132C1001002188884251D19DF80000AA2817D1CB
S1132C2001208DF80C00BDF80300310089B2884200
S1132C3002D2BDF8030006003800BDF8031080B2CC
S1132C40884202D2BDF803000700BBF1080BBFE7BE
S1132C509DF80000552831D1DFF8C00600681FFA3E
S1132C608AFA0C2101FB0AF108448088DFF8AC16CB
S1132C7009681FFA8AFA0C2202FB0AF21144C98875
S1132C8001FB00F2DFF88806DFF8881609781823BC
S1132C9059434058BDF8051010FA81F1DFF87C065D
S1132CA000681FFA8AFA0C2303FB0AF3C05800F0E9
S1132CB057FCCDF808B00020814602E0BBF1080BB8
S1132CC086E79DF80C00002800F0C180029810F1FE
S1132CD0010F0ED1DFF83806DFF83816097818220C
S1132CE051434058DFF83816096808180C300500BD
S1132CF002E0029808300500B0463800414680B230
S1132D0089B28842C0F0A380DFF80406DFF8041615
S1132D10097818225143084400698346AB45C0F042
S1132D2093806A465946DFF8EC050078FEF71EFAF0
S1132D309DF800009DF80710884202D0BBF1080BF3
S1132D40ECE79DF80000552802D1BBF1080BE5E73C
S1132D50BDF801002188884273D14046BDF80310B4
S1132D6080B288426DD1DFF8B40500681FFA8AFA90
S1132D700C2101FB0AF10844408901282BD1BDF83C
S1132D80050000280ED1DFF8940500681FFA8AFABE
S1132D900C2101FB0AF140581FFA88F8002140F881
S1132DA028104BE0DFF8740500681FFA8AFA0C213A
S1132DB001FB0AF140581FFA88F8DFF85415DFF8D0
S1132DC05425127818235A438958BDF80520114414
S1132DD040F8281032E0DFF8440500681FFA8AFA48
S1132DE00C2101FB0AF10844C288DFF82405DFF84E
S1132DF024150978182359434058BDF8051010FAD2
S1132E0081F1DFF8180500681FFA8AFA0C2303FB26
S1132E100AF3C058BDF80330DFF800C5DCF800C081
S1132E201FFA8AFA5FF00C0E0EFB0AFEF444BCF89B
S1132E3006C00CFB03F3184400F092FB002081460B
S1132E4002E0BBF1080B69E718F1010855E75FFAE6
S1132E5089F9B9F1000F13D10020DFF8C8141FFA63
S1132E608AFA062202FB0AF288544FF48070DFF8D3
S1132E70B4141FFA8AFA062202FB0AF2114488806B
S1132E804846C0B2FEE0DFF88804DFF88814097809
S1132E90182251434058DFF88814096808180C3088
S1132EA08345C0F0D4806A465946DFF86804007848
S1132EB0FEF75CF99DF800009DF80710884202D0E7
S1132EC0BBF1080BDFE7BDF801002188884240F020
S1132ED0BB809DF80000AA286DD1DFF8400400688B
S1132EE01FFA8AFA0C2101FB0AF1084440890128DF
S1132EF02BD1BDF8050000280DD1DFF820040068AF
S1132F001FFA8AFA0C2101FB0AF140586188002259
S1132F1040F821204CE0DFF8040400681FFA8AFA24
S1132F200C2101FB0AF140586188DFF8E423DFF843
S1132F30E4331B785FF0180C0CFB03F3D258BDF894
S1132F4005301A4440F8212032E0DFF8D00300684D
S1132F501FFA8AFA0C2101FB0AF10844C288DFF83F
S1132F60B003DFF8B0130978182359434058BDF86B
S1132F70051010FA81F1DFF8A40300681FFA8AFA39
S1132F800C2303FB0AF3C058BDF80330DFF88CC3ED
S1132F90DCF800C01FFA8AFA5FF00C0E0EFB0AFE82
S1132FA0F444BCF806C00CFB03F3184400F0D8FA50
S1132FB0002081464BE09DF80000552844D1DFF8FD
S1132FC05C0300681FFA8AFA0C2101FB0AF1084429
S1132FD0C288DFF83C03DFF83C130978182359430F
S1132FE04058BDF8051010FA81F0BDF80310DFF861
S1132FF02C331B681FFA8AFA5FF00C0C0CFB0AFCDA
S11330006344DB8803FB0101DFF8100300681FFA47
S11330108AFA0C2303FB0AF3C058BDF80330DFF827
S1133020FCC2DCF800C01FFA8AFA5FF00C0E0EFB3B
S11330300AFEF444BCF806C00CFB03F3184400F089
S11330408FFA0020814602E0BBF1080B1BE75FFA10
S113305089F9B9F1000F13D10020DFF8C8121FFA63
S11330608AFA062202FB0AF288544FF48070DFF8D1
S1133070B4121FFA8AFA062202FB0AF2114488806B
S11330804846C0B205B0BDE8F08F000064050020DA
S113309001000022DFF88402006892B20C2303FBD3
S11330A002F3184400894FF6FE73984211D0DFF8FA
S11330B06C02006892B20C2303FB02F318440089EB
S11330C00B009BB2984202D1100080B203E0521C64
S11330D0E0E74FF6FF7070477CB50400DFF8480264
S11330E090F8C200002812D168462100062201F09F
S11330F00BFADDE900010A000100DFF82C02FDF7FC
S113310003FE002801D0002072E0172070E00020A8
S11331100600DFF8140290F8C00005002800DFF86C
S1133120081291F8C110C0B288424AD02088DFF852
S1133130F811EDB2062202FB05F2895A88423CD10D
S1133140DFF8E401EDB2062101FB05F10844007942
S1133150012802D10120060033E0207901280BD197
S11331600120DFF8C411EDB2062202FB05F211447E
S113317008710120060024E06088DFF8AC11EDB28C
S1133180062202FB05F211444988884202D101203B
S1133190060016E068462100062201F0B5F9DDE9D3
S11331A000010A000100DFF88001FDF7ADFD0028F1
S11331B001D000201CE017201AE0681C10F01F0545
S11331C0ACE7F6B2002E12D168462100062201F0C7
S11331D09BF9DDE900010A000100DFF84C01FDF76D
S11331E093FD002801D0002002E0172000E0002019
S11331F076BD01214D4A1170704738B504000D00A9
S1133200684601F0D1F920002900C0B2C9B2884251
S113321002D32000C0B20BE0EDB2E4B2281B401C84
S113322000990919009AB2FBF0F200FB1210C0B227
S113323032BD10B5FDF76FFB0400E4B2002C02D0E0
S11332402000C0B20AE03A4800F096FF002804D0FB
S11332500020384908701D2000E0002010BD38B55A
S113326004005FF0FF31324800F099FF2000FDF7C1
S113327099FC05002E4800F0EAFF2800C0B232BDD8
S113328038B504005FF0FF31294800F088FF2000C2
S1133290FDF7E6FC0500264800F0D9FF2800C0B27F
S11332A032BD80B55FF0FF31214800F078FFFDF7B3
S11332B0ACF91F4800F0CBFF01BD10B55FF0FF3142
S11332C01B4800F06CFFFDF732F90400184800F0C9
S11332D0BEFF2000C0B210BDF8B504000D001600FA
S11332E05FF0FF31124800F05AFF3200D2B22900D9
S11332F0C9B22000FDF78CF807000D4800F0A7FFC5
S11333003800C0B2F2BD0000CA420020EB420020E7
S1133310103E0020EA4200200000FF3F94070020F6
S11333203842002060F1FF1F9CF0FF1FEF42002095
S1133330243F0020ED42002080B5074800680028A3
S113334009D1064801F048F9054A4021054801F031
S11333504AF90149086001BD1842002064050020B3
S11333608336000098F9FF1F2DE9F04F83B0040065
S11333700D0093461E000C9F15F003081FFA88F8F1
S1133380B8F1000F3BD0D8F1040A1FFA8AFAD345EA
S113339001D25846824604221FFA88F8B5EB080188
S11333A001A800F0DDF81FFA8AFA5246310001A89C
S11333B01FFA88F8404400F0D3F8012001F067F8C0
S11333C0009701AB04221FFA88F8B5EB080120002E
S11333D001F023F98146012001F064F8B9F1000FEE
S11333E001D0484654E01FFA88F8D8F10400451982
S11333F01FFA8AFA56441FFA8AFABBEB0A0B4FF6F5
S1133400FC7010EA0B0080461FFA88F8B8F1000F30
S11334101DD0012001F03BF8009733001FFA88F813
S113342042462900200001F0F8F88146012001F00D
S113343039F8B9F1000F01D0484629E015FA88F5AA
S11334401FFA88F846441FFA88F8BBEB080BBBF157
S1133450000F1CD00422290001A800F081F85A466C
S1133460310001A800F07CF8012001F010F8009769
S113347001AB04222900200001F0CFF8814601208D
S113348001F010F8B9F1000F01D0484600E0002027
S1133490BDE8FE8F2DE9F04104000D0016001F0069
S11334A0012000F0F4FF3B0032002900200001F06D
S11334B013F98046012000F0F5FF4046BDE8F08195
S11334C02DE9F04704008A4615001E00089F5FF0AE
S11334D0000860688146CA4507D3A06810EB09005C
S11334E0824502D2BAEB090A01E020208046B8F1F5
S11334F0000F32D120688146312089F8000020680D
S1133500C01D8146012089F800002068801D814685
S11335105FEA1A4089F800002068401D81465FEA8E
S11335201A2089F800002068001D814689F800A04F
S113353020680B308146280080B2000A89F8000018
S113354020680A30814689F8005020680930814695
S113355089F800602000B84780464046BDE8F087FF
S1133560002A05D00B780370401C491C521EF7E753
S113357070472DE9F0418C4686460B0004000D008F
S11335800600042A30D388465FEAC8780CD58C46F6
S113359086469CF800808EF800801CF1010C1EF118
S11335A0010E61467046521E88465FEA88780AD545
S11335B00B000400B3F80080A4F800809B1CA41C3A
S11335C019002000921E0D0006005FEA920847468B
S11335D0002F07D0D5F80080C6F800802D1D361DB9
S11335E07F1EF5E7290030005FEA827809D50B00D9
S11335F00400B3F80080A4F800809B1CA41C1900EC
S113360020005FEAC27803D591F8008080F800803A
S1133610BDE8F081002A09D01044401E002A05D0DC
S11336200B780370401E491C521EF7E7704710B414
S11336300300002A09D018780C78A04201D0002099
S113364004E0491C5B1C521EF3E7012010BC7047C8
S1133650002A02D0521E8154FAE7704788420FD0E4
S1133660884207D2002A0BD00B780370401C491CF7
S1133670521EF7E7002A03D0521E8B5C8354F9E7ED
S1133680704770B5040020680600307850F0800060
S11336903070206806003078000607D4206A5FF096
S11336A0FF318842F7D0206A8047F4E7206806009B
S11336B0307810F031000500280070BD002142016F
S11336C002F18442121D116070470121420102F18E
S11336D08442121D1160704770B504000D0016007D
S11336E0042D08D37722DFF8D816DFF86C0701F031
S11336F041F8AFF3008014EB0510DFF8601711EB0D
S11337004010F6B2066070BD38B504000D00042DFB
S113371008D39122DFF8A816DFF83C0701F02AF855
S1133720AFF3008014EB0510400100F1844010F564
S113373004500121016031BD70B504000D00160074
S1133740042D08D3C922DFF87816DFF80C0701F03E
S113375011F8AFF3008014EB051010F580700660CB
S113376070BD38B504000D00042D08D3E622DFF83F
S11337705016DFF8E40600F0FDFFAFF3008014EB11
S1133780051010F58270006832BD10B5040001F018
S1133790D9F810BDDFF83417C0B2085C10F0E000AF
S11337A07047DFF82827C0B2125C12F01F020A43E8
S11337B0DFF81837C0B21A547047DFF81017C0B2D8
S11337C0085C10F01F007047DFF80027C0B2125CDD
S11337D012F0E0020A43DFF8F436C0B21A5470471C
S11337E000B5DFF8EC160968A1FB00014FF47A720A
S11337F0002301F08DF900BD10B586B00FF2D100A1
S113380001F02BFB01F08AFBDFF8C41608604FF6C9
S1133810FF740820FFF7E4FF201ADFF8B8160880C9
S11338200420FFF7DDFFDFF8B01608600021DFF8A1
S1133830AC0600F056FD0400E4B2002C06D00023D0
S11338400022DFF89C16002001F0C0FB04A80390BE
S1133850002002900020019002200090DFF88436BE
S11338604FF48062DFF880160FF2152000F0E2FBBF
S11338700400E4B2002C06D000230022DFF8601616
S1133880002001F0A3FB06B010BD10B50020040019
S1133890132C0ED2DFF83406005D002807D18021F6
S11338A02000C0B2FFF77DFF2000C0B202E0641C1C
S11338B0EEE7FF2010BD10B504002000C0B200F0F8
S11338C091F80020DFF80416E4B2085510BD00009A
S11338D080B501F044FB5FF48031DFF8000600F0AE
S11338E066FD01BD10B504002000C0B2FFF752FF11
S11338F0202801D1012000E00020C0B210BD2DE934
S1133900F84304000D0016001F00DDF82080E4B227
S1133910132C05DADFF8B405E4B2005D002800D109
S113392042E02000C0B200F05DF83000FFF758FF1D
S1133930814601F004FBDFF8B815E4B2142202FB5F
S113394004F211448860B9F1000F01D101208146CD
S11339502900C9B22000C0B2FFF736FFDFF8900596
S1133960E4B2142101FB04F140F80190DFF8800572
S1133970E4B2142101FB04F10844C0F80490DFF818
S11339807005E4B2142101FB04F10844C760DFF8B8
S11339906005E4B2142101FB04F10844C0F810806E
S11339A02000C0B200F0CFF9BDE8F183F8B50400FF
S11339B00D0016001F00009733002A00022120008A
S11339C0C0B2FFF79CFFF1BDF8B504000D0016006E
S11339D01F00009733002A0001212000C0B2FFF726
S11339E08EFFF1BD38B50400E4B2132C05DADFF81C
S11339F0DC04E4B2005D002800D140E0012000F0C6
S1133A0046FD2000C0B2FFF7C5FE0500EDB2202D33
S1133A1002D0EDB2402D2FD180212000C0B2FFF79B
S1133A20C0FE2000C0B2FFF7C8FEC0060AD5DFF80A
S1133A30C4040078401EDFF8BC140870DFF8B40436
S1133A40007809E0DFF8A4040078401EDFF89C1435
S1133A500870DFF898040078DFF8900400780028F4
S1133A600AD1DFF890040078002805D15FF4803192
S1133A70DFF8680400F09BFC012000F013FD31BD69
S1133A802DE9F14F82B001A800905FF0FF330022CE
S1133A907FF07F41DFF8440400F037FC012000F0A0
S1133AA0F6FC01F04CFA0500012000F0FBFCDFF805
S1133AB048040088281A0600DFF83C040580DFF873
S1133AC0140400880400002082465FFA8AFABAF1DE
S1133AD0130F80F0E7805046C0B2FFF76EFE8346B6
S1133AE0012000F0D4FC5046C0B2FFF753FE8146DB
S1133AF05FFA89F9B9F1400F1ED120215046C0B2B6
S1133B00FFF74FFE012000F0CDFCDFF8E4035FFA7D
S1133B108AFA142101FB0AF108444068A4B2A042C5
S1133B2009D2DFF8CC035FFA8AFA142101FB0AF107
S1133B30084440680400B2E0012000F0B3FC5FFADE
S1133B4089F9B9F1200F40F0AA80B6B2DFF8A003DA
S1133B505FFA8AFA142101FB0AF10844406886429C
S1133B603BD2012000F093FCDFF884035FFA8AFA69
S1133B70142101FB0AF108444068B6B2801BDFF847
S1133B8070135FFA8AFA142202FB0AF211444860A5
S1133B9001F0D5F9DFF858135FFA8AFA142202FB10
S1133BA00AF211448860012000F07CFCDFF8400335
S1133BB05FFA8AFA142101FB0AF108444068A4B2AE
S1133BC0A04209D2DFF828035FFA8AFA142101FB24
S1133BD00AF108444068040061E00D211BEA010F6A
S1133BE00ED00020DFF808135FFA8AFA142202FBD1
S1133BF00AF2114448605046C0B2FFF7F3FE37E0C2
S1133C00012000F044FCDFF8E8025FFA8AFA14218C
S1133C1001FB0AF14058DFF8D8125FFA8AFA14223D
S1133C2002FB0AF21144486001F089F9DFF8C0127E
S1133C305FFA8AFA142202FB0AF211448860DFF860
S1133C40B0025FFA8AFA142101FB0AF108444068C1
S1133C50A4B2A04209D2DFF898025FFA8AFA1421CA
S1133C6001FB0AF1084440680400012000F01AFC3A
S1133C70DFF87C025FFA8AFA142101FB0AF1084496
S1133C80C06880464046002809D0DFF864025FFA25
S1133C908AFA142101FB0AF108440069C0471AF1A9
S1133CA0010A12E7012000F0F2FB01F048F90700D5
S1133CB07F1B3800210080B289B2884205D3DFF827
S1133CC018020068C01904000CE0A4B2BFB2E01BE3
S1133CD0DFF804120968884204D2DFF8FC010068A6
S1133CE0C01904002C19DFF804020078002804D15C
S1133CF0DFF80002007800280FD0A4B2200001F001
S1133D0024F9DFF8F8010078002811D101F0F8F85F
S1133D100120DFF8E81108700AE0DFF8E00100781C
S1133D20002805D001F0F3F80020DFF8D011087066
S1133D30012000F0B7FBDFF8C801007800287FF409
S1133D40A2AEBDE8F78F10B50400012000F09FFB80
S1133D502000C0B2FFF71EFD802825D12000C0B28C
S1133D60FFF72BFDC0060AD5DFF888010078401C58
S1133D70DFF880110870DFF87C01007809E0DFF8D3
S1133D806C010078401CDFF864110870DFF85C01F6
S1133D90007840212000C0B2FFF703FD5FF48031BA
S1133DA0DFF8380100F003FB012000F07BFB10BDBD
S1133DB080B500F007F801BD80B500F051F804BDEE
S1133DC0CCAE020038B5504804685048007800284A
S1133DD040D1012000F05BFB01204C490870002118
S1133DE0002001F043F92000FFF76FFC0020FFF7EB
S1133DF0CCFC05004348B5FBF0F0421E0021200036
S1133E00FFF79AFC5FF0FF3201212000FFF794FCDA
S1133E105FF0FF3202212000FFF78EFC0122012116
S1133E202000FFF759FC012202212000FFF754FC77
S1133E3000212000FFF768FC01212000FFF764FC4B
S1133E4002212000FFF760FC2000FFF737FC01206F
S1133E5000F028FB31BD0000ACBE02000821004286
S1133E602DE9F84F28480668012000F010FB0121D5
S1133E703000FFF776FC009002213000FFF771FC60
S1133E80804601213000FFF76CFC0700022130005E
S1133E90FFF767FC8246012000F004FB0098B8425B
S1133EA004D35FF0000944464D4603E05FF0000B85
S1133EB054465D46250000243800002124184D4155
S1133EC0E443ED4320002900BDE8F48FC8400020FE
S1133ED094420020DA42002090420020E03E00207C
S1133EE0F937000038270020D0CC0200FA42002025
S1133EF0E4E8FF1FFB420020D8420020FC420020DF
S1133F00D2ED000040420F0018CF0200FD42002015
S1133F10F8B5434C434D444E002044490880608822
S1133F200700FFB23900280001F0D4F8FFB2002FD7
S1133F300FD03100280001F0D7F8F5603B48008825
S1133F40401C3A4908802088304410F110067F1E36
S1133F50ECE72088E881A088A881A889002801D1FD
S1133F60002002E01035241DD9E7F2BD70B504002D
S1133F702C4D012000F08BFA002C1DD0E889A042C2
S1133F8015D3280001F0FEF80600002E0AD01036E2
S1133F9026480088401E25490880012000F082FA46
S1133FA0300013E0A889A04206D3A8890400A88998
S1133FB0002801D01035DFE7002300221C4900202F
S1133FC001F004F8012000F06DFA002070BD70B516
S1133FD00400002C01D1032020E0012000F057FA56
S1133FE054F8045C0F4EB5420ED110480088401CB2
S1133FF00E490880B4F11001280001F075F8012081
S113400000F050FA002009E0B089002804D1012012
S113401000F048FA032001E01036E4E770BD000028
S1134020CC050020D8F7FF1F0080FF1FC8420020E6
S11340306D3F00002DE9F04788B005008A46160060
S11340401F00109CDDF84480DDF84C9000A820216E
S113405001F022F90095B6B20196B6B2002E01D154
S1134060002000E038000290A4B2E01D0390CDF8D7
S1134070188000A801F075FCC9F80000D9F8000008
S1134080002801D0002000E0012008B0BDE8F0873E
S113409080B5002001F097FA01F0F4F902BD10B5E3
S11340A082B0040000A9200001F0F3F90098C01FB9
S11340B080B216BD38B504000D0000AAADB2E91DEA
S11340C0200001F0F6F9002801D1002000E00120D1
S11340D032BD10B5040014F1010F01D100200DE030
S11340E001F072FD00FB04F004004FF47A70B4FB9D
S11340F0F0F4002C01D101200400200010BD38B5DB
S113410004000D00EDB22900200001F018FE002883
S113411001D1002000E00120C0B232BD70B504001E
S11341200D00002D09D1200001F072FE002801D0FD
S1134130002000E00220C0B211E02800FFF7C9FF10
S113414005002900200001F003FF0600002E01D124
S1134150002004E0372E01D1022000E0012070BDD0
S113416010B50400200001F067FE002801D10020F2
S113417000E00120C0B210BD10B50400002C01D134
S113418001200BE00020E0610121200001F0D7FDB7
S1134190002801D1002000E00120C0B210BD2DE9AB
S11341A0F04104000D00012701F006FA8046B8F141
S11341B0000F09D140F22D12DFF82813DFF828038D
S11341C000F0D8FAAFF30080002C01D101203CE0CC
S11341D0E069404501D1012037E0002D0AD101F00A
S11341E027FF200001F014FE002801D000261DE066
S11341F037261BE015F1010F06D101F019FF20004D
S113420001F052FE060011E02800FFF762FF0500EE
S113421001F00EFF002D05D02900200001F098FECA
S1134220060003E0200001F03FFE0600002E04D14A
S1134230C4F81C800020070003E0372E01D10220BF
S1134240070001F005FF3800C0B2BDE8F08170B589
S11342500400012501F0B0F90600002E07D14FF447
S1134260B772A049A04800F085FAAFF30080002C93
S113427001D1012015E0E069B04201D0012010E035
S113428001F0D6FE0020E061200001F0D5FD0028F9
S113429002D10020050000E0E66101F0D9FE28000B
S11342A0C0B270BD38B50400002C07D14FF4CD72F4
S11342B08C498E4800F05EFAAFF3008001F0B8FE3E
S11342C0200001F09EFD002804D10020E0610020C0
S11342D0050001E00120050001F0BAFE2800C0B28B
S11342E032BD70B504000D00EDB2002D01D10121E5
S11342F000E00021200001F063FF0600002E01D140
S1134300002000E00120C0B270BD2DE9F843040094
S11343100D0016001F00DDF820800020C8F8000002
S1134320002F27D101F084FEF6B2002E03D0A0693D
S11343302840A84205D0F6B2002E17D1A069284221
S113434014D001233200D2B22900200002F02CF84C
S1134350814601F07DFEB9F1000F05D101F039FF6E
S1134360C8F80000002020E001201EE001F070FEEB
S113437002201AE03800FFF7ACFE07003B003200D1
S1134380D2B22900200002F00FF88146B9F1000FE3
S113439005D101F01EFFC8F80000002005E0B9F5C2
S11343A0447F01D1022000E00120BDE8F28338B54A
S11343B004000D002900200001F013FF002801D1A2
S11343C0002000E00120C0B232BDF8B504000D00A9
S11343D01600B6B2B000C01C8208ADB2290020009D
S11343E002F06EF80700002F01D1200000E0002049
S11343F0F2BD38B504000D0000222900200002F0AF
S11344001DF9002801D1002000E00120C0B232BD16
S1134410F8B504000D001600002E09D1002000900C
S1134420002300222900200002F055F807000CE0C8
S11344303000FFF74EFE06000020009033000422F7
S11344402900200002F047F80700002F01D10020C6
S11344500AE040F28370874203D040F282708742C0
S113446001D1022000E00120F2BD10B504002000BB
S113447002F051FB10BD10B50400200002F02DFA2B
S1134480002801D1002000E00120C0B210BD10B509
S11344900400E4B2012C02D101F0CAFD01E001F0F4
S11344A069F810BD10B50400E4B2012C02D101F08A
S11344B0CFFD01E001F06EF810BD38B504000D0029
S11344C000222900200001F0DFFD32BD80B508483C
S11344D002F0E0FB002801D1002000E00120C0B27E
S11344E002BD0000F8BA0200F4CC0200B8CA02000F
S11344F028BA020080B502F0A7FC002801D10020F0
S113450000E00120C0B202BD62B38B0708D0521E86
S113451011F8013B00F8013B00F024808B07F6D131
S1134520830740F0208000BF103A07D330B4B1E8CD
S11345303810103AA0E83810F9D230BC530724BF21
S1134540B1E80810A0E8081044BF51F8043B40F853
S1134550043BD20724BF31F8022B20F8022B44BFBE
S11345600B7803707047083A07D3B1E80810083A8B
S113457040F8043B40F804CBF7D25307E4E7036860
S11345801AB95A1E026008467047197811B94FF0DB
S1134590FF307047591C0160187870470C48006858
S11345A00C4908600020704710B50400002C0DD0A1
S11345B00848006841F2BB71484300F203500549C2
S11345C00860042203492000FEF7CAFF10BD000062
S11345D06080044054420020010000200861002053
S11345E0886100207047F0B4B2F1010C63461E00EC
S11345F007005FEA510C63465FF0000C6546ADB2FC
S11346009D4207D2B6F800C06446B61C3C80BF1C6D
S11346106D1CF4E7401CF0BC70472DE9F84F040012
S11346200D0016001F00DDF828805FF0000916F069
S1134630030F03D04FF4005081464AE0606883467C
S11346405D4507D3A06810EB0B00854202D2B5EBA1
S11346500B0501E020208146002E3AD0B9F1000F6D
S113466037D12068834631208BF800002068C01DB4
S1134670834606208BF800002068801D8346280CA2
S11346808BF800002068401D8346280A8BF8000040
S11346902068001D83468BF80050002082465FFA94
S11346A08AFABAF1040F0DDA206850FA8AF0083059
S11346B083465FFA8AFA17F80A008BF800001AF1A9
S11346C0010AECE72000C04781462D1D361F3F1D1F
S11346D0C2E74846BDE8F28F2DE9F04704008A4658
S11346E015001E00002760688146CA450AD3A068E9
S11346F010EB0900824505D2BAEB090A4FF40060B9
S1134700804603E02020070000200500B8F10100E6
S1134710054202D04FF400500700002D27D0002F8F
S113472025D120688146312089F800002068C01D09
S11347308146092089F800002068801D81465FEACF
S11347401A4089F800002068401D81465FEA1A205B
S113475089F800002068001D814689F800A0200027
S1134760B0470700B5EB080518EB0A0AD5E738008F
S1134770BDE8F08700B583B00091019202906A46CB
S113478004491820ABBE002801D102F0DBFB03B0C2
S113479000BD00BF1010020010B4C9B24A0910EBEA
S11347A08202C9B211F01F039B0013EB4212DFF81F
S11347B0203301249C5010BC7047C9B24A0910EB45
S11347C08200C9B211F01F01890011EB4010DFF81B
S11347D000130858002801D0012000E00020C0B2D6
S11347E070470068800C10F0030070474001DFF848
S11347F0E4120858C0B2704741F244010858000F4F
S1134800C0B2704741F244010858000E10F00F0086
S1134810704741F244010858000C10F00F00704733
S11348204FF47A70704780B5DFF8AC0202F0B9FC3F
S113483002BD80B5DFF8A402FFF7D8FF02BD000077
S113484070B504000D000026E4B2200000281AD040
S1134850012818D002281AD003281CD005281ED0FD
S1134860062820D0072822D00B2824D00C2826D0B4
S11348700D2828D00E282CD0102830D0112834D060
S1134880122838D03BE000F041F828603BE000F00B
S11348904BF8286037E000F055F8286033E000F06A
S11348A05FF828602FE000F077F828602BE000F034
S11348B09AF8286027E000F061F8286023E0FFF709
S11348C0B2FF28601FE0DFF8100202F015FC286038
S11348D019E0DFF8040202F031FC286013E0DFF88D
S11348E0F80102F070FC28600DE0DFF8EC0102F042
S11348F03CFC286007E0FFF793FF286003E00020FA
S11349002860022006003000C0B270BD10B5DFF888
S1134910C80102F058FC0400DFF8C001FFF76CFF87
S1134920401CB4FBF0F010BD10B5DFF8AC0102F090
S11349304AFC0400DFF8A401FFF75EFF401CB4FB4F
S1134940F0F010BD10B5DFF8900102F03CFC04005B
S1134950DFF88801FFF756FF401CB4FBF0F010BDF0
S113496010B5DFF8740102F02EFC0400DFF86C01CE
S1134970FFF74FFF401CB4FBF0F010BD80B5FFF70C
S113498058FF002804D1DFF860010068C00B02E082
S1134990DFF85401006802BD38B5DFF84001FFF7C5
S11349A020FF0400E4B22000002804D002280DD027
S11349B0032810D013E0DFF834010068B0F5004F8D
S11349C002D14FF4004500E000250AE0DFF81801A9
S11349D00068050005E0FFF723FF050001E0002063
S11349E00500280032BD80B5DFF8F400006802F04D
S11349F02BFC002803D0DFF8F400006800E000205E
S1134A0002BD10B50400052C09D34FF42372DFF85E
S1134A10D410DFF8DC00FFF7ADFEAFF30080DFF861
S1134A20D400215CDFF8B400FFF7B6FE10BD10B56A
S1134A300400002C09D04FF42F72DFF8A810DFF81F
S1134A40B800FFF797FEAFF30080DFF8B000215CF9
S1134A50DFF88800FFF7A0FE10BD10B50400002C9D
S1134A6009D04FF43672DFF87C10DFF88C00FFF7C2
S1134A7081FEAFF30080DFF88400215CDFF85C0086
S1134A80FFF79BFE10BD10B50400032C07D34FF4B1
S1134A90477214491A48FFF76DFEAFF300801948B6
S1134AA0215C0E48FFF778FE10BD10B50400022CFF
S1134AB007D340F24D320B491348FFF75BFEAFF3C7
S1134AC000801248215C0548FFF766FE10BD000017
S1134AD0000502429000024200400640007004407B
S1134AE024CF020084B60200A4420020A042002089
S1134AF080B7020060CE020080B90200CB2B010017
S1134B00B8B902000CCF0200F0B902004A6F0000ED
S1134B101B4213D1094236D12AB18446B0FBF2F0CC
S1134B2002FB10C2704702F09DBBFCD3002200239D
S1134B3070470B000200002100207047904271EB87
S1134B40030CF6D370B5B1FA81F4B3FA83F52C1BD8
S1134B50A340C4F1200532FA05F63343A2405FF0C6
S1134B600046E64002E05B085FEA3202841A71EB19
S1134B70030524BF204629467641F4D302000B00E6
S1134B803000002170BD012ACFD970B5140C20D09B
S1134B90B1FA81F4B2FA82F5C4F120046419B4F1D3
S1134BA02006D6D3B2405FF00044F440002502E072
S1134BB052085FEA3303C61A71EB020E24BF304673
S1134BC0714664416D41F3D302000B0020002900BB
S1134BD070BD0C46B1FBF2F102FB11452D0445EA10
S1134BE01045B5FBF2F402FB145580B240EA0545CA
S1134BF0B5FBF2F002FB105240EA044070BD82683B
S1134C00521C8260426832B10268531C0360117006
S1134C104168491E41607047012110F01F02914014
S1134C20DFF8682340B2430942F82310704701219A
S1134C3010F01F029140DFF8582340B2430942F8B4
S1134C402310704710B440B2002809D50A01DFF8D8
S1134C50443340B210F00F04234403F8042C04E05E
S1134C600A01DFF8343340B21A5410BC70470268AA
S1134C7032F01802C9B2CB0013F018031A430260D1
S1134C8070470268D208D200C9B211F007031A4370
S1134C9002607047006810F007007047012142016C
S1134CA002F18442183211607047400100F18440DF
S1134CB018300068002801D0012000E00020C0B2B4
S1134CC070470021420102F184421C321160704796
S1134CD0021D1268120C120489B20A43031D1A60E1
S1134CE07047001D006880B2704710F10802126816
S1134CF0120C120489B20A4310F108031A607047B7
S1134D0010F14C021268120C120489B20A4310F119
S1134D104C031A60704770B504000D001600EDB224
S1134D20082D07DB40F293129C499D48FFF722FDB2
S1134D30AFF30080EDB214EBC5009A4911EB4010BB
S1134D40F6B216F001010160EDB214EBC50096490C
S1134D5011EB40113000C0B2400810F001000860AF
S1134D6070BD38B504000D00EDB2082D07DB40F22C
S1134D70E5128A498A48FFF7FDFCAFF30080EDB2E3
S1134D8014EBC500894911EB40100121016031BDCC
S1134D9038B504000D00EDB2082D07DB4FF4FF72A7
S1134DA07E497F48FFF7E6FCAFF30080EDB214EBD9
S1134DB0C5007F4911EB40100068002801D0012094
S1134DC000E00020C0B232BD70B504000D00160032
S1134DD0EDB2082D07DB4FF4067270497048FFF7F7
S1134DE0C9FCAFF30080B6B2EDB214EBC5001030CD
S1134DF0066070BDC9B2002905D001226D4B13EBCA
S1134E0040131A6004E001226B4B13EB40131A6049
S1134E10704738B504000D00674810EB4410006873
S1134E20002807D140F2CA225C496448FFF7A2FC7B
S1134E30AFF30080EDB2624810EB4410056031BD61
S1134E4010F18402126852095201C9B211F01F0311
S1134E501A4310F184031A60704770B5040059486E
S1134E6006680020FFF70FFE300002F0FDF9012173
S1134E703000FFF7CEFF07213000FFF702FF0021CB
S1134E803000FFF7F4FE00213000FFF7D9FF0021C6
S1134E903000FFF7AFFF00213000FFF731FF0021A2
S1134EA03000FFF715FF4FF6FF713000FFF71DFFCD
S1134EB0012200213000FFF72EFF012200213000E3
S1134EC0FFF782FF404890F9000005003000FFF72B
S1134ED0E5FE00213000FFF744FF21006DB22800F9
S1134EE0FFF7EBFA0821280040B2FFF7ABFE2800D9
S1134EF040B2FFF79CFE280040B2FFF78DFE70BD64
S1134F0080B501212F480068FFF7B1FE01BD80B5CF
S1134F1000212C480068FFF7AAFE01BD10B582B03D
S1134F2069460320FFF78CFC26480068FFF7B2FEB1
S1134F30040000980121A140B0FBF1F016BD80B53A
S1134F4020480068FFF7CDFE02BD10B50400220022
S1134F5092B200211B480068FFF736FF10BD10B560
S1134F601848046800212000FFF712FF002804D02D
S1134F7000200F4911EB441108602000FFF795FE53
S1134F80002802D02000FFF79CFE10BD00E100E0E5
S1134F9080E200E018ED00E000E400E070AF020001
S1134FA0D4BE0200900100429401004298010042E4
S1134FB09C010042980E0042880A004214C3020079
S1134FC0800A004224CD02001CCF0200F8B5040080
S1134FD00D0016001F0004B400B504BC019204BC0B
S1134FE00B4804600A484560094886600848C76061
S1134FF00098074908610020054948610120FFF72E
S113500046FA0FBE00BF00BF00BF00BFFDE700BFF0
S1135010803F002000214201DFF89C309950704706
S113502091F00102D2B2430113F184431A60704734
S113503010B4C9B24A0910EB8202C9B211F01F03BD
S11350409B0013EB4212DFF8743001249C5010BC17
S1135050704710B50400FFF775FC10BD10B50400CF
S1135060B721DFF85C00FFF7E3FF10BD70B5040063
S11350700D00002C08D03D22DFF84810DFF848006E
S1135080FFF778FBAFF30080DFF8400050F82460AE
S11350902000FFF7E3FF3000FFF7BCFF2900C9B28F
S11350A03000FFF7BDFF2000FFF7D3FF0021DFF83A
S11350B02020C2E9000170BD040000420005024244
S11350C00070044060BB02003CC1020018CF020023
S11350D0F841002000220260002242604181002247
S11350E0028170478068704738B504000D000120C4
S11350F0FFF7CDF96089002808D0608921898842AA
S113510004D10120FFF7CEF9012013E02089002803
S113511001D1256001E06068056060686860002076
S11351202860AC6065602089401C20810120FFF765
S1135130B9F9002032BD38B504000D000120FFF795
S1135140A6F96089002808D060892189884204D1A1
S11351500120FFF7A7F9012013E02089002801D1DD
S1135160656001E020684560206828600020686070
S1135170AC6025602089401C20810120FFF792F952
S1135180002032BD38B504000120FFF780F9002C5F
S113519002D02089002804D10120FFF783F90020E0
S11351A015E0206805002089401E20812089002800
S11351B002D10020606002E000202968486028686D
S11351C020600020A8600120FFF76CF9280032BDA0
S11351D00068704710B50400A068002801D10320BE
S11351E025E00120FFF753F96068002802D1206808
S11351F0A16808602068002802D16068A16848603E
S11352006068002802D0206861680860206800286F
S113521002D0606821684860A0680089401EA168C7
S113522008810020A0600120FFF73CF9002010BD98
S113523038B504000D00A068002801D1032028E03F
S11352400120FFF724F9A068408900280AD0A0684B
S11352504089A1680989884204D10120FFF722F915
S1135260012016E06068002802D1A068056001E012
S113527060680560A068A860A0680089401CA168F7
S113528008812C606068686065600120FFF70AF996
S1135290002032BD00897047002202F019B802686C
S11352A0531C0360117070472DE9F34F83B0DFF88E
S11352B0000800688246039800280CD00398000C6C
S11352C0ADF80200BDF80200DAF8041289B288428F
S11352D001D01220CCE0039800F075F98346BBF1AD
S11352E0000F03D01AF15000834501D11220BFE012
S11352F01AF5927000F0D8FD00F09AFEDBF8080071
S1135300092807D100F0A4FE1AF5927000F094FD6C
S11353100020ADE0DBF8080002280CD1DAF81C000C
S113532083453DD0DBF804100800DBF800100C00C6
S11353300460606034E0DBF80800C0051DD5DBF8CC
S11353400800C0052CD5DBF804100800DBF80010B9
S11353500D0005606860BAF8E401401EAAF8E40193
S1135360DBF8080030F48070CBF80800DBF80800A4
S113537050F00300CBF8080012E0DBF808008005C9
S11353800ED5DBF804100800DBF800100E000660F0
S11353907060DBF838000089401EDBF838100881A3
S11353A0DBF8080040050ED5DBF840100800DBF8F8
S11353B03C100F0007607860DBF838000089401E5D
S11353C0DBF8381008810920CBF8080000F040FE13
S11353D0DBF80C00ADF80000DAF81C0001905FF077
S11353E00040CBF80C00BAF80001012806D10120D6
S11353F0CAF804010020CAF808010EE0BDF8000054
S1135400DAF80411884208D2BDF80000CAF8040191
S1135410DBF870006C38CAF80801DBF8701008007B
S1135420DBF86C108846C0F80080C8F80400BAF8AD
S11354300001401EAAF800011AF5927000F0FCFC6D
S11354400198834510D100F0F3FDDBF80410080047
S1135450DBF800108946C0F80090C9F804005846EB
S113546001F04FFF01F056FF584601F04AFF0020BB
S113547005B0BDE8F08F10B5040000212000FFF74F
S113548013FF10BD0100002901D1002000E0C8680D
S1135490704770B504000D00200000F094F8060079
S11354A0002E01D1122003E0306AC0892860002058
S11354B070BD2DE9F84F04000D001600DFF8F0056B
S11354C000680700D7F8F000A84201D20C204FE092
S11354D0200000F078F88146B9F1000F01D11220C4
S11354E046E000F0A5FDD9F82000C0893060386A94
S11354F080467FF00F0000FB0580C9F82000D9F832
S11355005000002809D0D9F81C00C089854208D26F
S11355102900484601F0F8FF03E02900484601F05D
S1135520F3FFD9F8080040F2292188421BD1D9F8A9
S11355303800103882469AF80C00000713D5D9F8C1
S113554004100800D9F800108B46C0F800B0CBF85E
S11355500400BAF81800401EAAF8180049461AF1C7
S1135560100001F0B1FF01F0D7FE00F071FD002042
S1135570BDE8F28F38B5DFF8380500680400E0694B
S1135580050000F055FDA86A50F48050A86200F0B0
S11355905FFD31BD38B5DFF8180500680400E06927
S11355A0050000F045FDA86A30F48050A86201F0BF
S11355B0B3FE00F04DFD31BDDFF8F41409680800B6
S11355C0C069C0687047F8B50400DFF8E4040068F7
S11355D00700002C01D1F86920E0F86D844202D163
S11355E017F150001AE000F023FDD7F8F8006C38EA
S11355F00500B7F8000106003000461E00280AD056
S1135600E868A04203D100F023FD280006E0E86E1C
S1135610B0F16C05F0E700F01BFD0020F2BD0100C5
S1135620DFF88C341B681A00138B002B03D0536BE8
S1135630DB68180002E0D369DB6D1800002901D093
S1135640002807D1138B002B02D0536BD96001E0E3
S1135650D369D96570472DE9FE4F04000D0016008B
S11356601F00DFF84C0400688046002C18D000208E
S11356708DF80800AA46D8F814028346DBF8000027
S1135680002806D0DBF80000A04202D01BF1200B5A
S1135690F4E7DBF80000002809D10020834606E087
S11356A0AB46DBF81800824601208DF80800BBF1F8
S11356B0000F04D11020FFF7B2FF002014E018F50A
S11356C0927000F0F1FB019700969DF80830524665
S11356D0D8F81C00C168584600F013F8814618F544
S11356E0927000F0A9FB4846BDE8FE8F38B5DFF89C
S11356F0C00300680400E06905000020FFF7BBFE5A
S113570031BD2DE9F24F86B0040015001E00109F34
S1135710DDF84480DFF8980300680590002F18D066
S1135720C246BAF5B67F04D80220FFF778FF0020FE
S11357307CE000233A0003A9504600F09BF8814620
S11357400398BAEB000AF6B2002E1CD0BAF1200A74
S113575019E0A0688246BAF1D90F01D2D820824656
S11357601AF10F005FEA101A5FEA0A1AF6B2002E65
S113577002D01AF1200000E050460023002203A9C1
S113578000F078F881460320C9F80800D9F88800A9
S1135790002803D0D9F88800834605E0039810EB6D
S11357A009008346C9F888B0F6B2002E0ED0CDF8B1
S11357B010B01BF1200B049821002022FEF7B4FE48
S11357C004980400206850F0004020605146584678
S11357D000F02FF80598006AE1687FF00F0202FBE1
S11357E0010002900298C9F81C000298C9F8200030
S11357F002988089A9F824006069C9F82800002F5C
S113580005D0D9F8280050F02000C9F828000195E7
S1135810029880890090230052465946484601F078
S1135820AFFE002801D1002000E0484607B0BDE8E3
S1135830F08F8908491C491E002903D09E4A026042
S1135840001DF8E7704710B4994C24682100C4691E
S11358502200546823004C6A944200D24A62022413
S1135860846043601C6804601860506010BC70471A
S1135870416970472DE9FB4F82B014005FF0940832
S11358808B4800680500B5F800014FF6FE718842A8
S113589001DB002059E00398C0F80080002C08D0F8
S11358A0A2465FF0000B5A464146504601F0ACFE5A
S11358B00BE0404600F087FF8246BAF1000F04D0A7
S11358C0029800F061FFCAF88800D5F80401814607
S11358D0D5F808010600D5F804021FFA89F959EA37
S11358E00040CAF80C00002E03D115F1F800009016
S11358F002E016F16C0000901AF16C02009915F1A7
S1135900F80001F0F4FECDF804A001980600F06E52
S11359106C380700019719F101091FFA89F9B9F1E7
S1135920000F01D10120814615F1F800874205D00E
S1135930F86880B21FFA89F94845E6D0C5F80861CD
S11359401FFA89F9C5F80491504605B0BDE8F08FF7
S11359500200D36D1800002901D0002800D1D165C0
S113596070472DE9F0418AB0040000275FF0000879
S113597001A82021FFF790FC4D4800680500D5F8E8
S1135980F000E168884202D25FF0010801E05FF0B4
S11359900008B8F1000F07D04FF472624549474838
S11359A0FEF7E8FEAFF30080B8F1000F01D000204D
S11359B07BE0B5F800014FF6FE71884202DB5FF030
S11359C0010801E05FF00008B8F1000F07D040F6CD
S11359D0287238493948FEF7CDFEAFF30080B8F19C
S11359E0000F01D0002060E06068B0F5B67F02D8F7
S11359F05FF0010801E05FF00008B8F1000F07D084
S1135A004FF473622B492D48FEF7B4FEAFF30080C8
S1135A10B8F1000F01D0002047E000200190206879
S1135A20029060680390E0680490206905906069C2
S1135A300690A0690790E0690890002000906368D0
S1135A40A26801A90020FFF706FE0600002E02D17D
S1135A505FF0010801E05FF00008B8F1000F07D023
S1135A6040F6477213491548FEF784FEAFF30080F1
S1135A70B8F1000F01D0002017E0F0680700E869D2
S1135A8015F15001884203D09DF81800800602D514
S1135A900320B06008E000F0CBFA3000FFF7D3FE3B
S1135AA000F0D6FA01F038FC38000AB0BDE8F08105
S1135AB0A807002090BD02006B61747388CE0200B9
S1135AC070B50400DFF80C0200680500002C03D157
S1135AD00C20FFF7A4FD0FE0E869060000F0A8FA27
S1135AE016F1440215F5E271200001F021FE3000A8
S1135AF000F003F800F0ACFA70BD2DE9F84304009F
S1135B00DFF8D0010068804618F5EE708146B8F8D9
S1135B10E401002826D0D8F8DC010500B8F8E40137
S1135B20401C0600761E002E1CD0D4E91123D5E9B2
S1135B3011018B4204D801D3824201D201270CE027
S1135B40D5E91123D4E911018B4205D801D382424E
S1135B5002D25FF0FF3700E00027002F02D5A946EC
S1135B602D68DFE76168080021688C46C0F800C032
S1135B70CCF804002200494618F5EE7001F0B7FD98
S1135B80A06850F48070A06001F0D4FBBDE8F183FC
S1135B9070B50400DFF83C0100680500002C03D157
S1135BA00C20FFF73CFD0EE0E869060016F1440006
S1135BB00ECC0EC00C3C0C3800F03AFA3000FFF763
S1135BC09CFF00F045FA70BDDFF808110968080071
S1135BD0D0F8F00170472DE9F0473E480068040012
S1135BE0D4E97101401C51F10001C4E9710100F0D4
S1135BF01FFAD4F8FC01002806D0D4F80002D4F827
S1135C00FC118847C4F8CC0114F5E27001F0BAFD28
S1135C10B4F8E4010600002E44D0D4F8DC010500F9
S1135C203000461E00283DD028688246D5E911235D
S1135C30D4E971018B4204D801D3824201D20127F5
S1135C400CE0D4E97123D5E911018B4205D801D3C5
S1135C50824202D25FF0FF3700E00027002F21D4F8
S1135C60B4F8E401401EA4F8E40169680800296856
S1135C708946C0F80090C9F80400A86840050CD50E
S1135C80296C0800E96B8846C0F80080C8F8040055
S1135C90A86B0089401EA96B08812800FFF7D3FD7B
S1135CA05546BDE700F0D4F9BDE8F087094A12680B
S1135CB01100C1F8F0017047064B1B681A00C2F8C6
S1135CC0FC01C2F800127047024A12681100C1F8C0
S1135CD0F8017047A80700202DE9F84304000D00DF
S1135CE016001F00DFF8080300688046A561002144
S1135CF014F1080001F0BBFC00F09AF9F6B2002E92
S1135D0015D1D8F81801814618F58C70814509D051
S1135D10A14504D100F09CF94FF482600DE0D9F85C
S1135D200090F1E7210018F58C7001F0A6FCDFF873
S1135D30C402606100F08CF90020BDE8F28338B53C
S1135D4004000D000023002229002000FFF7C4FFF7
S1135D5032BD2DE9F04705000E00DFF8940200681B
S1135D60070000F065F900206861288A002829D01E
S1135D7015F1080001F0A1FC8146B9F13C09D9F8FC
S1135D800800C0051AD5D9F804100800D9F8001085
S1135D908A46C0F800A0CAF80400B7F8E401401E1F
S1135DA0A7F8E401D9F8080030F48070C9F80800B5
S1135DB0D9F8080050F00300C9F808004846FFF776
S1135DC042FDD2E7D7F81801804617F58C7080455C
S1135DD010D0A8450BD16968080029680C0004603C
S1135DE06060B7F82001401EA7F8200102E0D8F84F
S1135DF00080EAE700F02CF901F08EFA0020BDE8FB
S1135E00F08710B5040000212000FFF7A2FF10BDA9
S1135E1038B5040000F00CF9A069012802DA00206A
S1135E20050004E0A069401EA0610120050000F007
S1135E300FF92800C0B232BDF8B505006C480068FF
S1135E40060000F0F5F8A869002826D4288A00285E
S1135E5023D015F1080001F030FC07003C3FB8687E
S1135E60C00512D57968080039680C0004606060C8
S1135E70B6F8E401401EA6F8E401B86830F4807076
S1135E80B860B86850F00300B8600020B863380008
S1135E90FFF7D9FC01F040FA02E0A869401CA861B0
S1135EA000F0D6F80020F2BDF8B5040050480068B0
S1135EB00500288B002801D00D2029E000F0B8F857
S1135EC0A069012816DAE869060040F22B40B060A8
S1135ED014F10800B0637168080031680F000760AE
S1135EE0786016F13C0114F1080001F0C6FB01F0E2
S1135EF021FA02E0A069401EA06160693D49884220
S1135F0003D000F0A5F81F2002E000F0A1F8002063
S1135F10F2BD38B504000D0040F22B40A86014F126
S1135F200800A8636968080029680A0002605060D4
S1135F3015F13C0114F1080001F09FFB2800FFF764
